{
  "address": "0x6014c4fD1BC5C8FC8c70838644b095AFCa53F568",
  "abi": [
    {
      "inputs": [
        {
          "internalType": "contract IERC20",
          "name": "asset_",
          "type": "address"
        }
      ],
      "stateMutability": "nonpayable",
      "type": "constructor"
    },
    {
      "inputs": [
        {
          "internalType": "address",
          "name": "owner",
          "type": "address"
        }
      ],
      "name": "OwnableInvalidOwner",
      "type": "error"
    },
    {
      "inputs": [
        {
          "internalType": "address",
          "name": "account",
          "type": "address"
        }
      ],
      "name": "OwnableUnauthorizedAccount",
      "type": "error"
    },
    {
      "anonymous": false,
      "inputs": [
        {
          "indexed": false,
          "internalType": "uint256",
          "name": "start",
          "type": "uint256"
        },
        {
          "indexed": false,
          "internalType": "uint256",
          "name": "end",
          "type": "uint256"
        },
        {
          "indexed": false,
          "internalType": "bytes32",
          "name": "hash",
          "type": "bytes32"
        }
      ],
      "name": "Disembark",
      "type": "event"
    },
    {
      "anonymous": false,
      "inputs": [
        {
          "indexed": true,
          "internalType": "address",
          "name": "previousOwner",
          "type": "address"
        },
        {
          "indexed": true,
          "internalType": "address",
          "name": "newOwner",
          "type": "address"
        }
      ],
      "name": "OwnershipTransferred",
      "type": "event"
    },
    {
      "inputs": [
        {
          "internalType": "bytes32",
          "name": "hash_",
          "type": "bytes32"
        }
      ],
      "name": "disembark",
      "outputs": [],
      "stateMutability": "nonpayable",
      "type": "function"
    },
    {
      "inputs": [
        {
          "internalType": "bytes32",
          "name": "hash_",
          "type": "bytes32"
        }
      ],
      "name": "emitDisembark",
      "outputs": [],
      "stateMutability": "nonpayable",
      "type": "function"
    },
    {
      "inputs": [],
      "name": "owner",
      "outputs": [
        {
          "internalType": "address",
          "name": "",
          "type": "address"
        }
      ],
      "stateMutability": "view",
      "type": "function"
    },
    {
      "inputs": [],
      "name": "renounceOwnership",
      "outputs": [],
      "stateMutability": "nonpayable",
      "type": "function"
    },
    {
      "inputs": [
        {
          "internalType": "address",
          "name": "recipient_",
          "type": "address"
        }
      ],
      "name": "setRecipient",
      "outputs": [],
      "stateMutability": "nonpayable",
      "type": "function"
    },
    {
      "inputs": [
        {
          "internalType": "address",
          "name": "newOwner",
          "type": "address"
        }
      ],
      "name": "transferOwnership",
      "outputs": [],
      "stateMutability": "nonpayable",
      "type": "function"
    },
    {
      "inputs": [
        {
          "internalType": "uint256",
          "name": "amount",
          "type": "uint256"
        }
      ],
      "name": "withdraw",
      "outputs": [],
      "stateMutability": "nonpayable",
      "type": "function"
    }
  ],
  "transactionHash": "0x05c0c879ac1ba47002526c70a554ab2bd738c91d6b1789b3fc873dbbf1de28ea",
  "args": [
    "0xfc00000000000000000000000000000000000005"
  ],
  "numDeployments": 1,
  "solcInputHash": "7f29d2913e2a1b138a23be0bb943c87a",
  "bytecode": "0x608060405234801561001057600080fd5b506040516106b13803806106b183398101604081905261002f916100d4565b338061005557604051631e4fbdf760e01b81526000600482015260240160405180910390fd5b61005e81610084565b50600180546001600160a01b0319166001600160a01b0392909216919091179055610104565b600080546001600160a01b038381166001600160a01b0319831681178455604051919092169283917f8be0079c531659141344cd1fd0a4f28419497f9722a3daafe3b4186f6b6457e09190a35050565b6000602082840312156100e657600080fd5b81516001600160a01b03811681146100fd57600080fd5b9392505050565b61059e806101136000396000f3fe608060405234801561001057600080fd5b506004361061007d5760003560e01c80635564d5ba1161005b5780635564d5ba146100bd578063715018a6146100d05780638da5cb5b146100d8578063f2fde38b146100f757600080fd5b806322ab9f4f146100825780632e1a7d4d146100975780633bbed4a0146100aa575b600080fd5b6100956100903660046104e4565b61010a565b005b6100956100a53660046104e4565b610157565b6100956100b83660046104fd565b61021c565b6100956100cb3660046104e4565b610246565b610095610418565b600054604080516001600160a01b039092168252519081900360200190f35b6100956101053660046104fd565b61042c565b610112610467565b6040805160008152600260208201529081018290527fce67cdf2a5dbd123a7aa5e9fd21b2136e06d33eb30e024ee5c491a6ec934a48b9060600160405180910390a150565b61015f610467565b60015460405163a9059cbb60e01b8152336004820152602481018390526001600160a01b039091169063a9059cbb906044016020604051808303816000875af11580156101b0573d6000803e3d6000fd5b505050506040513d601f19601f820116820180604052508101906101d4919061052d565b6102195760405162461bcd60e51b815260206004820152601160248201527015da5d1a191c985dd85b0819985a5b1959607a1b60448201526064015b60405180910390fd5b50565b610224610467565b600280546001600160a01b0319166001600160a01b0392909216919091179055565b61024e610467565b6001546040516370a0823160e01b81523060048201526000916001600160a01b0316906370a0823190602401602060405180830381865afa158015610297573d6000803e3d6000fd5b505050506040513d601f19601f820116820180604052508101906102bb919061054f565b90506000811161030d5760405162461bcd60e51b815260206004820152601760248201527f4e6f2062616c616e636520746f20646973656d6261726b0000000000000000006044820152606401610210565b60015460025460405163a9059cbb60e01b81526001600160a01b0391821660048201526024810184905291169063a9059cbb906044016020604051808303816000875af1158015610362573d6000803e3d6000fd5b505050506040513d601f19601f82011682018060405250810190610386919061052d565b6103d25760405162461bcd60e51b815260206004820152601960248201527f446973656d6261726b207472616e73666572206661696c6564000000000000006044820152606401610210565b6040805160008152600260208201529081018390527fce67cdf2a5dbd123a7aa5e9fd21b2136e06d33eb30e024ee5c491a6ec934a48b9060600160405180910390a15050565b610420610467565b61042a6000610494565b565b610434610467565b6001600160a01b03811661045e57604051631e4fbdf760e01b815260006004820152602401610210565b61021981610494565b6000546001600160a01b0316331461042a5760405163118cdaa760e01b8152336004820152602401610210565b600080546001600160a01b038381166001600160a01b0319831681178455604051919092169283917f8be0079c531659141344cd1fd0a4f28419497f9722a3daafe3b4186f6b6457e09190a35050565b6000602082840312156104f657600080fd5b5035919050565b60006020828403121561050f57600080fd5b81356001600160a01b038116811461052657600080fd5b9392505050565b60006020828403121561053f57600080fd5b8151801515811461052657600080fd5b60006020828403121561056157600080fd5b505191905056fea2646970667358221220cd58de3787d509b8d3231f591cb1d7ab5c7c9bfd3e08117dd823a9633cf2f98e64736f6c63430008140033",
  "devdoc": {
    "errors": {
      "OwnableInvalidOwner(address)": [
        {
          "details": "The owner is not a valid owner account. (eg. `address(0)`)"
        }
      ],
      "OwnableUnauthorizedAccount(address)": [
        {
          "details": "The caller account is not authorized to perform an operation."
        }
      ]
    },
    "kind": "dev",
    "methods": {
      "owner()": {
        "details": "Returns the address of the current owner."
      },
      "renounceOwnership()": {
        "details": "Leaves the contract without owner. It will not be possible to call `onlyOwner` functions. Can only be called by the current owner. NOTE: Renouncing ownership will leave the contract without an owner, thereby disabling any functionality that is only available to the owner."
      },
      "transferOwnership(address)": {
        "details": "Transfers ownership of the contract to a new account (`newOwner`). Can only be called by the current owner."
      }
    },
    "version": 1
  },
  "userdoc": {
    "kind": "user",
    "methods": {},
    "version": 1
  },
  "storageLayout": {
    "storage": [
      {
        "astId": 8,
        "contract": "contracts/FraxFerryMockL1.sol:FraxFerryMockL1",
        "label": "_owner",
        "offset": 0,
        "slot": "0",
        "type": "t_address"
      },
      {
        "astId": 264,
        "contract": "contracts/FraxFerryMockL1.sol:FraxFerryMockL1",
        "label": "_asset",
        "offset": 0,
        "slot": "1",
        "type": "t_contract(IERC20)225"
      },
      {
        "astId": 266,
        "contract": "contracts/FraxFerryMockL1.sol:FraxFerryMockL1",
        "label": "_recipient",
        "offset": 0,
        "slot": "2",
        "type": "t_address"
      }
    ],
    "types": {
      "t_address": {
        "encoding": "inplace",
        "label": "address",
        "numberOfBytes": "20"
      },
      "t_contract(IERC20)225": {
        "encoding": "inplace",
        "label": "contract IERC20",
        "numberOfBytes": "20"
      }
    }
  }
}