{
  "address": "0x3AB033Fc3b1818DE720C5C8b2C519AA3D1a93111",
  "abi": [
    {
      "inputs": [
        {
          "internalType": "contract IERC20",
          "name": "asset_",
          "type": "address"
        }
      ],
      "stateMutability": "nonpayable",
      "type": "constructor"
    },
    {
      "inputs": [
        {
          "internalType": "address",
          "name": "owner",
          "type": "address"
        }
      ],
      "name": "OwnableInvalidOwner",
      "type": "error"
    },
    {
      "inputs": [
        {
          "internalType": "address",
          "name": "account",
          "type": "address"
        }
      ],
      "name": "OwnableUnauthorizedAccount",
      "type": "error"
    },
    {
      "anonymous": false,
      "inputs": [
        {
          "indexed": false,
          "internalType": "uint256",
          "name": "start",
          "type": "uint256"
        },
        {
          "indexed": false,
          "internalType": "uint256",
          "name": "end",
          "type": "uint256"
        },
        {
          "indexed": false,
          "internalType": "bytes32",
          "name": "hash",
          "type": "bytes32"
        }
      ],
      "name": "Disembark",
      "type": "event"
    },
    {
      "anonymous": false,
      "inputs": [
        {
          "indexed": true,
          "internalType": "address",
          "name": "previousOwner",
          "type": "address"
        },
        {
          "indexed": true,
          "internalType": "address",
          "name": "newOwner",
          "type": "address"
        }
      ],
      "name": "OwnershipTransferred",
      "type": "event"
    },
    {
      "inputs": [],
      "name": "disembark",
      "outputs": [],
      "stateMutability": "nonpayable",
      "type": "function"
    },
    {
      "inputs": [],
      "name": "owner",
      "outputs": [
        {
          "internalType": "address",
          "name": "",
          "type": "address"
        }
      ],
      "stateMutability": "view",
      "type": "function"
    },
    {
      "inputs": [],
      "name": "renounceOwnership",
      "outputs": [],
      "stateMutability": "nonpayable",
      "type": "function"
    },
    {
      "inputs": [
        {
          "internalType": "address",
          "name": "recipient_",
          "type": "address"
        }
      ],
      "name": "setRecipient",
      "outputs": [],
      "stateMutability": "nonpayable",
      "type": "function"
    },
    {
      "inputs": [
        {
          "internalType": "address",
          "name": "newOwner",
          "type": "address"
        }
      ],
      "name": "transferOwnership",
      "outputs": [],
      "stateMutability": "nonpayable",
      "type": "function"
    },
    {
      "inputs": [
        {
          "internalType": "uint256",
          "name": "amount",
          "type": "uint256"
        }
      ],
      "name": "withdraw",
      "outputs": [],
      "stateMutability": "nonpayable",
      "type": "function"
    }
  ],
  "transactionHash": "0xade577fb342bb49fc735c92ac5cf5fd04cdcac27bf5ad95e5e71706e23a526ba",
  "args": [
    "0xfc00000000000000000000000000000000000005"
  ],
  "numDeployments": 1,
  "solcInputHash": "5521c83a35a261d4e50b000c4edaa1ca",
  "bytecode": "0x608060405234801561001057600080fd5b5060405161067238038061067283398101604081905261002f916100d4565b338061005557604051631e4fbdf760e01b81526000600482015260240160405180910390fd5b61005e81610084565b50600180546001600160a01b0319166001600160a01b0392909216919091179055610104565b600080546001600160a01b038381166001600160a01b0319831681178455604051919092169283917f8be0079c531659141344cd1fd0a4f28419497f9722a3daafe3b4186f6b6457e09190a35050565b6000602082840312156100e657600080fd5b81516001600160a01b03811681146100fd57600080fd5b9392505050565b61055f806101136000396000f3fe608060405234801561001057600080fd5b50600436106100625760003560e01c80632e1a7d4d146100675780633bbed4a01461007c578063715018a61461008f5780638da5cb5b14610097578063941e584b146100b6578063f2fde38b146100be575b600080fd5b61007a6100753660046104a5565b6100d1565b005b61007a61008a3660046104be565b610196565b61007a6101c0565b600054604080516001600160a01b039092168252519081900360200190f35b61007a6101d4565b61007a6100cc3660046104be565b6103ed565b6100d9610428565b60015460405163a9059cbb60e01b8152336004820152602481018390526001600160a01b039091169063a9059cbb906044016020604051808303816000875af115801561012a573d6000803e3d6000fd5b505050506040513d601f19601f8201168201806040525081019061014e91906104ee565b6101935760405162461bcd60e51b815260206004820152601160248201527015da5d1a191c985dd85b0819985a5b1959607a1b60448201526064015b60405180910390fd5b50565b61019e610428565b600280546001600160a01b0319166001600160a01b0392909216919091179055565b6101c8610428565b6101d26000610455565b565b6101dc610428565b6001546040516370a0823160e01b81523060048201526000916001600160a01b0316906370a0823190602401602060405180830381865afa158015610225573d6000803e3d6000fd5b505050506040513d601f19601f820116820180604052508101906102499190610510565b90506000811161029b5760405162461bcd60e51b815260206004820152601760248201527f4e6f2062616c616e636520746f20646973656d6261726b000000000000000000604482015260640161018a565b60015460025460405163a9059cbb60e01b81526001600160a01b0391821660048201526024810184905291169063a9059cbb906044016020604051808303816000875af11580156102f0573d6000803e3d6000fd5b505050506040513d601f19601f8201168201806040525081019061031491906104ee565b6103605760405162461bcd60e51b815260206004820152601960248201527f446973656d6261726b207472616e73666572206661696c656400000000000000604482015260640161018a565b6002546040805143602082015260609290921b6bffffffffffffffffffffffff191690820152605481018290527fce67cdf2a5dbd123a7aa5e9fd21b2136e06d33eb30e024ee5c491a6ec934a48b90600090819060740160408051601f1981840301815282825280516020918201209483528201929092529081019190915260600160405180910390a150565b6103f5610428565b6001600160a01b03811661041f57604051631e4fbdf760e01b81526000600482015260240161018a565b61019381610455565b6000546001600160a01b031633146101d25760405163118cdaa760e01b815233600482015260240161018a565b600080546001600160a01b038381166001600160a01b0319831681178455604051919092169283917f8be0079c531659141344cd1fd0a4f28419497f9722a3daafe3b4186f6b6457e09190a35050565b6000602082840312156104b757600080fd5b5035919050565b6000602082840312156104d057600080fd5b81356001600160a01b03811681146104e757600080fd5b9392505050565b60006020828403121561050057600080fd5b815180151581146104e757600080fd5b60006020828403121561052257600080fd5b505191905056fea26469706673582212202b5b21f5d0ab6627d07d154e553e220768be73aeefb8650b5935513d9ca4437c64736f6c63430008140033",
  "devdoc": {
    "errors": {
      "OwnableInvalidOwner(address)": [
        {
          "details": "The owner is not a valid owner account. (eg. `address(0)`)"
        }
      ],
      "OwnableUnauthorizedAccount(address)": [
        {
          "details": "The caller account is not authorized to perform an operation."
        }
      ]
    },
    "kind": "dev",
    "methods": {
      "owner()": {
        "details": "Returns the address of the current owner."
      },
      "renounceOwnership()": {
        "details": "Leaves the contract without owner. It will not be possible to call `onlyOwner` functions. Can only be called by the current owner. NOTE: Renouncing ownership will leave the contract without an owner, thereby disabling any functionality that is only available to the owner."
      },
      "transferOwnership(address)": {
        "details": "Transfers ownership of the contract to a new account (`newOwner`). Can only be called by the current owner."
      }
    },
    "version": 1
  },
  "userdoc": {
    "kind": "user",
    "methods": {},
    "version": 1
  },
  "storageLayout": {
    "storage": [
      {
        "astId": 8,
        "contract": "contracts/FraxFerryMockL1.sol:FraxFerryMockL1",
        "label": "_owner",
        "offset": 0,
        "slot": "0",
        "type": "t_address"
      },
      {
        "astId": 4587,
        "contract": "contracts/FraxFerryMockL1.sol:FraxFerryMockL1",
        "label": "_asset",
        "offset": 0,
        "slot": "1",
        "type": "t_contract(IERC20)1047"
      },
      {
        "astId": 4589,
        "contract": "contracts/FraxFerryMockL1.sol:FraxFerryMockL1",
        "label": "_recipient",
        "offset": 0,
        "slot": "2",
        "type": "t_address"
      }
    ],
    "types": {
      "t_address": {
        "encoding": "inplace",
        "label": "address",
        "numberOfBytes": "20"
      },
      "t_contract(IERC20)1047": {
        "encoding": "inplace",
        "label": "contract IERC20",
        "numberOfBytes": "20"
      }
    }
  }
}