{
  "address": "0x8B3F170107950c89bFb2f9B6C194d1EA06119294",
  "abi": [
    {
      "inputs": [
        {
          "internalType": "contract IERC20",
          "name": "asset_",
          "type": "address"
        },
        {
          "internalType": "address",
          "name": "remoteAsset_",
          "type": "address"
        },
        {
          "internalType": "address",
          "name": "l1StandardBridgeProxy_",
          "type": "address"
        },
        {
          "internalType": "address",
          "name": "eigenLayerStrategyManager_",
          "type": "address"
        },
        {
          "internalType": "address",
          "name": "eigenLayerStrategy_",
          "type": "address"
        },
        {
          "internalType": "address",
          "name": "eigenLayerDelegationManager_",
          "type": "address"
        },
        {
          "internalType": "address",
          "name": "eigenLayerRewardsCoordinator_",
          "type": "address"
        }
      ],
      "stateMutability": "nonpayable",
      "type": "constructor"
    },
    {
      "inputs": [
        {
          "internalType": "address",
          "name": "owner",
          "type": "address"
        }
      ],
      "name": "OwnableInvalidOwner",
      "type": "error"
    },
    {
      "inputs": [
        {
          "internalType": "address",
          "name": "account",
          "type": "address"
        }
      ],
      "name": "OwnableUnauthorizedAccount",
      "type": "error"
    },
    {
      "inputs": [],
      "name": "ReentrancyGuardReentrantCall",
      "type": "error"
    },
    {
      "anonymous": false,
      "inputs": [
        {
          "indexed": false,
          "internalType": "uint256",
          "name": "assets",
          "type": "uint256"
        },
        {
          "indexed": false,
          "internalType": "uint256",
          "name": "shares",
          "type": "uint256"
        },
        {
          "indexed": false,
          "internalType": "address",
          "name": "strategy",
          "type": "address"
        }
      ],
      "name": "AssetsDepositedIntoStrategy",
      "type": "event"
    },
    {
      "anonymous": false,
      "inputs": [
        {
          "indexed": true,
          "internalType": "address",
          "name": "receiver",
          "type": "address"
        },
        {
          "indexed": false,
          "internalType": "uint256",
          "name": "assets",
          "type": "uint256"
        }
      ],
      "name": "AssetsShippedToL2",
      "type": "event"
    },
    {
      "anonymous": false,
      "inputs": [
        {
          "indexed": true,
          "internalType": "address",
          "name": "previousOwner",
          "type": "address"
        },
        {
          "indexed": true,
          "internalType": "address",
          "name": "newOwner",
          "type": "address"
        }
      ],
      "name": "OwnershipTransferred",
      "type": "event"
    },
    {
      "anonymous": false,
      "inputs": [
        {
          "indexed": false,
          "internalType": "uint256",
          "name": "assets",
          "type": "uint256"
        },
        {
          "indexed": false,
          "internalType": "uint256",
          "name": "shares",
          "type": "uint256"
        },
        {
          "indexed": false,
          "internalType": "address",
          "name": "strategy",
          "type": "address"
        }
      ],
      "name": "WithdrawalCompleted",
      "type": "event"
    },
    {
      "anonymous": false,
      "inputs": [
        {
          "indexed": true,
          "internalType": "bytes32",
          "name": "withdrawalId",
          "type": "bytes32"
        },
        {
          "indexed": false,
          "internalType": "address",
          "name": "staker",
          "type": "address"
        },
        {
          "indexed": false,
          "internalType": "address",
          "name": "withdrawer",
          "type": "address"
        },
        {
          "indexed": true,
          "internalType": "uint256",
          "name": "nonce",
          "type": "uint256"
        },
        {
          "indexed": false,
          "internalType": "uint256",
          "name": "startBlock",
          "type": "uint256"
        },
        {
          "indexed": false,
          "internalType": "address",
          "name": "strategy",
          "type": "address"
        },
        {
          "indexed": false,
          "internalType": "uint256",
          "name": "shares",
          "type": "uint256"
        },
        {
          "indexed": false,
          "internalType": "uint256",
          "name": "assets",
          "type": "uint256"
        },
        {
          "indexed": true,
          "internalType": "bytes32",
          "name": "withdrawalRoot",
          "type": "bytes32"
        }
      ],
      "name": "WithdrawalInitiated",
      "type": "event"
    },
    {
      "inputs": [],
      "name": "asset",
      "outputs": [
        {
          "internalType": "address",
          "name": "",
          "type": "address"
        }
      ],
      "stateMutability": "view",
      "type": "function"
    },
    {
      "inputs": [
        {
          "components": [
            {
              "internalType": "address",
              "name": "staker",
              "type": "address"
            },
            {
              "internalType": "address",
              "name": "delegatedTo",
              "type": "address"
            },
            {
              "internalType": "address",
              "name": "withdrawer",
              "type": "address"
            },
            {
              "internalType": "uint256",
              "name": "nonce",
              "type": "uint256"
            },
            {
              "internalType": "uint32",
              "name": "startBlock",
              "type": "uint32"
            },
            {
              "internalType": "address[]",
              "name": "strategies",
              "type": "address[]"
            },
            {
              "internalType": "uint256[]",
              "name": "shares",
              "type": "uint256[]"
            }
          ],
          "internalType": "struct IDelegationManager.Withdrawal",
          "name": "withdrawal",
          "type": "tuple"
        }
      ],
      "name": "completeEigenlayerWithdrawal",
      "outputs": [],
      "stateMutability": "nonpayable",
      "type": "function"
    },
    {
      "inputs": [
        {
          "internalType": "address",
          "name": "operator_",
          "type": "address"
        }
      ],
      "name": "delegate",
      "outputs": [],
      "stateMutability": "nonpayable",
      "type": "function"
    },
    {
      "inputs": [],
      "name": "depositIntoStrategy",
      "outputs": [],
      "stateMutability": "nonpayable",
      "type": "function"
    },
    {
      "inputs": [
        {
          "internalType": "bytes",
          "name": "calldata_",
          "type": "bytes"
        }
      ],
      "name": "initiateEigenlayerWithdrawal",
      "outputs": [],
      "stateMutability": "nonpayable",
      "type": "function"
    },
    {
      "inputs": [],
      "name": "owner",
      "outputs": [
        {
          "internalType": "address",
          "name": "",
          "type": "address"
        }
      ],
      "stateMutability": "view",
      "type": "function"
    },
    {
      "inputs": [],
      "name": "queuedAssets",
      "outputs": [
        {
          "internalType": "uint256",
          "name": "",
          "type": "uint256"
        }
      ],
      "stateMutability": "view",
      "type": "function"
    },
    {
      "inputs": [],
      "name": "renounceOwnership",
      "outputs": [],
      "stateMutability": "nonpayable",
      "type": "function"
    },
    {
      "inputs": [],
      "name": "reservedAssets",
      "outputs": [
        {
          "internalType": "uint256",
          "name": "",
          "type": "uint256"
        }
      ],
      "stateMutability": "view",
      "type": "function"
    },
    {
      "inputs": [
        {
          "internalType": "address",
          "name": "claimer_",
          "type": "address"
        }
      ],
      "name": "setClaimer",
      "outputs": [],
      "stateMutability": "nonpayable",
      "type": "function"
    },
    {
      "inputs": [
        {
          "internalType": "address",
          "name": "floxiL2",
          "type": "address"
        }
      ],
      "name": "setRemoteContract",
      "outputs": [],
      "stateMutability": "nonpayable",
      "type": "function"
    },
    {
      "inputs": [
        {
          "internalType": "uint256",
          "name": "shares_",
          "type": "uint256"
        }
      ],
      "name": "sharesToUnderlying",
      "outputs": [
        {
          "internalType": "uint256",
          "name": "",
          "type": "uint256"
        }
      ],
      "stateMutability": "view",
      "type": "function"
    },
    {
      "inputs": [],
      "name": "shipToL2",
      "outputs": [],
      "stateMutability": "nonpayable",
      "type": "function"
    },
    {
      "inputs": [],
      "name": "totalAssets",
      "outputs": [
        {
          "internalType": "uint256",
          "name": "",
          "type": "uint256"
        }
      ],
      "stateMutability": "view",
      "type": "function"
    },
    {
      "inputs": [],
      "name": "totalShares",
      "outputs": [
        {
          "internalType": "uint256",
          "name": "",
          "type": "uint256"
        }
      ],
      "stateMutability": "view",
      "type": "function"
    },
    {
      "inputs": [],
      "name": "totalStakedAssets",
      "outputs": [
        {
          "internalType": "uint256",
          "name": "",
          "type": "uint256"
        }
      ],
      "stateMutability": "view",
      "type": "function"
    },
    {
      "inputs": [
        {
          "internalType": "address",
          "name": "newOwner",
          "type": "address"
        }
      ],
      "name": "transferOwnership",
      "outputs": [],
      "stateMutability": "nonpayable",
      "type": "function"
    }
  ],
  "transactionHash": "0x47530bd2d22184088e6729a94b109cd782cc01020b724deeda36d23a114a4116",
  "args": [
    "0xa63f56985F9C7F3bc9fFc5685535649e0C1a55f3",
    "0xfc00000000000000000000000000000000000005",
    "0x0BaafC217162f64930909aD9f2B27125121d6332",
    "0xdfB5f6CE42aAA7830E94ECFCcAd411beF4d4D5b6",
    "0x9281ff96637710Cd9A5CAcce9c6FAD8C9F54631c",
    "0xA44151489861Fe9e3055d95adC98FbD462B948e7",
    "0xAcc1fb458a1317E886dB376Fc8141540537E68fE"
  ],
  "numDeployments": 1,
  "solcInputHash": "5521c83a35a261d4e50b000c4edaa1ca",
  "bytecode": "0x6101606040523480156200001257600080fd5b506040516200264a3803806200264a83398101604081905262000035916200010f565b600160005533806200006157604051631e4fbdf760e01b81526000600482015260240160405180910390fd5b6200006c81620000a4565b506001600160a01b0396871660805294861660a05292851660c05290841660e0528316610100528216610120521661014052620001ba565b600180546001600160a01b038381166001600160a01b0319831681179093556040519116919082907f8be0079c531659141344cd1fd0a4f28419497f9722a3daafe3b4186f6b6457e090600090a35050565b6001600160a01b03811681146200010c57600080fd5b50565b600080600080600080600060e0888a0312156200012b57600080fd5b87516200013881620000f6565b60208901519097506200014b81620000f6565b60408901519096506200015e81620000f6565b60608901519095506200017181620000f6565b60808901519094506200018481620000f6565b60a08901519093506200019781620000f6565b60c0890151909250620001aa81620000f6565b8091505092959891949750929550565b60805160a05160c05160e05161010051610120516101405161235c620002ee60003960008181611311015261138d01526000818161041a0152818161066901528181610765015281816107f60152610c2301526000818161035701528181610563015281816105be015281816108f801528181610aa101528181610b9c01528181610dc9015281816114be015281816119650152611a8f0152600081816105e901528181610ac9015281816115ea015281816117b30152818161187201526119bf015260008181610e8e01528181610fee015281816110af01526111a4015260006111f401526000818161014a015281816102540152818161030a01528181611021015281816110d7015281816111d2015281816116cf015281816117e50152818161189c015261198d015261235c6000f3fe608060405234801561001057600080fd5b506004361061010b5760003560e01c806389bf85a5116100a2578063c0afb3f411610071578063c0afb3f4146101e1578063cba9a739146101f4578063cdfb5832146101fc578063f2fde38b1461020f578063f3e738751461022257600080fd5b806389bf85a5146101ad5780638da5cb5b146101b5578063a3f20478146101c6578063b0805075146101ce57600080fd5b80633a98ef39116100de5780633a98ef39146101825780633d302d061461018a5780635c19a95c14610192578063715018a6146101a557600080fd5b806301e1d1141461011057806313b18d9f1461012b57806325e6e2b21461013357806338d52e0f14610148575b600080fd5b610118610235565b6040519081526020015b60405180910390f35b600454610118565b610146610141366004611af4565b6102d6565b005b7f00000000000000000000000000000000000000000000000000000000000000005b6040516001600160a01b039091168152602001610122565b6101186105a1565b600554610118565b6101466101a0366004611b5b565b610657565b6101466108d0565b6101466108e4565b6001546001600160a01b031661016a565b6101186108f4565b6101466101dc366004611b78565b61094b565b6101466101ef366004611b5b565b610e52565b610146610e7c565b61014661020a366004611b5b565b6112e2565b61014661021d366004611b5b565b61146a565b610118610230366004611bea565b6114a5565b600061023f6108f4565b6040516370a0823160e01b81523060048201527f00000000000000000000000000000000000000000000000000000000000000006001600160a01b0316906370a0823190602401602060405180830381865afa1580156102a3573d6000803e3d6000fd5b505050506040513d601f19601f820116820180604052508101906102c79190611c03565b6102d19190611c32565b905090565b6102de611537565b6102e6611561565b604080516001808252818301909252600091602080830190803683370190505090507f00000000000000000000000000000000000000000000000000000000000000008160008151811061033c5761033c611c5b565b6001600160a01b0392831660209182029290920101526000907f000000000000000000000000000000000000000000000000000000000000000016637a8b263761038960c0860186611c71565b600081811061039a5761039a611c5b565b905060200201356040518263ffffffff1660e01b81526004016103bf91815260200190565b602060405180830381865afa1580156103dc573d6000803e3d6000fd5b505050506040513d601f19601f820116820180604052508101906104009190611c03565b6040516360d7faed60e01b81529091506001600160a01b037f000000000000000000000000000000000000000000000000000000000000000016906360d7faed906104579086908690600090600190600401611dd3565b600060405180830381600087803b15801561047157600080fd5b505af1925050508015610482575060015b6104d35760405162461bcd60e51b815260206004820152601a60248201527f436f6d706c657465205769746864726177616c206661696c656400000000000060448201526064015b60405180910390fd5b80600460008282546104e59190611ecc565b9250508190555080600560008282546104fe9190611c32565b90915550507f20c78f1902a221b9e00965cfee48cab9c1cd3fca1b14c8313d97588aa943645a8161053260c0860186611c71565b600081811061054357610543611c5b565b604080519485526020918202939093013590840152506001600160a01b037f0000000000000000000000000000000000000000000000000000000000000000169082015260600160405180910390a1505061059e6001600055565b50565b604051633d3f06c960e11b81523060048201526001600160a01b037f0000000000000000000000000000000000000000000000000000000000000000811660248301526000917f000000000000000000000000000000000000000000000000000000000000000090911690637a7e0d92906044015b602060405180830381865afa158015610633573d6000803e3d6000fd5b505050506040513d601f19601f820116820180604052508101906102d19190611c03565b61065f611537565b610667611561565b7f00000000000000000000000000000000000000000000000000000000000000006001600160a01b0316635c975abb6040518163ffffffff1660e01b8152600401602060405180830381865afa1580156106c5573d6000803e3d6000fd5b505050506040513d601f19601f820116820180604052508101906106e99190611edf565b156107325760405162461bcd60e51b815260206004820152601960248201527811195b1959d85d1a5bdb8813585b9859d95c8814185d5cd959603a1b60448201526064016104ca565b60408051808201825260608152600060208083018281528451918201855282825290835252905163eea9064b60e01b81527f00000000000000000000000000000000000000000000000000000000000000006001600160a01b03169063eea9064b906107a49085908590600401611f47565b600060405180830381600087803b1580156107be57600080fd5b505af11580156107d2573d6000803e3d6000fd5b5050604051631976849960e21b81523060048201526001600160a01b0385811693507f00000000000000000000000000000000000000000000000000000000000000001691506365da126490602401602060405180830381865afa15801561083e573d6000803e3d6000fd5b505050506040513d601f19601f820116820180604052508101906108629190611f8c565b6001600160a01b0316146108ac5760405162461bcd60e51b815260206004820152601160248201527011195b1959d85d1a5bdb8819985a5b1959607a1b60448201526064016104ca565b50600380546001600160a01b0319166001600160a01b038316179055600160005550565b6108d8611561565b6108e2600061158e565b565b6108ec611561565b6108e26115e0565b60007f00000000000000000000000000000000000000000000000000000000000000006001600160a01b0316637a8b263761092d6105a1565b6040518263ffffffff1660e01b815260040161061691815260200190565b610953611537565b61095b611561565b36600061096b8360048187611fa9565b9092509050600061097e838301846120bc565b905060008160008151811061099557610995611c5b565b6020026020010151602001516000815181106109b3576109b3611c5b565b60200260200101519050306001600160a01b0316826000815181106109da576109da611c5b565b6020026020010151604001516001600160a01b031614610a3c5760405162461bcd60e51b815260206004820181905260248201527f57697468647261776572206d757374206265207468697320636f6e747261637460448201526064016104ca565b60008111610a845760405162461bcd60e51b815260206004820152601560248201527404d75737420626520626967676572207468616e203605c1b60448201526064016104ca565b604051633d3f06c960e11b81523060048201526001600160a01b037f0000000000000000000000000000000000000000000000000000000000000000811660248301527f00000000000000000000000000000000000000000000000000000000000000001690637a7e0d9290604401602060405180830381865afa158015610b10573d6000803e3d6000fd5b505050506040513d601f19601f82011682018060405250810190610b349190611c03565b811115610b835760405162461bcd60e51b815260206004820152601960248201527f5368617265732072657175657374656420746f6f20686967680000000000000060448201526064016104ca565b604051637a8b263760e01b8152600481018290526000907f00000000000000000000000000000000000000000000000000000000000000006001600160a01b031690637a8b263790602401602060405180830381865afa158015610beb573d6000803e3d6000fd5b505050506040513d601f19601f82011682018060405250810190610c0f9190611c03565b905060008111610c1e57600080fd5b6000807f00000000000000000000000000000000000000000000000000000000000000006001600160a01b03168989604051610c5b929190612232565b6000604051808303816000865af19150503d8060008114610c98576040519150601f19603f3d011682016040523d82523d6000602084013e610c9d565b606091505b509150915081610ce65760405162461bcd60e51b8152602060048201526014602482015273115e1d195c9b985b0818d85b1b0819985a5b195960621b60448201526064016104ca565b600081806020019051810190610cfc9190612242565b6006546040516bffffffffffffffffffffffff193360601b166020820152603481019190915290915060009060540160405160208183030381529060405280519060200120905081600081518110610d5657610d56611c5b565b6020026020010151600654827fd5ad9b6c23516c293bb16975e767c37a900162e6b199b879c9d033b44bdd66c0308b600081518110610d9757610d97611c5b565b60209081029190910181015160409081015181516001600160a01b0394851681529084169281019290925243908201527f00000000000000000000000000000000000000000000000000000000000000009091166060820152608081018b905260a081018a905260c00160405180910390a4600160066000828254610e1c9190611c32565b925050819055508460046000828254610e359190611c32565b9091555050600160005550610e4e975050505050505050565b5050565b610e5a611561565b600880546001600160a01b0319166001600160a01b0392909216919091179055565b610e84611537565b610e8c611561565b7f00000000000000000000000000000000000000000000000000000000000000006001600160a01b0316635c975abb6040518163ffffffff1660e01b8152600401602060405180830381865afa158015610eea573d6000803e3d6000fd5b505050506040513d601f19601f82011682018060405250810190610f0e9190611edf565b15610f575760405162461bcd60e51b815260206004820152601960248201527811195b1959d85d1a5bdb8813585b9859d95c8814185d5cd959603a1b60448201526064016104ca565b6008546001600160a01b0316610faf5760405162461bcd60e51b815260206004820152601760248201527f52656d6f746520436f6e7472616374206e6f742073657400000000000000000060448201526064016104ca565b6000600754604051602001610fc691815260200190565b60408051601f198184030181529082905260055463095ea7b360e01b83526001600160a01b037f00000000000000000000000000000000000000000000000000000000000000008116600485015260248401919091529092507f0000000000000000000000000000000000000000000000000000000000000000169063095ea7b3906044016020604051808303816000875af115801561106a573d6000803e3d6000fd5b505050506040513d601f19601f8201168201806040525081019061108e9190611edf565b50600554604051636eb1769f60e11b81523060048201526001600160a01b037f0000000000000000000000000000000000000000000000000000000000000000811660248301527f0000000000000000000000000000000000000000000000000000000000000000169063dd62ed3e90604401602060405180830381865afa15801561111e573d6000803e3d6000fd5b505050506040513d601f19601f820116820180604052508101906111429190611c03565b146111875760405162461bcd60e51b8152602060048201526015602482015274151bdad95b88185c1c1c9bdd985b0819985a5b1959605a1b60448201526064016104ca565b60085460055460405163041c592960e51b81526001600160a01b037f000000000000000000000000000000000000000000000000000000000000000081169363838b252093611226937f0000000000000000000000000000000000000000000000000000000000000000937f00000000000000000000000000000000000000000000000000000000000000009316919062035b609089906004016122d3565b600060405180830381600087803b15801561124057600080fd5b505af1925050508015611251575060015b6112905760405162461bcd60e51b815260206004820152601060248201526f4661696c656420746f2062726964676560801b60448201526064016104ca565b600060058190556008546040519182526001600160a01b0316907fe1491a42a86c6a9e257995568328e6f5e48d08b1ba1ff8e6715bc235e3bc95e09060200160405180910390a2506108e26001600055565b6112ea611537565b6112f2611561565b60405163a0169ddd60e01b81526001600160a01b0382811660048301527f0000000000000000000000000000000000000000000000000000000000000000169063a0169ddd90602401600060405180830381600087803b15801561135557600080fd5b505af1158015611369573d6000803e3d6000fd5b5050604051630ae7d92960e21b81523060048201526001600160a01b0384811693507f0000000000000000000000000000000000000000000000000000000000000000169150632b9f64a490602401602060405180830381865afa1580156113d5573d6000803e3d6000fd5b505050506040513d601f19601f820116820180604052508101906113f99190611f8c565b6001600160a01b0316146114475760405162461bcd60e51b81526020600482015260156024820152742330b4b632b2103a379039b2ba1031b630b4b6b2b960591b60448201526064016104ca565b600280546001600160a01b0319166001600160a01b038316179055600160005550565b611472611561565b6001600160a01b03811661149c57604051631e4fbdf760e01b8152600060048201526024016104ca565b61059e8161158e565b604051637a8b263760e01b8152600481018290526000907f00000000000000000000000000000000000000000000000000000000000000006001600160a01b031690637a8b263790602401602060405180830381865afa15801561150d573d6000803e3d6000fd5b505050506040513d601f19601f820116820180604052508101906115319190611c03565b92915050565b60026000540361155a57604051633ee5aeb560e01b815260040160405180910390fd5b6002600055565b6001546001600160a01b031633146108e25760405163118cdaa760e01b81523360048201526024016104ca565b600180546001600160a01b038381166001600160a01b0319831681179093556040519116919082907f8be0079c531659141344cd1fd0a4f28419497f9722a3daafe3b4186f6b6457e090600090a35050565b6115e8611537565b7f00000000000000000000000000000000000000000000000000000000000000006001600160a01b0316635c975abb6040518163ffffffff1660e01b8152600401602060405180830381865afa158015611646573d6000803e3d6000fd5b505050506040513d601f19601f8201168201806040525081019061166a9190611edf565b156116b75760405162461bcd60e51b815260206004820152601760248201527f5374726174656779204d616e616765722050617573656400000000000000000060448201526064016104ca565b6040516370a0823160e01b81523060048201526000907f00000000000000000000000000000000000000000000000000000000000000006001600160a01b0316906370a0823190602401602060405180830381865afa15801561171e573d6000803e3d6000fd5b505050506040513d601f19601f820116820180604052508101906117429190611c03565b9050600554811161178c5760405162461bcd60e51b8152602060048201526014602482015273139bc8185cdcd95d1cc81d1bc819195c1bdcda5d60621b60448201526064016104ca565b60006005548261179c9190611ecc565b60405163095ea7b360e01b81526001600160a01b037f000000000000000000000000000000000000000000000000000000000000000081166004830152602482018390529192507f00000000000000000000000000000000000000000000000000000000000000009091169063095ea7b3906044016020604051808303816000875af1158015611830573d6000803e3d6000fd5b505050506040513d601f19601f820116820180604052508101906118549190611edf565b50604051636eb1769f60e11b81523060048201526001600160a01b037f00000000000000000000000000000000000000000000000000000000000000008116602483015282917f00000000000000000000000000000000000000000000000000000000000000009091169063dd62ed3e90604401602060405180830381865afa1580156118e5573d6000803e3d6000fd5b505050506040513d601f19601f820116820180604052508101906119099190611c03565b1461194e5760405162461bcd60e51b8152602060048201526015602482015274151bdad95b88185c1c1c9bdd985b0819985a5b1959605a1b60448201526064016104ca565b6040516373d0285560e11b81526001600160a01b037f0000000000000000000000000000000000000000000000000000000000000000811660048301527f000000000000000000000000000000000000000000000000000000000000000081166024830152604482018390526000917f00000000000000000000000000000000000000000000000000000000000000009091169063e7a050aa906064016020604051808303816000875af1158015611a0a573d6000803e3d6000fd5b505050506040513d601f19601f82011682018060405250810190611a2e9190611c03565b9050818114611a7f5760405162461bcd60e51b815260206004820152601760248201527f5374726174656779206465706f736974206661696c656400000000000000000060448201526064016104ca565b60408051838152602081018390527f00000000000000000000000000000000000000000000000000000000000000006001600160a01b03168183015290517f36a4e1d39709ff22f3f4f5c157c206091f4d38bc1d80b494210a9e41996ec4d19181900360600190a15050506108e26001600055565b600060208284031215611b0657600080fd5b813567ffffffffffffffff811115611b1d57600080fd5b820160e08185031215611b2f57600080fd5b9392505050565b6001600160a01b038116811461059e57600080fd5b8035611b5681611b36565b919050565b600060208284031215611b6d57600080fd5b8135611b2f81611b36565b60008060208385031215611b8b57600080fd5b823567ffffffffffffffff80821115611ba357600080fd5b818501915085601f830112611bb757600080fd5b813581811115611bc657600080fd5b866020828501011115611bd857600080fd5b60209290920196919550909350505050565b600060208284031215611bfc57600080fd5b5035919050565b600060208284031215611c1557600080fd5b5051919050565b634e487b7160e01b600052601160045260246000fd5b8082018082111561153157611531611c1c565b634e487b7160e01b600052604160045260246000fd5b634e487b7160e01b600052603260045260246000fd5b6000808335601e19843603018112611c8857600080fd5b83018035915067ffffffffffffffff821115611ca357600080fd5b6020019150600581901b3603821315611cbb57600080fd5b9250929050565b803563ffffffff81168114611b5657600080fd5b6000808335601e19843603018112611ced57600080fd5b830160208101925035905067ffffffffffffffff811115611d0d57600080fd5b8060051b3603821315611cbb57600080fd5b8183526000602080850194508260005b85811015611d5d578135611d4281611b36565b6001600160a01b031687529582019590820190600101611d2f565b509495945050505050565b81835260006001600160fb1b03831115611d8157600080fd5b8260051b80836020870137939093016020019392505050565b600081518084526020808501945080840160005b83811015611d5d5781516001600160a01b031687529582019590820190600101611dae565b6080815260008535611de481611b36565b6001600160a01b031660808301526020860135611e0081611b36565b6001600160a01b031660a0830152611e1a60408701611b4b565b6001600160a01b031660c0830152606086013560e0830152611e3e60808701611cc2565b63ffffffff16610100830152611e5760a0870187611cd6565b60e0610120850152611e6e61016085018284611d1f565b915050611e7e60c0880188611cd6565b848303607f1901610140860152611e96838284611d68565b925050508281036020840152611eac8187611d9a565b915050836040830152611ec3606083018415159052565b95945050505050565b8181038181111561153157611531611c1c565b600060208284031215611ef157600080fd5b81518015158114611b2f57600080fd5b6000815180845260005b81811015611f2757602081850181015186830182015201611f0b565b506000602082860101526020601f19601f83011685010191505092915050565b60018060a01b0383168152606060208201526000825160406060840152611f7160a0840182611f01565b60209490940151608084015250506000604090910152919050565b600060208284031215611f9e57600080fd5b8151611b2f81611b36565b60008085851115611fb957600080fd5b83861115611fc657600080fd5b5050820193919092039150565b6040516060810167ffffffffffffffff81118282101715611ff657611ff6611c45565b60405290565b604051601f8201601f1916810167ffffffffffffffff8111828210171561202557612025611c45565b604052919050565b600067ffffffffffffffff82111561204757612047611c45565b5060051b60200190565b600082601f83011261206257600080fd5b813560206120776120728361202d565b611ffc565b82815260059290921b8401810191818101908684111561209657600080fd5b8286015b848110156120b1578035835291830191830161209a565b509695505050505050565b600060208083850312156120cf57600080fd5b823567ffffffffffffffff808211156120e757600080fd5b818501915085601f8301126120fb57600080fd5b81356121096120728261202d565b81815260059190911b8301840190848101908883111561212857600080fd5b8585015b838110156122255780358581111561214357600080fd5b86016060818c03601f1901121561215957600080fd5b612161611fd3565b888201358781111561217257600080fd5b8201603f81018d1361218357600080fd5b898101356121936120728261202d565b81815260059190911b8201604001908b8101908f8311156121b357600080fd5b6040840193505b828410156121dc5783356121cd81611b36565b8252928c0192908c01906121ba565b84525050506040820135878111156121f357600080fd5b6122018d8b83860101612051565b8a8301525061221260608301611b4b565b604082015284525091860191860161212c565b5098975050505050505050565b8183823760009101908152919050565b6000602080838503121561225557600080fd5b825167ffffffffffffffff81111561226c57600080fd5b8301601f8101851361227d57600080fd5b805161228b6120728261202d565b81815260059190911b820183019083810190878311156122aa57600080fd5b928401925b828410156122c8578351825292840192908401906122af565b979650505050505050565b6001600160a01b0387811682528681166020830152851660408201526060810184905263ffffffff8316608082015260c060a0820181905260009061231a90830184611f01565b9897505050505050505056fea264697066735822122060db60bfe21dad8c7a228eb473cdcf920114b93e8f6c82f576918481afe7f8df64736f6c63430008140033",
  "devdoc": {
    "errors": {
      "OwnableInvalidOwner(address)": [
        {
          "details": "The owner is not a valid owner account. (eg. `address(0)`)"
        }
      ],
      "OwnableUnauthorizedAccount(address)": [
        {
          "details": "The caller account is not authorized to perform an operation."
        }
      ],
      "ReentrancyGuardReentrantCall()": [
        {
          "details": "Unauthorized reentrant call."
        }
      ]
    },
    "kind": "dev",
    "methods": {
      "owner()": {
        "details": "Returns the address of the current owner."
      },
      "renounceOwnership()": {
        "details": "Leaves the contract without owner. It will not be possible to call `onlyOwner` functions. Can only be called by the current owner. NOTE: Renouncing ownership will leave the contract without an owner, thereby disabling any functionality that is only available to the owner."
      },
      "transferOwnership(address)": {
        "details": "Transfers ownership of the contract to a new account (`newOwner`). Can only be called by the current owner."
      }
    },
    "version": 1
  },
  "userdoc": {
    "kind": "user",
    "methods": {},
    "version": 1
  },
  "storageLayout": {
    "storage": [
      {
        "astId": 2378,
        "contract": "contracts/L1FloxiSfrxEth.sol:L1FloxiSfrxEth",
        "label": "_status",
        "offset": 0,
        "slot": "0",
        "type": "t_uint256"
      },
      {
        "astId": 8,
        "contract": "contracts/L1FloxiSfrxEth.sol:L1FloxiSfrxEth",
        "label": "_owner",
        "offset": 0,
        "slot": "1",
        "type": "t_address"
      },
      {
        "astId": 5244,
        "contract": "contracts/L1FloxiSfrxEth.sol:L1FloxiSfrxEth",
        "label": "_claimer",
        "offset": 0,
        "slot": "2",
        "type": "t_address"
      },
      {
        "astId": 5246,
        "contract": "contracts/L1FloxiSfrxEth.sol:L1FloxiSfrxEth",
        "label": "_eignelayerOperator",
        "offset": 0,
        "slot": "3",
        "type": "t_address"
      },
      {
        "astId": 5248,
        "contract": "contracts/L1FloxiSfrxEth.sol:L1FloxiSfrxEth",
        "label": "_queuedAssets",
        "offset": 0,
        "slot": "4",
        "type": "t_uint256"
      },
      {
        "astId": 5250,
        "contract": "contracts/L1FloxiSfrxEth.sol:L1FloxiSfrxEth",
        "label": "_reservedAssets",
        "offset": 0,
        "slot": "5",
        "type": "t_uint256"
      },
      {
        "astId": 5252,
        "contract": "contracts/L1FloxiSfrxEth.sol:L1FloxiSfrxEth",
        "label": "_withdrawQueueNonce",
        "offset": 0,
        "slot": "6",
        "type": "t_uint256"
      },
      {
        "astId": 5254,
        "contract": "contracts/L1FloxiSfrxEth.sol:L1FloxiSfrxEth",
        "label": "_bridgeDepositNonce",
        "offset": 0,
        "slot": "7",
        "type": "t_uint256"
      },
      {
        "astId": 5256,
        "contract": "contracts/L1FloxiSfrxEth.sol:L1FloxiSfrxEth",
        "label": "_remoteContract",
        "offset": 0,
        "slot": "8",
        "type": "t_address"
      }
    ],
    "types": {
      "t_address": {
        "encoding": "inplace",
        "label": "address",
        "numberOfBytes": "20"
      },
      "t_uint256": {
        "encoding": "inplace",
        "label": "uint256",
        "numberOfBytes": "32"
      }
    }
  }
}