{
  "address": "0xe5cDe99ef123DF0E66e36332d40aF00Cf8bA18C1",
  "abi": [
    {
      "inputs": [
        {
          "internalType": "contract IERC20",
          "name": "asset_",
          "type": "address"
        },
        {
          "internalType": "address",
          "name": "remoteAsset_",
          "type": "address"
        },
        {
          "internalType": "address",
          "name": "l1StandardBridgeProxy_",
          "type": "address"
        },
        {
          "internalType": "address",
          "name": "l1CrossDomainMessenger_",
          "type": "address"
        },
        {
          "internalType": "address",
          "name": "eigenLayerStrategyManager_",
          "type": "address"
        },
        {
          "internalType": "address",
          "name": "eigenLayerStrategy_",
          "type": "address"
        },
        {
          "internalType": "address",
          "name": "eigenLayerDelegationManager_",
          "type": "address"
        },
        {
          "internalType": "address",
          "name": "eigenLayerRewardsCoordinator_",
          "type": "address"
        }
      ],
      "stateMutability": "nonpayable",
      "type": "constructor"
    },
    {
      "inputs": [
        {
          "internalType": "address",
          "name": "owner",
          "type": "address"
        }
      ],
      "name": "OwnableInvalidOwner",
      "type": "error"
    },
    {
      "inputs": [
        {
          "internalType": "address",
          "name": "account",
          "type": "address"
        }
      ],
      "name": "OwnableUnauthorizedAccount",
      "type": "error"
    },
    {
      "inputs": [],
      "name": "ReentrancyGuardReentrantCall",
      "type": "error"
    },
    {
      "anonymous": false,
      "inputs": [
        {
          "indexed": false,
          "internalType": "uint256",
          "name": "assets",
          "type": "uint256"
        },
        {
          "indexed": false,
          "internalType": "uint256",
          "name": "shares",
          "type": "uint256"
        },
        {
          "indexed": false,
          "internalType": "address",
          "name": "strategy",
          "type": "address"
        }
      ],
      "name": "AssetsDepositedIntoStrategy",
      "type": "event"
    },
    {
      "anonymous": false,
      "inputs": [
        {
          "indexed": true,
          "internalType": "address",
          "name": "receiver",
          "type": "address"
        },
        {
          "indexed": false,
          "internalType": "uint256",
          "name": "assets",
          "type": "uint256"
        }
      ],
      "name": "AssetsShippedToL2",
      "type": "event"
    },
    {
      "anonymous": false,
      "inputs": [
        {
          "indexed": true,
          "internalType": "address",
          "name": "previousOwner",
          "type": "address"
        },
        {
          "indexed": true,
          "internalType": "address",
          "name": "newOwner",
          "type": "address"
        }
      ],
      "name": "OwnershipTransferred",
      "type": "event"
    },
    {
      "anonymous": false,
      "inputs": [
        {
          "indexed": false,
          "internalType": "uint256",
          "name": "assets",
          "type": "uint256"
        },
        {
          "indexed": false,
          "internalType": "uint256",
          "name": "shares",
          "type": "uint256"
        },
        {
          "indexed": false,
          "internalType": "address",
          "name": "strategy",
          "type": "address"
        }
      ],
      "name": "WithdrawalCompleted",
      "type": "event"
    },
    {
      "anonymous": false,
      "inputs": [
        {
          "indexed": true,
          "internalType": "bytes32",
          "name": "withdrawalId",
          "type": "bytes32"
        },
        {
          "indexed": false,
          "internalType": "address",
          "name": "staker",
          "type": "address"
        },
        {
          "indexed": false,
          "internalType": "address",
          "name": "withdrawer",
          "type": "address"
        },
        {
          "indexed": true,
          "internalType": "uint256",
          "name": "nonce",
          "type": "uint256"
        },
        {
          "indexed": false,
          "internalType": "uint256",
          "name": "startBlock",
          "type": "uint256"
        },
        {
          "indexed": false,
          "internalType": "address",
          "name": "strategy",
          "type": "address"
        },
        {
          "indexed": false,
          "internalType": "uint256",
          "name": "shares",
          "type": "uint256"
        },
        {
          "indexed": false,
          "internalType": "uint256",
          "name": "assets",
          "type": "uint256"
        },
        {
          "indexed": true,
          "internalType": "bytes32",
          "name": "withdrawalRoot",
          "type": "bytes32"
        }
      ],
      "name": "WithdrawalInitiated",
      "type": "event"
    },
    {
      "inputs": [],
      "name": "asset",
      "outputs": [
        {
          "internalType": "address",
          "name": "",
          "type": "address"
        }
      ],
      "stateMutability": "view",
      "type": "function"
    },
    {
      "inputs": [],
      "name": "calimer",
      "outputs": [
        {
          "internalType": "address",
          "name": "",
          "type": "address"
        }
      ],
      "stateMutability": "view",
      "type": "function"
    },
    {
      "inputs": [
        {
          "components": [
            {
              "internalType": "address",
              "name": "staker",
              "type": "address"
            },
            {
              "internalType": "address",
              "name": "delegatedTo",
              "type": "address"
            },
            {
              "internalType": "address",
              "name": "withdrawer",
              "type": "address"
            },
            {
              "internalType": "uint256",
              "name": "nonce",
              "type": "uint256"
            },
            {
              "internalType": "uint32",
              "name": "startBlock",
              "type": "uint32"
            },
            {
              "internalType": "address[]",
              "name": "strategies",
              "type": "address[]"
            },
            {
              "internalType": "uint256[]",
              "name": "shares",
              "type": "uint256[]"
            }
          ],
          "internalType": "struct IDelegationManager.Withdrawal",
          "name": "withdrawal",
          "type": "tuple"
        }
      ],
      "name": "completeEigenlayerWithdrawal",
      "outputs": [],
      "stateMutability": "nonpayable",
      "type": "function"
    },
    {
      "inputs": [],
      "name": "depositIntoStrategy",
      "outputs": [],
      "stateMutability": "nonpayable",
      "type": "function"
    },
    {
      "inputs": [
        {
          "internalType": "bytes",
          "name": "calldata_",
          "type": "bytes"
        }
      ],
      "name": "initiateEigenlayerWithdrawal",
      "outputs": [],
      "stateMutability": "nonpayable",
      "type": "function"
    },
    {
      "inputs": [],
      "name": "isDelegate",
      "outputs": [
        {
          "internalType": "address",
          "name": "",
          "type": "address"
        }
      ],
      "stateMutability": "view",
      "type": "function"
    },
    {
      "inputs": [],
      "name": "owner",
      "outputs": [
        {
          "internalType": "address",
          "name": "",
          "type": "address"
        }
      ],
      "stateMutability": "view",
      "type": "function"
    },
    {
      "inputs": [],
      "name": "queuedAssets",
      "outputs": [
        {
          "internalType": "uint256",
          "name": "",
          "type": "uint256"
        }
      ],
      "stateMutability": "view",
      "type": "function"
    },
    {
      "inputs": [],
      "name": "renounceOwnership",
      "outputs": [],
      "stateMutability": "nonpayable",
      "type": "function"
    },
    {
      "inputs": [],
      "name": "reservedAssets",
      "outputs": [
        {
          "internalType": "uint256",
          "name": "",
          "type": "uint256"
        }
      ],
      "stateMutability": "view",
      "type": "function"
    },
    {
      "inputs": [
        {
          "internalType": "address",
          "name": "claimer_",
          "type": "address"
        }
      ],
      "name": "setClaimer",
      "outputs": [],
      "stateMutability": "nonpayable",
      "type": "function"
    },
    {
      "inputs": [
        {
          "internalType": "address",
          "name": "operator_",
          "type": "address"
        }
      ],
      "name": "setDelegate",
      "outputs": [],
      "stateMutability": "nonpayable",
      "type": "function"
    },
    {
      "inputs": [
        {
          "internalType": "address",
          "name": "floxiL2",
          "type": "address"
        }
      ],
      "name": "setRemoteContract",
      "outputs": [],
      "stateMutability": "nonpayable",
      "type": "function"
    },
    {
      "inputs": [
        {
          "internalType": "uint256",
          "name": "shares_",
          "type": "uint256"
        }
      ],
      "name": "sharesToUnderlying",
      "outputs": [
        {
          "internalType": "uint256",
          "name": "",
          "type": "uint256"
        }
      ],
      "stateMutability": "view",
      "type": "function"
    },
    {
      "inputs": [],
      "name": "shipToL2",
      "outputs": [],
      "stateMutability": "nonpayable",
      "type": "function"
    },
    {
      "inputs": [],
      "name": "totalAssets",
      "outputs": [
        {
          "internalType": "uint256",
          "name": "",
          "type": "uint256"
        }
      ],
      "stateMutability": "view",
      "type": "function"
    },
    {
      "inputs": [],
      "name": "totalShares",
      "outputs": [
        {
          "internalType": "uint256",
          "name": "",
          "type": "uint256"
        }
      ],
      "stateMutability": "view",
      "type": "function"
    },
    {
      "inputs": [],
      "name": "totalStakedAssets",
      "outputs": [
        {
          "internalType": "uint256",
          "name": "",
          "type": "uint256"
        }
      ],
      "stateMutability": "view",
      "type": "function"
    },
    {
      "inputs": [
        {
          "internalType": "address",
          "name": "newOwner",
          "type": "address"
        }
      ],
      "name": "transferOwnership",
      "outputs": [],
      "stateMutability": "nonpayable",
      "type": "function"
    },
    {
      "inputs": [],
      "name": "updateTotalAssetsL2",
      "outputs": [],
      "stateMutability": "nonpayable",
      "type": "function"
    },
    {
      "inputs": [
        {
          "internalType": "uint256",
          "name": "amount",
          "type": "uint256"
        }
      ],
      "name": "withdrawFunds",
      "outputs": [],
      "stateMutability": "nonpayable",
      "type": "function"
    }
  ],
  "transactionHash": "0x7f932123ad856e9f8646f0cd4c96cc995fc158c2501373539a8eea9f886855af",
  "args": [
    "0xa63f56985F9C7F3bc9fFc5685535649e0C1a55f3",
    "0xfc00000000000000000000000000000000000005",
    "0x0BaafC217162f64930909aD9f2B27125121d6332",
    "0x45A98115D5722C6cfC48D711e0053758E7C0b8ad",
    "0xdfB5f6CE42aAA7830E94ECFCcAd411beF4d4D5b6",
    "0x9281ff96637710Cd9A5CAcce9c6FAD8C9F54631c",
    "0xA44151489861Fe9e3055d95adC98FbD462B948e7",
    "0xAcc1fb458a1317E886dB376Fc8141540537E68fE"
  ],
  "numDeployments": 1,
  "solcInputHash": "383b130cfc171e44be0f2a79b66ab517",
  "bytecode": "0x6101806040523480156200001257600080fd5b50604051620028c8380380620028c8833981016040819052620000359162000115565b600160005533806200006157604051631e4fbdf760e01b81526000600482015260240160405180910390fd5b6200006c81620000aa565b506001600160a01b0397881660805295871660a05293861660c05291851660e0528416610100528316610120528216610140521661016052620001d6565b600180546001600160a01b038381166001600160a01b0319831681179093556040519116919082907f8be0079c531659141344cd1fd0a4f28419497f9722a3daafe3b4186f6b6457e090600090a35050565b6001600160a01b03811681146200011257600080fd5b50565b600080600080600080600080610100898b0312156200013357600080fd5b88516200014081620000fc565b60208a01519098506200015381620000fc565b60408a01519097506200016681620000fc565b60608a01519096506200017981620000fc565b60808a01519095506200018c81620000fc565b60a08a01519094506200019f81620000fc565b60c08a0151909350620001b281620000fc565b60e08a0151909250620001c581620000fc565b809150509295985092959890939650565b60805160a05160c05160e051610100516101205161014051610160516125ac6200031c6000396000818161152701526115a301526000818161056401528181610aec01528181610e2b01528181610f270152610fb80152600081816104a1015281816106a801528181610700015281816107c10152818161096a01528181610a6501528181610c92015281816116d401528181611b7b0152611ca501526000818161072b0152818161099201528181611800015281816119c901528181611a880152611bd501526000610d7d0152600081816110a401528181611204015281816112c501526113ba0152600061140a015260008181610189015281816102bd015281816103630152818161045401528181611237015281816112ed015281816113e8015281816118e5015281816119fb01528181611ab20152611ba301526125ac6000f3fe608060405234801561001057600080fd5b50600436106101375760003560e01c80638da5cb5b116100b8578063c0afb3f41161007c578063c0afb3f414610237578063ca5eb5e11461024a578063cba9a7391461025d578063cdfb583214610265578063f2fde38b14610278578063f3e738751461028b57600080fd5b80638da5cb5b146101f25780639b55ff5e14610203578063a3f2047814610214578063b08050751461021c578063b49568641461022f57600080fd5b80633a98ef39116100ff5780633a98ef39146101c15780633d302d06146101c9578063715018a6146101d157806373b9b844146101d957806389bf85a5146101ea57600080fd5b806301e1d1141461013c57806313b18d9f14610157578063155dd5ee1461015f57806325e6e2b21461017457806338d52e0f14610187575b600080fd5b61014461029e565b6040519081526020015b60405180910390f35b600454610144565b61017261016d366004611d0a565b61033f565b005b610172610182366004611d23565b610420565b7f00000000000000000000000000000000000000000000000000000000000000005b6040516001600160a01b03909116815260200161014e565b6101446106e3565b600554610144565b610172610799565b6002546001600160a01b03166101a9565b6101726107ad565b6001546001600160a01b03166101a9565b6003546001600160a01b03166101a9565b6101446107bd565b61017261022a366004611d65565b610814565b610172610d1b565b610172610245366004611dfc565b610def565b610172610258366004611dfc565b610e19565b610172611092565b610172610273366004611dfc565b6114f8565b610172610286366004611dfc565b611680565b610144610299366004611d0a565b6116bb565b60006102a86107bd565b6040516370a0823160e01b81523060048201527f00000000000000000000000000000000000000000000000000000000000000006001600160a01b0316906370a0823190602401602060405180830381865afa15801561030c573d6000803e3d6000fd5b505050506040513d601f19601f820116820180604052508101906103309190611e19565b61033a9190611e48565b905090565b61034761174d565b60405163a9059cbb60e01b8152336004820152602481018290527f00000000000000000000000000000000000000000000000000000000000000006001600160a01b03169063a9059cbb906044016020604051808303816000875af11580156103b4573d6000803e3d6000fd5b505050506040513d601f19601f820116820180604052508101906103d89190611e5b565b61041d5760405162461bcd60e51b815260206004820152601160248201527015da5d1a191c985dd85b0819985a5b1959607a1b60448201526064015b60405180910390fd5b50565b61042861177a565b61043061174d565b604080516001808252818301909252600091602080830190803683370190505090507f00000000000000000000000000000000000000000000000000000000000000008160008151811061048657610486611e93565b6001600160a01b0392831660209182029290920101526000907f000000000000000000000000000000000000000000000000000000000000000016637a8b26376104d360c0860186611ea9565b60008181106104e4576104e4611e93565b905060200201356040518263ffffffff1660e01b815260040161050991815260200190565b602060405180830381865afa158015610526573d6000803e3d6000fd5b505050506040513d601f19601f8201168201806040525081019061054a9190611e19565b6040516360d7faed60e01b81529091506001600160a01b037f000000000000000000000000000000000000000000000000000000000000000016906360d7faed906105a1908690869060009060019060040161200b565b600060405180830381600087803b1580156105bb57600080fd5b505af19250505080156105cc575060015b6106185760405162461bcd60e51b815260206004820152601a60248201527f436f6d706c657465205769746864726177616c206661696c65640000000000006044820152606401610414565b806004600082825461062a9190612104565b9250508190555080600560008282546106439190611e48565b90915550507f20c78f1902a221b9e00965cfee48cab9c1cd3fca1b14c8313d97588aa943645a8161067760c0860186611ea9565b600081811061068857610688611e93565b604080519485526020918202939093013590840152506001600160a01b037f0000000000000000000000000000000000000000000000000000000000000000169082015260600160405180910390a1505061041d6001600055565b604051633d3f06c960e11b81523060048201526001600160a01b037f0000000000000000000000000000000000000000000000000000000000000000811660248301526000917f000000000000000000000000000000000000000000000000000000000000000090911690637a7e0d92906044015b602060405180830381865afa158015610775573d6000803e3d6000fd5b505050506040513d601f19601f8201168201806040525081019061033a9190611e19565b6107a161174d565b6107ab60006117a4565b565b6107b561174d565b6107ab6117f6565b60007f00000000000000000000000000000000000000000000000000000000000000006001600160a01b0316637a8b26376107f66106e3565b6040518263ffffffff1660e01b815260040161075891815260200190565b61081c61177a565b61082461174d565b3660006108348360048187612117565b909250905060006108478383018461222a565b905060008160008151811061085e5761085e611e93565b60200260200101516020015160008151811061087c5761087c611e93565b60200260200101519050306001600160a01b0316826000815181106108a3576108a3611e93565b6020026020010151604001516001600160a01b0316146109055760405162461bcd60e51b815260206004820181905260248201527f57697468647261776572206d757374206265207468697320636f6e74726163746044820152606401610414565b6000811161094d5760405162461bcd60e51b815260206004820152601560248201527404d75737420626520626967676572207468616e203605c1b6044820152606401610414565b604051633d3f06c960e11b81523060048201526001600160a01b037f0000000000000000000000000000000000000000000000000000000000000000811660248301527f00000000000000000000000000000000000000000000000000000000000000001690637a7e0d9290604401602060405180830381865afa1580156109d9573d6000803e3d6000fd5b505050506040513d601f19601f820116820180604052508101906109fd9190611e19565b811115610a4c5760405162461bcd60e51b815260206004820152601960248201527f5368617265732072657175657374656420746f6f2068696768000000000000006044820152606401610414565b604051637a8b263760e01b8152600481018290526000907f00000000000000000000000000000000000000000000000000000000000000006001600160a01b031690637a8b263790602401602060405180830381865afa158015610ab4573d6000803e3d6000fd5b505050506040513d601f19601f82011682018060405250810190610ad89190611e19565b905060008111610ae757600080fd5b6000807f00000000000000000000000000000000000000000000000000000000000000006001600160a01b03168989604051610b249291906123a0565b6000604051808303816000865af19150503d8060008114610b61576040519150601f19603f3d011682016040523d82523d6000602084013e610b66565b606091505b509150915081610baf5760405162461bcd60e51b8152602060048201526014602482015273115e1d195c9b985b0818d85b1b0819985a5b195960621b6044820152606401610414565b600081806020019051810190610bc591906123b0565b6006546040516bffffffffffffffffffffffff193360601b166020820152603481019190915290915060009060540160405160208183030381529060405280519060200120905081600081518110610c1f57610c1f611e93565b6020026020010151600654827fd5ad9b6c23516c293bb16975e767c37a900162e6b199b879c9d033b44bdd66c0308b600081518110610c6057610c60611e93565b60209081029190910181015160409081015181516001600160a01b0394851681529084169281019290925243908201527f00000000000000000000000000000000000000000000000000000000000000009091166060820152608081018b905260a081018a905260c00160405180910390a4600160066000828254610ce59190611e48565b925050819055508460046000828254610cfe9190611e48565b9091555050600160005550610d17975050505050505050565b5050565b6000610d2561029e565b604051602401610d3791815260200190565b60408051601f198184030181529181526020820180516001600160e01b031663176dabbf60e21b1790526008549051633dbb202b60e01b81529192506001600160a01b037f0000000000000000000000000000000000000000000000000000000000000000811692633dbb202b92610dba9216908590621e848090600401612487565b600060405180830381600087803b158015610dd457600080fd5b505af1158015610de8573d6000803e3d6000fd5b5050505050565b610df761174d565b600880546001600160a01b0319166001600160a01b0392909216919091179055565b610e2161177a565b610e2961174d565b7f00000000000000000000000000000000000000000000000000000000000000006001600160a01b0316635c975abb6040518163ffffffff1660e01b8152600401602060405180830381865afa158015610e87573d6000803e3d6000fd5b505050506040513d601f19601f82011682018060405250810190610eab9190611e5b565b15610ef45760405162461bcd60e51b815260206004820152601960248201527811195b1959d85d1a5bdb8813585b9859d95c8814185d5cd959603a1b6044820152606401610414565b60408051808201825260608152600060208083018281528451918201855282825290835252905163eea9064b60e01b81527f00000000000000000000000000000000000000000000000000000000000000006001600160a01b03169063eea9064b90610f6690859085906004016124c1565b600060405180830381600087803b158015610f8057600080fd5b505af1158015610f94573d6000803e3d6000fd5b5050604051631976849960e21b81523060048201526001600160a01b0385811693507f00000000000000000000000000000000000000000000000000000000000000001691506365da126490602401602060405180830381865afa158015611000573d6000803e3d6000fd5b505050506040513d601f19601f820116820180604052508101906110249190612506565b6001600160a01b03161461106e5760405162461bcd60e51b815260206004820152601160248201527011195b1959d85d1a5bdb8819985a5b1959607a1b6044820152606401610414565b50600380546001600160a01b0319166001600160a01b038316179055600160005550565b61109a61177a565b6110a261174d565b7f00000000000000000000000000000000000000000000000000000000000000006001600160a01b0316635c975abb6040518163ffffffff1660e01b8152600401602060405180830381865afa158015611100573d6000803e3d6000fd5b505050506040513d601f19601f820116820180604052508101906111249190611e5b565b1561116d5760405162461bcd60e51b815260206004820152601960248201527811195b1959d85d1a5bdb8813585b9859d95c8814185d5cd959603a1b6044820152606401610414565b6008546001600160a01b03166111c55760405162461bcd60e51b815260206004820152601760248201527f52656d6f746520436f6e7472616374206e6f74207365740000000000000000006044820152606401610414565b60006007546040516020016111dc91815260200190565b60408051601f198184030181529082905260055463095ea7b360e01b83526001600160a01b037f00000000000000000000000000000000000000000000000000000000000000008116600485015260248401919091529092507f0000000000000000000000000000000000000000000000000000000000000000169063095ea7b3906044016020604051808303816000875af1158015611280573d6000803e3d6000fd5b505050506040513d601f19601f820116820180604052508101906112a49190611e5b565b50600554604051636eb1769f60e11b81523060048201526001600160a01b037f0000000000000000000000000000000000000000000000000000000000000000811660248301527f0000000000000000000000000000000000000000000000000000000000000000169063dd62ed3e90604401602060405180830381865afa158015611334573d6000803e3d6000fd5b505050506040513d601f19601f820116820180604052508101906113589190611e19565b1461139d5760405162461bcd60e51b8152602060048201526015602482015274151bdad95b88185c1c1c9bdd985b0819985a5b1959605a1b6044820152606401610414565b60085460055460405163041c592960e51b81526001600160a01b037f000000000000000000000000000000000000000000000000000000000000000081169363838b25209361143c937f0000000000000000000000000000000000000000000000000000000000000000937f00000000000000000000000000000000000000000000000000000000000000009316919062035b60908990600401612523565b600060405180830381600087803b15801561145657600080fd5b505af1925050508015611467575060015b6114a65760405162461bcd60e51b815260206004820152601060248201526f4661696c656420746f2062726964676560801b6044820152606401610414565b600060058190556008546040519182526001600160a01b0316907fe1491a42a86c6a9e257995568328e6f5e48d08b1ba1ff8e6715bc235e3bc95e09060200160405180910390a2506107ab6001600055565b61150061177a565b61150861174d565b60405163a0169ddd60e01b81526001600160a01b0382811660048301527f0000000000000000000000000000000000000000000000000000000000000000169063a0169ddd90602401600060405180830381600087803b15801561156b57600080fd5b505af115801561157f573d6000803e3d6000fd5b5050604051630ae7d92960e21b81523060048201526001600160a01b0384811693507f0000000000000000000000000000000000000000000000000000000000000000169150632b9f64a490602401602060405180830381865afa1580156115eb573d6000803e3d6000fd5b505050506040513d601f19601f8201168201806040525081019061160f9190612506565b6001600160a01b03161461165d5760405162461bcd60e51b81526020600482015260156024820152742330b4b632b2103a379039b2ba1031b630b4b6b2b960591b6044820152606401610414565b600280546001600160a01b0319166001600160a01b038316179055600160005550565b61168861174d565b6001600160a01b0381166116b257604051631e4fbdf760e01b815260006004820152602401610414565b61041d816117a4565b604051637a8b263760e01b8152600481018290526000907f00000000000000000000000000000000000000000000000000000000000000006001600160a01b031690637a8b263790602401602060405180830381865afa158015611723573d6000803e3d6000fd5b505050506040513d601f19601f820116820180604052508101906117479190611e19565b92915050565b6001546001600160a01b031633146107ab5760405163118cdaa760e01b8152336004820152602401610414565b60026000540361179d57604051633ee5aeb560e01b815260040160405180910390fd5b6002600055565b600180546001600160a01b038381166001600160a01b0319831681179093556040519116919082907f8be0079c531659141344cd1fd0a4f28419497f9722a3daafe3b4186f6b6457e090600090a35050565b6117fe61177a565b7f00000000000000000000000000000000000000000000000000000000000000006001600160a01b0316635c975abb6040518163ffffffff1660e01b8152600401602060405180830381865afa15801561185c573d6000803e3d6000fd5b505050506040513d601f19601f820116820180604052508101906118809190611e5b565b156118cd5760405162461bcd60e51b815260206004820152601760248201527f5374726174656779204d616e61676572205061757365640000000000000000006044820152606401610414565b6040516370a0823160e01b81523060048201526000907f00000000000000000000000000000000000000000000000000000000000000006001600160a01b0316906370a0823190602401602060405180830381865afa158015611934573d6000803e3d6000fd5b505050506040513d601f19601f820116820180604052508101906119589190611e19565b905060055481116119a25760405162461bcd60e51b8152602060048201526014602482015273139bc8185cdcd95d1cc81d1bc819195c1bdcda5d60621b6044820152606401610414565b6000600554826119b29190612104565b60405163095ea7b360e01b81526001600160a01b037f000000000000000000000000000000000000000000000000000000000000000081166004830152602482018390529192507f00000000000000000000000000000000000000000000000000000000000000009091169063095ea7b3906044016020604051808303816000875af1158015611a46573d6000803e3d6000fd5b505050506040513d601f19601f82011682018060405250810190611a6a9190611e5b565b50604051636eb1769f60e11b81523060048201526001600160a01b037f00000000000000000000000000000000000000000000000000000000000000008116602483015282917f00000000000000000000000000000000000000000000000000000000000000009091169063dd62ed3e90604401602060405180830381865afa158015611afb573d6000803e3d6000fd5b505050506040513d601f19601f82011682018060405250810190611b1f9190611e19565b14611b645760405162461bcd60e51b8152602060048201526015602482015274151bdad95b88185c1c1c9bdd985b0819985a5b1959605a1b6044820152606401610414565b6040516373d0285560e11b81526001600160a01b037f0000000000000000000000000000000000000000000000000000000000000000811660048301527f000000000000000000000000000000000000000000000000000000000000000081166024830152604482018390526000917f00000000000000000000000000000000000000000000000000000000000000009091169063e7a050aa906064016020604051808303816000875af1158015611c20573d6000803e3d6000fd5b505050506040513d601f19601f82011682018060405250810190611c449190611e19565b9050818114611c955760405162461bcd60e51b815260206004820152601760248201527f5374726174656779206465706f736974206661696c65640000000000000000006044820152606401610414565b60408051838152602081018390527f00000000000000000000000000000000000000000000000000000000000000006001600160a01b03168183015290517f36a4e1d39709ff22f3f4f5c157c206091f4d38bc1d80b494210a9e41996ec4d19181900360600190a15050506107ab6001600055565b600060208284031215611d1c57600080fd5b5035919050565b600060208284031215611d3557600080fd5b813567ffffffffffffffff811115611d4c57600080fd5b820160e08185031215611d5e57600080fd5b9392505050565b60008060208385031215611d7857600080fd5b823567ffffffffffffffff80821115611d9057600080fd5b818501915085601f830112611da457600080fd5b813581811115611db357600080fd5b866020828501011115611dc557600080fd5b60209290920196919550909350505050565b6001600160a01b038116811461041d57600080fd5b8035611df781611dd7565b919050565b600060208284031215611e0e57600080fd5b8135611d5e81611dd7565b600060208284031215611e2b57600080fd5b5051919050565b634e487b7160e01b600052601160045260246000fd5b8082018082111561174757611747611e32565b600060208284031215611e6d57600080fd5b81518015158114611d5e57600080fd5b634e487b7160e01b600052604160045260246000fd5b634e487b7160e01b600052603260045260246000fd5b6000808335601e19843603018112611ec057600080fd5b83018035915067ffffffffffffffff821115611edb57600080fd5b6020019150600581901b3603821315611ef357600080fd5b9250929050565b803563ffffffff81168114611df757600080fd5b6000808335601e19843603018112611f2557600080fd5b830160208101925035905067ffffffffffffffff811115611f4557600080fd5b8060051b3603821315611ef357600080fd5b8183526000602080850194508260005b85811015611f95578135611f7a81611dd7565b6001600160a01b031687529582019590820190600101611f67565b509495945050505050565b81835260006001600160fb1b03831115611fb957600080fd5b8260051b80836020870137939093016020019392505050565b600081518084526020808501945080840160005b83811015611f955781516001600160a01b031687529582019590820190600101611fe6565b608081526000853561201c81611dd7565b6001600160a01b03166080830152602086013561203881611dd7565b6001600160a01b031660a083015261205260408701611dec565b6001600160a01b031660c0830152606086013560e083015261207660808701611efa565b63ffffffff1661010083015261208f60a0870187611f0e565b60e06101208501526120a661016085018284611f57565b9150506120b660c0880188611f0e565b848303607f19016101408601526120ce838284611fa0565b9250505082810360208401526120e48187611fd2565b9150508360408301526120fb606083018415159052565b95945050505050565b8181038181111561174757611747611e32565b6000808585111561212757600080fd5b8386111561213457600080fd5b5050820193919092039150565b6040516060810167ffffffffffffffff8111828210171561216457612164611e7d565b60405290565b604051601f8201601f1916810167ffffffffffffffff8111828210171561219357612193611e7d565b604052919050565b600067ffffffffffffffff8211156121b5576121b5611e7d565b5060051b60200190565b600082601f8301126121d057600080fd5b813560206121e56121e08361219b565b61216a565b82815260059290921b8401810191818101908684111561220457600080fd5b8286015b8481101561221f5780358352918301918301612208565b509695505050505050565b6000602080838503121561223d57600080fd5b823567ffffffffffffffff8082111561225557600080fd5b818501915085601f83011261226957600080fd5b81356122776121e08261219b565b81815260059190911b8301840190848101908883111561229657600080fd5b8585015b83811015612393578035858111156122b157600080fd5b86016060818c03601f190112156122c757600080fd5b6122cf612141565b88820135878111156122e057600080fd5b8201603f81018d136122f157600080fd5b898101356123016121e08261219b565b81815260059190911b8201604001908b8101908f83111561232157600080fd5b6040840193505b8284101561234a57833561233b81611dd7565b8252928c0192908c0190612328565b845250505060408201358781111561236157600080fd5b61236f8d8b838601016121bf565b8a8301525061238060608301611dec565b604082015284525091860191860161229a565b5098975050505050505050565b8183823760009101908152919050565b600060208083850312156123c357600080fd5b825167ffffffffffffffff8111156123da57600080fd5b8301601f810185136123eb57600080fd5b80516123f96121e08261219b565b81815260059190911b8201830190838101908783111561241857600080fd5b928401925b828410156124365783518252928401929084019061241d565b979650505050505050565b6000815180845260005b818110156124675760208185018101518683018201520161244b565b506000602082860101526020601f19601f83011685010191505092915050565b6001600160a01b03841681526060602082018190526000906124ab90830185612441565b905063ffffffff83166040830152949350505050565b60018060a01b03831681526060602082015260008251604060608401526124eb60a0840182612441565b60209490940151608084015250506000604090910152919050565b60006020828403121561251857600080fd5b8151611d5e81611dd7565b6001600160a01b0387811682528681166020830152851660408201526060810184905263ffffffff8316608082015260c060a0820181905260009061256a90830184612441565b9897505050505050505056fea26469706673582212202db9aa5cd44e0b3186de985a78c8aee634514bd1346f50f855b1538442e4fc4864736f6c63430008140033",
  "devdoc": {
    "errors": {
      "OwnableInvalidOwner(address)": [
        {
          "details": "The owner is not a valid owner account. (eg. `address(0)`)"
        }
      ],
      "OwnableUnauthorizedAccount(address)": [
        {
          "details": "The caller account is not authorized to perform an operation."
        }
      ],
      "ReentrancyGuardReentrantCall()": [
        {
          "details": "Unauthorized reentrant call."
        }
      ]
    },
    "kind": "dev",
    "methods": {
      "owner()": {
        "details": "Returns the address of the current owner."
      },
      "renounceOwnership()": {
        "details": "Leaves the contract without owner. It will not be possible to call `onlyOwner` functions. Can only be called by the current owner. NOTE: Renouncing ownership will leave the contract without an owner, thereby disabling any functionality that is only available to the owner."
      },
      "transferOwnership(address)": {
        "details": "Transfers ownership of the contract to a new account (`newOwner`). Can only be called by the current owner."
      }
    },
    "version": 1
  },
  "userdoc": {
    "kind": "user",
    "methods": {},
    "version": 1
  },
  "storageLayout": {
    "storage": [
      {
        "astId": 1523,
        "contract": "contracts/L1FloxiSfrxEth.sol:L1FloxiSfrxEth",
        "label": "_status",
        "offset": 0,
        "slot": "0",
        "type": "t_uint256"
      },
      {
        "astId": 8,
        "contract": "contracts/L1FloxiSfrxEth.sol:L1FloxiSfrxEth",
        "label": "_owner",
        "offset": 0,
        "slot": "1",
        "type": "t_address"
      },
      {
        "astId": 2021,
        "contract": "contracts/L1FloxiSfrxEth.sol:L1FloxiSfrxEth",
        "label": "_claimer",
        "offset": 0,
        "slot": "2",
        "type": "t_address"
      },
      {
        "astId": 2023,
        "contract": "contracts/L1FloxiSfrxEth.sol:L1FloxiSfrxEth",
        "label": "_eignelayerOperator",
        "offset": 0,
        "slot": "3",
        "type": "t_address"
      },
      {
        "astId": 2025,
        "contract": "contracts/L1FloxiSfrxEth.sol:L1FloxiSfrxEth",
        "label": "_queuedAssets",
        "offset": 0,
        "slot": "4",
        "type": "t_uint256"
      },
      {
        "astId": 2027,
        "contract": "contracts/L1FloxiSfrxEth.sol:L1FloxiSfrxEth",
        "label": "_reservedAssets",
        "offset": 0,
        "slot": "5",
        "type": "t_uint256"
      },
      {
        "astId": 2029,
        "contract": "contracts/L1FloxiSfrxEth.sol:L1FloxiSfrxEth",
        "label": "_withdrawQueueNonce",
        "offset": 0,
        "slot": "6",
        "type": "t_uint256"
      },
      {
        "astId": 2031,
        "contract": "contracts/L1FloxiSfrxEth.sol:L1FloxiSfrxEth",
        "label": "_bridgeDepositNonce",
        "offset": 0,
        "slot": "7",
        "type": "t_uint256"
      },
      {
        "astId": 2033,
        "contract": "contracts/L1FloxiSfrxEth.sol:L1FloxiSfrxEth",
        "label": "_remoteContract",
        "offset": 0,
        "slot": "8",
        "type": "t_address"
      }
    ],
    "types": {
      "t_address": {
        "encoding": "inplace",
        "label": "address",
        "numberOfBytes": "20"
      },
      "t_uint256": {
        "encoding": "inplace",
        "label": "uint256",
        "numberOfBytes": "32"
      }
    }
  }
}