{
  "address": "0xa9B291FE9a5a1ABd031A35060338b9E9823571b2",
  "abi": [
    {
      "inputs": [
        {
          "internalType": "contract IERC20",
          "name": "asset_",
          "type": "address"
        },
        {
          "internalType": "address",
          "name": "remoteAsset_",
          "type": "address"
        },
        {
          "internalType": "address",
          "name": "l1StandardBridgeProxy_",
          "type": "address"
        },
        {
          "internalType": "address",
          "name": "eigenLayerStrategyManager_",
          "type": "address"
        },
        {
          "internalType": "address",
          "name": "eigenLayerStrategy_",
          "type": "address"
        },
        {
          "internalType": "address",
          "name": "eigenLayerDelegationManager_",
          "type": "address"
        },
        {
          "internalType": "address",
          "name": "eigenLayerRewardsCoordinator_",
          "type": "address"
        }
      ],
      "stateMutability": "nonpayable",
      "type": "constructor"
    },
    {
      "inputs": [
        {
          "internalType": "address",
          "name": "owner",
          "type": "address"
        }
      ],
      "name": "OwnableInvalidOwner",
      "type": "error"
    },
    {
      "inputs": [
        {
          "internalType": "address",
          "name": "account",
          "type": "address"
        }
      ],
      "name": "OwnableUnauthorizedAccount",
      "type": "error"
    },
    {
      "inputs": [],
      "name": "ReentrancyGuardReentrantCall",
      "type": "error"
    },
    {
      "anonymous": false,
      "inputs": [
        {
          "indexed": false,
          "internalType": "uint256",
          "name": "assets",
          "type": "uint256"
        },
        {
          "indexed": false,
          "internalType": "uint256",
          "name": "shares",
          "type": "uint256"
        },
        {
          "indexed": false,
          "internalType": "address",
          "name": "strategy",
          "type": "address"
        }
      ],
      "name": "AssetsDepositedIntoStrategy",
      "type": "event"
    },
    {
      "anonymous": false,
      "inputs": [
        {
          "indexed": true,
          "internalType": "address",
          "name": "receiver",
          "type": "address"
        },
        {
          "indexed": false,
          "internalType": "uint256",
          "name": "assets",
          "type": "uint256"
        }
      ],
      "name": "AssetsShippedToL2",
      "type": "event"
    },
    {
      "anonymous": false,
      "inputs": [
        {
          "indexed": true,
          "internalType": "address",
          "name": "previousOwner",
          "type": "address"
        },
        {
          "indexed": true,
          "internalType": "address",
          "name": "newOwner",
          "type": "address"
        }
      ],
      "name": "OwnershipTransferred",
      "type": "event"
    },
    {
      "anonymous": false,
      "inputs": [
        {
          "indexed": false,
          "internalType": "uint256",
          "name": "assets",
          "type": "uint256"
        },
        {
          "indexed": false,
          "internalType": "uint256",
          "name": "shares",
          "type": "uint256"
        },
        {
          "indexed": false,
          "internalType": "address",
          "name": "strategy",
          "type": "address"
        }
      ],
      "name": "WithdrawalCompleted",
      "type": "event"
    },
    {
      "anonymous": false,
      "inputs": [
        {
          "indexed": true,
          "internalType": "bytes32",
          "name": "withdrawalId",
          "type": "bytes32"
        },
        {
          "indexed": false,
          "internalType": "address",
          "name": "staker",
          "type": "address"
        },
        {
          "indexed": false,
          "internalType": "address",
          "name": "withdrawer",
          "type": "address"
        },
        {
          "indexed": true,
          "internalType": "uint256",
          "name": "nonce",
          "type": "uint256"
        },
        {
          "indexed": false,
          "internalType": "uint256",
          "name": "startBlock",
          "type": "uint256"
        },
        {
          "indexed": false,
          "internalType": "address",
          "name": "strategy",
          "type": "address"
        },
        {
          "indexed": false,
          "internalType": "uint256",
          "name": "shares",
          "type": "uint256"
        },
        {
          "indexed": false,
          "internalType": "uint256",
          "name": "assets",
          "type": "uint256"
        },
        {
          "indexed": true,
          "internalType": "bytes32",
          "name": "withdrawalRoot",
          "type": "bytes32"
        }
      ],
      "name": "WithdrawalInitiated",
      "type": "event"
    },
    {
      "inputs": [],
      "name": "asset",
      "outputs": [
        {
          "internalType": "address",
          "name": "",
          "type": "address"
        }
      ],
      "stateMutability": "view",
      "type": "function"
    },
    {
      "inputs": [
        {
          "components": [
            {
              "internalType": "address",
              "name": "staker",
              "type": "address"
            },
            {
              "internalType": "address",
              "name": "delegatedTo",
              "type": "address"
            },
            {
              "internalType": "address",
              "name": "withdrawer",
              "type": "address"
            },
            {
              "internalType": "uint256",
              "name": "nonce",
              "type": "uint256"
            },
            {
              "internalType": "uint32",
              "name": "startBlock",
              "type": "uint32"
            },
            {
              "internalType": "address[]",
              "name": "strategies",
              "type": "address[]"
            },
            {
              "internalType": "uint256[]",
              "name": "shares",
              "type": "uint256[]"
            }
          ],
          "internalType": "struct IDelegationManager.Withdrawal",
          "name": "withdrawal",
          "type": "tuple"
        }
      ],
      "name": "completeEigenlayerWithdrawal",
      "outputs": [],
      "stateMutability": "nonpayable",
      "type": "function"
    },
    {
      "inputs": [
        {
          "internalType": "address",
          "name": "operator_",
          "type": "address"
        }
      ],
      "name": "delegate",
      "outputs": [],
      "stateMutability": "nonpayable",
      "type": "function"
    },
    {
      "inputs": [],
      "name": "depositIntoStrategy",
      "outputs": [],
      "stateMutability": "nonpayable",
      "type": "function"
    },
    {
      "inputs": [
        {
          "internalType": "bytes",
          "name": "calldata_",
          "type": "bytes"
        }
      ],
      "name": "initiateEigenlayerWithdrawal",
      "outputs": [],
      "stateMutability": "nonpayable",
      "type": "function"
    },
    {
      "inputs": [],
      "name": "owner",
      "outputs": [
        {
          "internalType": "address",
          "name": "",
          "type": "address"
        }
      ],
      "stateMutability": "view",
      "type": "function"
    },
    {
      "inputs": [],
      "name": "queuedAssets",
      "outputs": [
        {
          "internalType": "uint256",
          "name": "",
          "type": "uint256"
        }
      ],
      "stateMutability": "view",
      "type": "function"
    },
    {
      "inputs": [],
      "name": "renounceOwnership",
      "outputs": [],
      "stateMutability": "nonpayable",
      "type": "function"
    },
    {
      "inputs": [],
      "name": "reservedAssets",
      "outputs": [
        {
          "internalType": "uint256",
          "name": "",
          "type": "uint256"
        }
      ],
      "stateMutability": "view",
      "type": "function"
    },
    {
      "inputs": [
        {
          "internalType": "address",
          "name": "claimer_",
          "type": "address"
        }
      ],
      "name": "setClaimer",
      "outputs": [],
      "stateMutability": "nonpayable",
      "type": "function"
    },
    {
      "inputs": [
        {
          "internalType": "address",
          "name": "floxiL2",
          "type": "address"
        }
      ],
      "name": "setRemoteContract",
      "outputs": [],
      "stateMutability": "nonpayable",
      "type": "function"
    },
    {
      "inputs": [
        {
          "internalType": "uint256",
          "name": "shares_",
          "type": "uint256"
        }
      ],
      "name": "sharesToUnderlying",
      "outputs": [
        {
          "internalType": "uint256",
          "name": "",
          "type": "uint256"
        }
      ],
      "stateMutability": "view",
      "type": "function"
    },
    {
      "inputs": [],
      "name": "shipToL2",
      "outputs": [],
      "stateMutability": "nonpayable",
      "type": "function"
    },
    {
      "inputs": [],
      "name": "totalAssets",
      "outputs": [
        {
          "internalType": "uint256",
          "name": "",
          "type": "uint256"
        }
      ],
      "stateMutability": "view",
      "type": "function"
    },
    {
      "inputs": [],
      "name": "totalShares",
      "outputs": [
        {
          "internalType": "uint256",
          "name": "",
          "type": "uint256"
        }
      ],
      "stateMutability": "view",
      "type": "function"
    },
    {
      "inputs": [],
      "name": "totalStakedAssets",
      "outputs": [
        {
          "internalType": "uint256",
          "name": "",
          "type": "uint256"
        }
      ],
      "stateMutability": "view",
      "type": "function"
    },
    {
      "inputs": [
        {
          "internalType": "address",
          "name": "newOwner",
          "type": "address"
        }
      ],
      "name": "transferOwnership",
      "outputs": [],
      "stateMutability": "nonpayable",
      "type": "function"
    },
    {
      "inputs": [
        {
          "internalType": "uint256",
          "name": "amount",
          "type": "uint256"
        }
      ],
      "name": "withdrawFunds",
      "outputs": [],
      "stateMutability": "nonpayable",
      "type": "function"
    }
  ],
  "transactionHash": "0x5394e6d6482a37524fa1f2b7048d3b8d13cc33cb8eaff6825aee0c8a54943f5a",
  "args": [
    "0xac3E018457B222d93114458476f3E3416Abbe38F",
    "0xfc00000000000000000000000000000000000005",
    "0x34C0bD5877A5Ee7099D0f5688D65F4bB9158BDE2",
    "0x858646372CC42E1A627fcE94aa7A7033e7CF075A",
    "0x8CA7A5d6f3acd3A7A8bC468a8CD0FB14B6BD28b6",
    "0x39053D51B77DC0d36036Fc1fCc8Cb819df8Ef37A",
    "0x7750d328b314EfFa365A0402CcfD489B80B0adda"
  ],
  "numDeployments": 1,
  "solcInputHash": "60b2a1f6d87777a9e281c016c7ba6b96",
  "bytecode": "0x6101606040523480156200001257600080fd5b50604051620027483803806200274883398101604081905262000035916200010f565b600160005533806200006157604051631e4fbdf760e01b81526000600482015260240160405180910390fd5b6200006c81620000a4565b506001600160a01b0396871660805294861660a05292851660c05290841660e0528316610100528216610120521661014052620001ba565b600180546001600160a01b038381166001600160a01b0319831681179093556040519116919082907f8be0079c531659141344cd1fd0a4f28419497f9722a3daafe3b4186f6b6457e090600090a35050565b6001600160a01b03811681146200010c57600080fd5b50565b600080600080600080600060e0888a0312156200012b57600080fd5b87516200013881620000f6565b60208901519097506200014b81620000f6565b60408901519096506200015e81620000f6565b60608901519095506200017181620000f6565b60808901519094506200018481620000f6565b60a08901519093506200019781620000f6565b60c0890151909250620001aa81620000f6565b8091505092959891949750929550565b60805160a05160c05160e051610100516101205161014051612453620002f5600039600081816114080152611484015260008181610519015281816107600152818161085c015281816108ed0152610d1a0152600081816104560152818161065d015281816106b5015281816109ef01528181610b9801528181610c9301528181610ec0015281816115b501528181611a5c0152611b860152600081816106e001528181610bc0015281816116e1015281816118aa015281816119690152611ab6015260008181610f85015281816110e5015281816111a6015261129b015260006112eb01526000818161016801528181610272015281816103180152818161040901528181611118015281816111ce015281816112c9015281816117c6015281816118dc015281816119930152611a8401526124536000f3fe608060405234801561001057600080fd5b50600436106101165760003560e01c806389bf85a5116100a2578063c0afb3f411610071578063c0afb3f4146101ff578063cba9a73914610212578063cdfb58321461021a578063f2fde38b1461022d578063f3e738751461024057600080fd5b806389bf85a5146101cb5780638da5cb5b146101d3578063a3f20478146101e4578063b0805075146101ec57600080fd5b806338d52e0f116100e957806338d52e0f146101665780633a98ef39146101a05780633d302d06146101a85780635c19a95c146101b0578063715018a6146101c357600080fd5b806301e1d1141461011b57806313b18d9f14610136578063155dd5ee1461013e57806325e6e2b214610153575b600080fd5b610123610253565b6040519081526020015b60405180910390f35b600454610123565b61015161014c366004611beb565b6102f4565b005b610151610161366004611c04565b6103d5565b7f00000000000000000000000000000000000000000000000000000000000000005b6040516001600160a01b03909116815260200161012d565b610123610698565b600554610123565b6101516101be366004611c6b565b61074e565b6101516109c7565b6101516109db565b6001546001600160a01b0316610188565b6101236109eb565b6101516101fa366004611c88565b610a42565b61015161020d366004611c6b565b610f49565b610151610f73565b610151610228366004611c6b565b6113d9565b61015161023b366004611c6b565b611561565b61012361024e366004611beb565b61159c565b600061025d6109eb565b6040516370a0823160e01b81523060048201527f00000000000000000000000000000000000000000000000000000000000000006001600160a01b0316906370a0823190602401602060405180830381865afa1580156102c1573d6000803e3d6000fd5b505050506040513d601f19601f820116820180604052508101906102e59190611cfa565b6102ef9190611d29565b905090565b6102fc61162e565b60405163a9059cbb60e01b8152336004820152602481018290527f00000000000000000000000000000000000000000000000000000000000000006001600160a01b03169063a9059cbb906044016020604051808303816000875af1158015610369573d6000803e3d6000fd5b505050506040513d601f19601f8201168201806040525081019061038d9190611d3c565b6103d25760405162461bcd60e51b815260206004820152601160248201527015da5d1a191c985dd85b0819985a5b1959607a1b60448201526064015b60405180910390fd5b50565b6103dd61165b565b6103e561162e565b604080516001808252818301909252600091602080830190803683370190505090507f00000000000000000000000000000000000000000000000000000000000000008160008151811061043b5761043b611d74565b6001600160a01b0392831660209182029290920101526000907f000000000000000000000000000000000000000000000000000000000000000016637a8b263761048860c0860186611d8a565b600081811061049957610499611d74565b905060200201356040518263ffffffff1660e01b81526004016104be91815260200190565b602060405180830381865afa1580156104db573d6000803e3d6000fd5b505050506040513d601f19601f820116820180604052508101906104ff9190611cfa565b6040516360d7faed60e01b81529091506001600160a01b037f000000000000000000000000000000000000000000000000000000000000000016906360d7faed906105569086908690600090600190600401611eec565b600060405180830381600087803b15801561057057600080fd5b505af1925050508015610581575060015b6105cd5760405162461bcd60e51b815260206004820152601a60248201527f436f6d706c657465205769746864726177616c206661696c656400000000000060448201526064016103c9565b80600460008282546105df9190611fe5565b9250508190555080600560008282546105f89190611d29565b90915550507f20c78f1902a221b9e00965cfee48cab9c1cd3fca1b14c8313d97588aa943645a8161062c60c0860186611d8a565b600081811061063d5761063d611d74565b604080519485526020918202939093013590840152506001600160a01b037f0000000000000000000000000000000000000000000000000000000000000000169082015260600160405180910390a150506103d26001600055565b604051633d3f06c960e11b81523060048201526001600160a01b037f0000000000000000000000000000000000000000000000000000000000000000811660248301526000917f000000000000000000000000000000000000000000000000000000000000000090911690637a7e0d92906044015b602060405180830381865afa15801561072a573d6000803e3d6000fd5b505050506040513d601f19601f820116820180604052508101906102ef9190611cfa565b61075661165b565b61075e61162e565b7f00000000000000000000000000000000000000000000000000000000000000006001600160a01b0316635c975abb6040518163ffffffff1660e01b8152600401602060405180830381865afa1580156107bc573d6000803e3d6000fd5b505050506040513d601f19601f820116820180604052508101906107e09190611d3c565b156108295760405162461bcd60e51b815260206004820152601960248201527811195b1959d85d1a5bdb8813585b9859d95c8814185d5cd959603a1b60448201526064016103c9565b60408051808201825260608152600060208083018281528451918201855282825290835252905163eea9064b60e01b81527f00000000000000000000000000000000000000000000000000000000000000006001600160a01b03169063eea9064b9061089b908590859060040161203e565b600060405180830381600087803b1580156108b557600080fd5b505af11580156108c9573d6000803e3d6000fd5b5050604051631976849960e21b81523060048201526001600160a01b0385811693507f00000000000000000000000000000000000000000000000000000000000000001691506365da126490602401602060405180830381865afa158015610935573d6000803e3d6000fd5b505050506040513d601f19601f820116820180604052508101906109599190612083565b6001600160a01b0316146109a35760405162461bcd60e51b815260206004820152601160248201527011195b1959d85d1a5bdb8819985a5b1959607a1b60448201526064016103c9565b50600380546001600160a01b0319166001600160a01b038316179055600160005550565b6109cf61162e565b6109d96000611685565b565b6109e361162e565b6109d96116d7565b60007f00000000000000000000000000000000000000000000000000000000000000006001600160a01b0316637a8b2637610a24610698565b6040518263ffffffff1660e01b815260040161070d91815260200190565b610a4a61165b565b610a5261162e565b366000610a6283600481876120a0565b90925090506000610a75838301846121b3565b9050600081600081518110610a8c57610a8c611d74565b602002602001015160200151600081518110610aaa57610aaa611d74565b60200260200101519050306001600160a01b031682600081518110610ad157610ad1611d74565b6020026020010151604001516001600160a01b031614610b335760405162461bcd60e51b815260206004820181905260248201527f57697468647261776572206d757374206265207468697320636f6e747261637460448201526064016103c9565b60008111610b7b5760405162461bcd60e51b815260206004820152601560248201527404d75737420626520626967676572207468616e203605c1b60448201526064016103c9565b604051633d3f06c960e11b81523060048201526001600160a01b037f0000000000000000000000000000000000000000000000000000000000000000811660248301527f00000000000000000000000000000000000000000000000000000000000000001690637a7e0d9290604401602060405180830381865afa158015610c07573d6000803e3d6000fd5b505050506040513d601f19601f82011682018060405250810190610c2b9190611cfa565b811115610c7a5760405162461bcd60e51b815260206004820152601960248201527f5368617265732072657175657374656420746f6f20686967680000000000000060448201526064016103c9565b604051637a8b263760e01b8152600481018290526000907f00000000000000000000000000000000000000000000000000000000000000006001600160a01b031690637a8b263790602401602060405180830381865afa158015610ce2573d6000803e3d6000fd5b505050506040513d601f19601f82011682018060405250810190610d069190611cfa565b905060008111610d1557600080fd5b6000807f00000000000000000000000000000000000000000000000000000000000000006001600160a01b03168989604051610d52929190612329565b6000604051808303816000865af19150503d8060008114610d8f576040519150601f19603f3d011682016040523d82523d6000602084013e610d94565b606091505b509150915081610ddd5760405162461bcd60e51b8152602060048201526014602482015273115e1d195c9b985b0818d85b1b0819985a5b195960621b60448201526064016103c9565b600081806020019051810190610df39190612339565b6006546040516bffffffffffffffffffffffff193360601b166020820152603481019190915290915060009060540160405160208183030381529060405280519060200120905081600081518110610e4d57610e4d611d74565b6020026020010151600654827fd5ad9b6c23516c293bb16975e767c37a900162e6b199b879c9d033b44bdd66c0308b600081518110610e8e57610e8e611d74565b60209081029190910181015160409081015181516001600160a01b0394851681529084169281019290925243908201527f00000000000000000000000000000000000000000000000000000000000000009091166060820152608081018b905260a081018a905260c00160405180910390a4600160066000828254610f139190611d29565b925050819055508460046000828254610f2c9190611d29565b9091555050600160005550610f45975050505050505050565b5050565b610f5161162e565b600880546001600160a01b0319166001600160a01b0392909216919091179055565b610f7b61165b565b610f8361162e565b7f00000000000000000000000000000000000000000000000000000000000000006001600160a01b0316635c975abb6040518163ffffffff1660e01b8152600401602060405180830381865afa158015610fe1573d6000803e3d6000fd5b505050506040513d601f19601f820116820180604052508101906110059190611d3c565b1561104e5760405162461bcd60e51b815260206004820152601960248201527811195b1959d85d1a5bdb8813585b9859d95c8814185d5cd959603a1b60448201526064016103c9565b6008546001600160a01b03166110a65760405162461bcd60e51b815260206004820152601760248201527f52656d6f746520436f6e7472616374206e6f742073657400000000000000000060448201526064016103c9565b60006007546040516020016110bd91815260200190565b60408051601f198184030181529082905260055463095ea7b360e01b83526001600160a01b037f00000000000000000000000000000000000000000000000000000000000000008116600485015260248401919091529092507f0000000000000000000000000000000000000000000000000000000000000000169063095ea7b3906044016020604051808303816000875af1158015611161573d6000803e3d6000fd5b505050506040513d601f19601f820116820180604052508101906111859190611d3c565b50600554604051636eb1769f60e11b81523060048201526001600160a01b037f0000000000000000000000000000000000000000000000000000000000000000811660248301527f0000000000000000000000000000000000000000000000000000000000000000169063dd62ed3e90604401602060405180830381865afa158015611215573d6000803e3d6000fd5b505050506040513d601f19601f820116820180604052508101906112399190611cfa565b1461127e5760405162461bcd60e51b8152602060048201526015602482015274151bdad95b88185c1c1c9bdd985b0819985a5b1959605a1b60448201526064016103c9565b60085460055460405163041c592960e51b81526001600160a01b037f000000000000000000000000000000000000000000000000000000000000000081169363838b25209361131d937f0000000000000000000000000000000000000000000000000000000000000000937f00000000000000000000000000000000000000000000000000000000000000009316919062035b609089906004016123ca565b600060405180830381600087803b15801561133757600080fd5b505af1925050508015611348575060015b6113875760405162461bcd60e51b815260206004820152601060248201526f4661696c656420746f2062726964676560801b60448201526064016103c9565b600060058190556008546040519182526001600160a01b0316907fe1491a42a86c6a9e257995568328e6f5e48d08b1ba1ff8e6715bc235e3bc95e09060200160405180910390a2506109d96001600055565b6113e161165b565b6113e961162e565b60405163a0169ddd60e01b81526001600160a01b0382811660048301527f0000000000000000000000000000000000000000000000000000000000000000169063a0169ddd90602401600060405180830381600087803b15801561144c57600080fd5b505af1158015611460573d6000803e3d6000fd5b5050604051630ae7d92960e21b81523060048201526001600160a01b0384811693507f0000000000000000000000000000000000000000000000000000000000000000169150632b9f64a490602401602060405180830381865afa1580156114cc573d6000803e3d6000fd5b505050506040513d601f19601f820116820180604052508101906114f09190612083565b6001600160a01b03161461153e5760405162461bcd60e51b81526020600482015260156024820152742330b4b632b2103a379039b2ba1031b630b4b6b2b960591b60448201526064016103c9565b600280546001600160a01b0319166001600160a01b038316179055600160005550565b61156961162e565b6001600160a01b03811661159357604051631e4fbdf760e01b8152600060048201526024016103c9565b6103d281611685565b604051637a8b263760e01b8152600481018290526000907f00000000000000000000000000000000000000000000000000000000000000006001600160a01b031690637a8b263790602401602060405180830381865afa158015611604573d6000803e3d6000fd5b505050506040513d601f19601f820116820180604052508101906116289190611cfa565b92915050565b6001546001600160a01b031633146109d95760405163118cdaa760e01b81523360048201526024016103c9565b60026000540361167e57604051633ee5aeb560e01b815260040160405180910390fd5b6002600055565b600180546001600160a01b038381166001600160a01b0319831681179093556040519116919082907f8be0079c531659141344cd1fd0a4f28419497f9722a3daafe3b4186f6b6457e090600090a35050565b6116df61165b565b7f00000000000000000000000000000000000000000000000000000000000000006001600160a01b0316635c975abb6040518163ffffffff1660e01b8152600401602060405180830381865afa15801561173d573d6000803e3d6000fd5b505050506040513d601f19601f820116820180604052508101906117619190611d3c565b156117ae5760405162461bcd60e51b815260206004820152601760248201527f5374726174656779204d616e616765722050617573656400000000000000000060448201526064016103c9565b6040516370a0823160e01b81523060048201526000907f00000000000000000000000000000000000000000000000000000000000000006001600160a01b0316906370a0823190602401602060405180830381865afa158015611815573d6000803e3d6000fd5b505050506040513d601f19601f820116820180604052508101906118399190611cfa565b905060055481116118835760405162461bcd60e51b8152602060048201526014602482015273139bc8185cdcd95d1cc81d1bc819195c1bdcda5d60621b60448201526064016103c9565b6000600554826118939190611fe5565b60405163095ea7b360e01b81526001600160a01b037f000000000000000000000000000000000000000000000000000000000000000081166004830152602482018390529192507f00000000000000000000000000000000000000000000000000000000000000009091169063095ea7b3906044016020604051808303816000875af1158015611927573d6000803e3d6000fd5b505050506040513d601f19601f8201168201806040525081019061194b9190611d3c565b50604051636eb1769f60e11b81523060048201526001600160a01b037f00000000000000000000000000000000000000000000000000000000000000008116602483015282917f00000000000000000000000000000000000000000000000000000000000000009091169063dd62ed3e90604401602060405180830381865afa1580156119dc573d6000803e3d6000fd5b505050506040513d601f19601f82011682018060405250810190611a009190611cfa565b14611a455760405162461bcd60e51b8152602060048201526015602482015274151bdad95b88185c1c1c9bdd985b0819985a5b1959605a1b60448201526064016103c9565b6040516373d0285560e11b81526001600160a01b037f0000000000000000000000000000000000000000000000000000000000000000811660048301527f000000000000000000000000000000000000000000000000000000000000000081166024830152604482018390526000917f00000000000000000000000000000000000000000000000000000000000000009091169063e7a050aa906064016020604051808303816000875af1158015611b01573d6000803e3d6000fd5b505050506040513d601f19601f82011682018060405250810190611b259190611cfa565b9050818114611b765760405162461bcd60e51b815260206004820152601760248201527f5374726174656779206465706f736974206661696c656400000000000000000060448201526064016103c9565b60408051838152602081018390527f00000000000000000000000000000000000000000000000000000000000000006001600160a01b03168183015290517f36a4e1d39709ff22f3f4f5c157c206091f4d38bc1d80b494210a9e41996ec4d19181900360600190a15050506109d96001600055565b600060208284031215611bfd57600080fd5b5035919050565b600060208284031215611c1657600080fd5b813567ffffffffffffffff811115611c2d57600080fd5b820160e08185031215611c3f57600080fd5b9392505050565b6001600160a01b03811681146103d257600080fd5b8035611c6681611c46565b919050565b600060208284031215611c7d57600080fd5b8135611c3f81611c46565b60008060208385031215611c9b57600080fd5b823567ffffffffffffffff80821115611cb357600080fd5b818501915085601f830112611cc757600080fd5b813581811115611cd657600080fd5b866020828501011115611ce857600080fd5b60209290920196919550909350505050565b600060208284031215611d0c57600080fd5b5051919050565b634e487b7160e01b600052601160045260246000fd5b8082018082111561162857611628611d13565b600060208284031215611d4e57600080fd5b81518015158114611c3f57600080fd5b634e487b7160e01b600052604160045260246000fd5b634e487b7160e01b600052603260045260246000fd5b6000808335601e19843603018112611da157600080fd5b83018035915067ffffffffffffffff821115611dbc57600080fd5b6020019150600581901b3603821315611dd457600080fd5b9250929050565b803563ffffffff81168114611c6657600080fd5b6000808335601e19843603018112611e0657600080fd5b830160208101925035905067ffffffffffffffff811115611e2657600080fd5b8060051b3603821315611dd457600080fd5b8183526000602080850194508260005b85811015611e76578135611e5b81611c46565b6001600160a01b031687529582019590820190600101611e48565b509495945050505050565b81835260006001600160fb1b03831115611e9a57600080fd5b8260051b80836020870137939093016020019392505050565b600081518084526020808501945080840160005b83811015611e765781516001600160a01b031687529582019590820190600101611ec7565b6080815260008535611efd81611c46565b6001600160a01b031660808301526020860135611f1981611c46565b6001600160a01b031660a0830152611f3360408701611c5b565b6001600160a01b031660c0830152606086013560e0830152611f5760808701611ddb565b63ffffffff16610100830152611f7060a0870187611def565b60e0610120850152611f8761016085018284611e38565b915050611f9760c0880188611def565b848303607f1901610140860152611faf838284611e81565b925050508281036020840152611fc58187611eb3565b915050836040830152611fdc606083018415159052565b95945050505050565b8181038181111561162857611628611d13565b6000815180845260005b8181101561201e57602081850181015186830182015201612002565b506000602082860101526020601f19601f83011685010191505092915050565b60018060a01b038316815260606020820152600082516040606084015261206860a0840182611ff8565b60209490940151608084015250506000604090910152919050565b60006020828403121561209557600080fd5b8151611c3f81611c46565b600080858511156120b057600080fd5b838611156120bd57600080fd5b5050820193919092039150565b6040516060810167ffffffffffffffff811182821017156120ed576120ed611d5e565b60405290565b604051601f8201601f1916810167ffffffffffffffff8111828210171561211c5761211c611d5e565b604052919050565b600067ffffffffffffffff82111561213e5761213e611d5e565b5060051b60200190565b600082601f83011261215957600080fd5b8135602061216e61216983612124565b6120f3565b82815260059290921b8401810191818101908684111561218d57600080fd5b8286015b848110156121a85780358352918301918301612191565b509695505050505050565b600060208083850312156121c657600080fd5b823567ffffffffffffffff808211156121de57600080fd5b818501915085601f8301126121f257600080fd5b813561220061216982612124565b81815260059190911b8301840190848101908883111561221f57600080fd5b8585015b8381101561231c5780358581111561223a57600080fd5b86016060818c03601f1901121561225057600080fd5b6122586120ca565b888201358781111561226957600080fd5b8201603f81018d1361227a57600080fd5b8981013561228a61216982612124565b81815260059190911b8201604001908b8101908f8311156122aa57600080fd5b6040840193505b828410156122d35783356122c481611c46565b8252928c0192908c01906122b1565b84525050506040820135878111156122ea57600080fd5b6122f88d8b83860101612148565b8a8301525061230960608301611c5b565b6040820152845250918601918601612223565b5098975050505050505050565b8183823760009101908152919050565b6000602080838503121561234c57600080fd5b825167ffffffffffffffff81111561236357600080fd5b8301601f8101851361237457600080fd5b805161238261216982612124565b81815260059190911b820183019083810190878311156123a157600080fd5b928401925b828410156123bf578351825292840192908401906123a6565b979650505050505050565b6001600160a01b0387811682528681166020830152851660408201526060810184905263ffffffff8316608082015260c060a0820181905260009061241190830184611ff8565b9897505050505050505056fea2646970667358221220d3618c73bb35a9961020e44af6f301b3cf84fc81672e0e6002516767031de46564736f6c63430008140033",
  "devdoc": {
    "errors": {
      "OwnableInvalidOwner(address)": [
        {
          "details": "The owner is not a valid owner account. (eg. `address(0)`)"
        }
      ],
      "OwnableUnauthorizedAccount(address)": [
        {
          "details": "The caller account is not authorized to perform an operation."
        }
      ],
      "ReentrancyGuardReentrantCall()": [
        {
          "details": "Unauthorized reentrant call."
        }
      ]
    },
    "kind": "dev",
    "methods": {
      "owner()": {
        "details": "Returns the address of the current owner."
      },
      "renounceOwnership()": {
        "details": "Leaves the contract without owner. It will not be possible to call `onlyOwner` functions. Can only be called by the current owner. NOTE: Renouncing ownership will leave the contract without an owner, thereby disabling any functionality that is only available to the owner."
      },
      "transferOwnership(address)": {
        "details": "Transfers ownership of the contract to a new account (`newOwner`). Can only be called by the current owner."
      }
    },
    "version": 1
  },
  "userdoc": {
    "kind": "user",
    "methods": {},
    "version": 1
  },
  "storageLayout": {
    "storage": [
      {
        "astId": 2378,
        "contract": "contracts/L1FloxiSfrxEth.sol:L1FloxiSfrxEth",
        "label": "_status",
        "offset": 0,
        "slot": "0",
        "type": "t_uint256"
      },
      {
        "astId": 8,
        "contract": "contracts/L1FloxiSfrxEth.sol:L1FloxiSfrxEth",
        "label": "_owner",
        "offset": 0,
        "slot": "1",
        "type": "t_address"
      },
      {
        "astId": 5013,
        "contract": "contracts/L1FloxiSfrxEth.sol:L1FloxiSfrxEth",
        "label": "_claimer",
        "offset": 0,
        "slot": "2",
        "type": "t_address"
      },
      {
        "astId": 5015,
        "contract": "contracts/L1FloxiSfrxEth.sol:L1FloxiSfrxEth",
        "label": "_eignelayerOperator",
        "offset": 0,
        "slot": "3",
        "type": "t_address"
      },
      {
        "astId": 5017,
        "contract": "contracts/L1FloxiSfrxEth.sol:L1FloxiSfrxEth",
        "label": "_queuedAssets",
        "offset": 0,
        "slot": "4",
        "type": "t_uint256"
      },
      {
        "astId": 5019,
        "contract": "contracts/L1FloxiSfrxEth.sol:L1FloxiSfrxEth",
        "label": "_reservedAssets",
        "offset": 0,
        "slot": "5",
        "type": "t_uint256"
      },
      {
        "astId": 5021,
        "contract": "contracts/L1FloxiSfrxEth.sol:L1FloxiSfrxEth",
        "label": "_withdrawQueueNonce",
        "offset": 0,
        "slot": "6",
        "type": "t_uint256"
      },
      {
        "astId": 5023,
        "contract": "contracts/L1FloxiSfrxEth.sol:L1FloxiSfrxEth",
        "label": "_bridgeDepositNonce",
        "offset": 0,
        "slot": "7",
        "type": "t_uint256"
      },
      {
        "astId": 5025,
        "contract": "contracts/L1FloxiSfrxEth.sol:L1FloxiSfrxEth",
        "label": "_remoteContract",
        "offset": 0,
        "slot": "8",
        "type": "t_address"
      }
    ],
    "types": {
      "t_address": {
        "encoding": "inplace",
        "label": "address",
        "numberOfBytes": "20"
      },
      "t_uint256": {
        "encoding": "inplace",
        "label": "uint256",
        "numberOfBytes": "32"
      }
    }
  }
}