{
  "address": "0x344497DB1d533240692B419BC0f9792Cb402FA77",
  "abi": [
    {
      "inputs": [
        {
          "internalType": "contract IERC20",
          "name": "asset_",
          "type": "address"
        },
        {
          "internalType": "address",
          "name": "remoteAsset_",
          "type": "address"
        },
        {
          "internalType": "address",
          "name": "remoteContract_",
          "type": "address"
        },
        {
          "internalType": "address",
          "name": "treasury_",
          "type": "address"
        },
        {
          "internalType": "address",
          "name": "fraxFerry_",
          "type": "address"
        }
      ],
      "stateMutability": "nonpayable",
      "type": "constructor"
    },
    {
      "inputs": [
        {
          "internalType": "address",
          "name": "target",
          "type": "address"
        }
      ],
      "name": "AddressEmptyCode",
      "type": "error"
    },
    {
      "inputs": [
        {
          "internalType": "address",
          "name": "account",
          "type": "address"
        }
      ],
      "name": "AddressInsufficientBalance",
      "type": "error"
    },
    {
      "inputs": [
        {
          "internalType": "address",
          "name": "spender",
          "type": "address"
        },
        {
          "internalType": "uint256",
          "name": "allowance",
          "type": "uint256"
        },
        {
          "internalType": "uint256",
          "name": "needed",
          "type": "uint256"
        }
      ],
      "name": "ERC20InsufficientAllowance",
      "type": "error"
    },
    {
      "inputs": [
        {
          "internalType": "address",
          "name": "sender",
          "type": "address"
        },
        {
          "internalType": "uint256",
          "name": "balance",
          "type": "uint256"
        },
        {
          "internalType": "uint256",
          "name": "needed",
          "type": "uint256"
        }
      ],
      "name": "ERC20InsufficientBalance",
      "type": "error"
    },
    {
      "inputs": [
        {
          "internalType": "address",
          "name": "approver",
          "type": "address"
        }
      ],
      "name": "ERC20InvalidApprover",
      "type": "error"
    },
    {
      "inputs": [
        {
          "internalType": "address",
          "name": "receiver",
          "type": "address"
        }
      ],
      "name": "ERC20InvalidReceiver",
      "type": "error"
    },
    {
      "inputs": [
        {
          "internalType": "address",
          "name": "sender",
          "type": "address"
        }
      ],
      "name": "ERC20InvalidSender",
      "type": "error"
    },
    {
      "inputs": [
        {
          "internalType": "address",
          "name": "spender",
          "type": "address"
        }
      ],
      "name": "ERC20InvalidSpender",
      "type": "error"
    },
    {
      "inputs": [
        {
          "internalType": "address",
          "name": "receiver",
          "type": "address"
        },
        {
          "internalType": "uint256",
          "name": "assets",
          "type": "uint256"
        },
        {
          "internalType": "uint256",
          "name": "max",
          "type": "uint256"
        }
      ],
      "name": "ERC4626ExceededMaxDeposit",
      "type": "error"
    },
    {
      "inputs": [
        {
          "internalType": "address",
          "name": "receiver",
          "type": "address"
        },
        {
          "internalType": "uint256",
          "name": "shares",
          "type": "uint256"
        },
        {
          "internalType": "uint256",
          "name": "max",
          "type": "uint256"
        }
      ],
      "name": "ERC4626ExceededMaxMint",
      "type": "error"
    },
    {
      "inputs": [
        {
          "internalType": "address",
          "name": "owner",
          "type": "address"
        },
        {
          "internalType": "uint256",
          "name": "shares",
          "type": "uint256"
        },
        {
          "internalType": "uint256",
          "name": "max",
          "type": "uint256"
        }
      ],
      "name": "ERC4626ExceededMaxRedeem",
      "type": "error"
    },
    {
      "inputs": [
        {
          "internalType": "address",
          "name": "owner",
          "type": "address"
        },
        {
          "internalType": "uint256",
          "name": "assets",
          "type": "uint256"
        },
        {
          "internalType": "uint256",
          "name": "max",
          "type": "uint256"
        }
      ],
      "name": "ERC4626ExceededMaxWithdraw",
      "type": "error"
    },
    {
      "inputs": [],
      "name": "FailedInnerCall",
      "type": "error"
    },
    {
      "inputs": [],
      "name": "MathOverflowedMulDiv",
      "type": "error"
    },
    {
      "inputs": [
        {
          "internalType": "address",
          "name": "owner",
          "type": "address"
        }
      ],
      "name": "OwnableInvalidOwner",
      "type": "error"
    },
    {
      "inputs": [
        {
          "internalType": "address",
          "name": "account",
          "type": "address"
        }
      ],
      "name": "OwnableUnauthorizedAccount",
      "type": "error"
    },
    {
      "inputs": [],
      "name": "QueueEmpty",
      "type": "error"
    },
    {
      "inputs": [],
      "name": "QueueFull",
      "type": "error"
    },
    {
      "inputs": [],
      "name": "ReentrancyGuardReentrantCall",
      "type": "error"
    },
    {
      "inputs": [
        {
          "internalType": "address",
          "name": "token",
          "type": "address"
        }
      ],
      "name": "SafeERC20FailedOperation",
      "type": "error"
    },
    {
      "anonymous": false,
      "inputs": [
        {
          "indexed": true,
          "internalType": "address",
          "name": "owner",
          "type": "address"
        },
        {
          "indexed": true,
          "internalType": "address",
          "name": "spender",
          "type": "address"
        },
        {
          "indexed": false,
          "internalType": "uint256",
          "name": "value",
          "type": "uint256"
        }
      ],
      "name": "Approval",
      "type": "event"
    },
    {
      "anonymous": false,
      "inputs": [
        {
          "indexed": true,
          "internalType": "address",
          "name": "receiver",
          "type": "address"
        },
        {
          "indexed": false,
          "internalType": "uint256",
          "name": "assets",
          "type": "uint256"
        }
      ],
      "name": "AssetsShippedToL1",
      "type": "event"
    },
    {
      "anonymous": false,
      "inputs": [
        {
          "indexed": true,
          "internalType": "address",
          "name": "sender",
          "type": "address"
        },
        {
          "indexed": true,
          "internalType": "address",
          "name": "owner",
          "type": "address"
        },
        {
          "indexed": false,
          "internalType": "uint256",
          "name": "assets",
          "type": "uint256"
        },
        {
          "indexed": false,
          "internalType": "uint256",
          "name": "shares",
          "type": "uint256"
        }
      ],
      "name": "Deposit",
      "type": "event"
    },
    {
      "anonymous": false,
      "inputs": [
        {
          "indexed": true,
          "internalType": "address",
          "name": "previousOwner",
          "type": "address"
        },
        {
          "indexed": true,
          "internalType": "address",
          "name": "newOwner",
          "type": "address"
        }
      ],
      "name": "OwnershipTransferred",
      "type": "event"
    },
    {
      "anonymous": false,
      "inputs": [
        {
          "indexed": true,
          "internalType": "address",
          "name": "from",
          "type": "address"
        },
        {
          "indexed": true,
          "internalType": "address",
          "name": "to",
          "type": "address"
        },
        {
          "indexed": false,
          "internalType": "uint256",
          "name": "value",
          "type": "uint256"
        }
      ],
      "name": "Transfer",
      "type": "event"
    },
    {
      "anonymous": false,
      "inputs": [
        {
          "indexed": true,
          "internalType": "address",
          "name": "sender",
          "type": "address"
        },
        {
          "indexed": true,
          "internalType": "address",
          "name": "receiver",
          "type": "address"
        },
        {
          "indexed": true,
          "internalType": "address",
          "name": "owner",
          "type": "address"
        },
        {
          "indexed": false,
          "internalType": "uint256",
          "name": "assets",
          "type": "uint256"
        },
        {
          "indexed": false,
          "internalType": "uint256",
          "name": "shares",
          "type": "uint256"
        }
      ],
      "name": "Withdraw",
      "type": "event"
    },
    {
      "anonymous": false,
      "inputs": [
        {
          "indexed": true,
          "internalType": "address",
          "name": "account",
          "type": "address"
        },
        {
          "indexed": true,
          "internalType": "uint256",
          "name": "nonce",
          "type": "uint256"
        },
        {
          "indexed": false,
          "internalType": "uint256",
          "name": "assets",
          "type": "uint256"
        }
      ],
      "name": "WithdrawalQueued",
      "type": "event"
    },
    {
      "anonymous": false,
      "inputs": [
        {
          "indexed": true,
          "internalType": "uint256",
          "name": "assetsUnlocked",
          "type": "uint256"
        },
        {
          "indexed": false,
          "internalType": "uint256",
          "name": "fromNonce",
          "type": "uint256"
        },
        {
          "indexed": false,
          "internalType": "uint256",
          "name": "toNonce",
          "type": "uint256"
        }
      ],
      "name": "WithdrawalsUnlocked",
      "type": "event"
    },
    {
      "inputs": [
        {
          "internalType": "address",
          "name": "owner",
          "type": "address"
        },
        {
          "internalType": "address",
          "name": "spender",
          "type": "address"
        }
      ],
      "name": "allowance",
      "outputs": [
        {
          "internalType": "uint256",
          "name": "",
          "type": "uint256"
        }
      ],
      "stateMutability": "view",
      "type": "function"
    },
    {
      "inputs": [
        {
          "internalType": "address",
          "name": "spender",
          "type": "address"
        },
        {
          "internalType": "uint256",
          "name": "value",
          "type": "uint256"
        }
      ],
      "name": "approve",
      "outputs": [
        {
          "internalType": "bool",
          "name": "",
          "type": "bool"
        }
      ],
      "stateMutability": "nonpayable",
      "type": "function"
    },
    {
      "inputs": [],
      "name": "asset",
      "outputs": [
        {
          "internalType": "address",
          "name": "",
          "type": "address"
        }
      ],
      "stateMutability": "view",
      "type": "function"
    },
    {
      "inputs": [
        {
          "internalType": "address",
          "name": "account",
          "type": "address"
        }
      ],
      "name": "balanceOf",
      "outputs": [
        {
          "internalType": "uint256",
          "name": "",
          "type": "uint256"
        }
      ],
      "stateMutability": "view",
      "type": "function"
    },
    {
      "inputs": [
        {
          "internalType": "uint256",
          "name": "gasPriceGwei",
          "type": "uint256"
        }
      ],
      "name": "calculateL1GasFeeInWei",
      "outputs": [
        {
          "internalType": "uint256",
          "name": "",
          "type": "uint256"
        }
      ],
      "stateMutability": "pure",
      "type": "function"
    },
    {
      "inputs": [
        {
          "internalType": "uint256",
          "name": "shares",
          "type": "uint256"
        }
      ],
      "name": "convertToAssets",
      "outputs": [
        {
          "internalType": "uint256",
          "name": "",
          "type": "uint256"
        }
      ],
      "stateMutability": "view",
      "type": "function"
    },
    {
      "inputs": [
        {
          "internalType": "uint256",
          "name": "assets",
          "type": "uint256"
        }
      ],
      "name": "convertToShares",
      "outputs": [
        {
          "internalType": "uint256",
          "name": "",
          "type": "uint256"
        }
      ],
      "stateMutability": "view",
      "type": "function"
    },
    {
      "inputs": [],
      "name": "decimals",
      "outputs": [
        {
          "internalType": "uint8",
          "name": "",
          "type": "uint8"
        }
      ],
      "stateMutability": "view",
      "type": "function"
    },
    {
      "inputs": [
        {
          "internalType": "uint256",
          "name": "assets",
          "type": "uint256"
        },
        {
          "internalType": "address",
          "name": "receiver",
          "type": "address"
        }
      ],
      "name": "deposit",
      "outputs": [
        {
          "internalType": "uint256",
          "name": "",
          "type": "uint256"
        }
      ],
      "stateMutability": "nonpayable",
      "type": "function"
    },
    {
      "inputs": [
        {
          "internalType": "uint256",
          "name": "assets",
          "type": "uint256"
        }
      ],
      "name": "forceShipToL1",
      "outputs": [],
      "stateMutability": "nonpayable",
      "type": "function"
    },
    {
      "inputs": [],
      "name": "getL1Assets",
      "outputs": [
        {
          "internalType": "uint256",
          "name": "",
          "type": "uint256"
        }
      ],
      "stateMutability": "view",
      "type": "function"
    },
    {
      "inputs": [
        {
          "internalType": "address",
          "name": "",
          "type": "address"
        }
      ],
      "name": "maxDeposit",
      "outputs": [
        {
          "internalType": "uint256",
          "name": "",
          "type": "uint256"
        }
      ],
      "stateMutability": "view",
      "type": "function"
    },
    {
      "inputs": [
        {
          "internalType": "address",
          "name": "",
          "type": "address"
        }
      ],
      "name": "maxMint",
      "outputs": [
        {
          "internalType": "uint256",
          "name": "",
          "type": "uint256"
        }
      ],
      "stateMutability": "view",
      "type": "function"
    },
    {
      "inputs": [
        {
          "internalType": "address",
          "name": "owner",
          "type": "address"
        }
      ],
      "name": "maxRedeem",
      "outputs": [
        {
          "internalType": "uint256",
          "name": "",
          "type": "uint256"
        }
      ],
      "stateMutability": "view",
      "type": "function"
    },
    {
      "inputs": [
        {
          "internalType": "address",
          "name": "owner",
          "type": "address"
        }
      ],
      "name": "maxWithdraw",
      "outputs": [
        {
          "internalType": "uint256",
          "name": "",
          "type": "uint256"
        }
      ],
      "stateMutability": "view",
      "type": "function"
    },
    {
      "inputs": [
        {
          "internalType": "uint256",
          "name": "shares",
          "type": "uint256"
        },
        {
          "internalType": "address",
          "name": "receiver",
          "type": "address"
        }
      ],
      "name": "mint",
      "outputs": [
        {
          "internalType": "uint256",
          "name": "",
          "type": "uint256"
        }
      ],
      "stateMutability": "nonpayable",
      "type": "function"
    },
    {
      "inputs": [],
      "name": "name",
      "outputs": [
        {
          "internalType": "string",
          "name": "",
          "type": "string"
        }
      ],
      "stateMutability": "view",
      "type": "function"
    },
    {
      "inputs": [],
      "name": "owner",
      "outputs": [
        {
          "internalType": "address",
          "name": "",
          "type": "address"
        }
      ],
      "stateMutability": "view",
      "type": "function"
    },
    {
      "inputs": [
        {
          "internalType": "uint256",
          "name": "assets",
          "type": "uint256"
        }
      ],
      "name": "previewDeposit",
      "outputs": [
        {
          "internalType": "uint256",
          "name": "",
          "type": "uint256"
        }
      ],
      "stateMutability": "view",
      "type": "function"
    },
    {
      "inputs": [
        {
          "internalType": "uint256",
          "name": "shares",
          "type": "uint256"
        }
      ],
      "name": "previewMint",
      "outputs": [
        {
          "internalType": "uint256",
          "name": "",
          "type": "uint256"
        }
      ],
      "stateMutability": "view",
      "type": "function"
    },
    {
      "inputs": [
        {
          "internalType": "uint256",
          "name": "shares",
          "type": "uint256"
        }
      ],
      "name": "previewRedeem",
      "outputs": [
        {
          "internalType": "uint256",
          "name": "",
          "type": "uint256"
        }
      ],
      "stateMutability": "view",
      "type": "function"
    },
    {
      "inputs": [
        {
          "internalType": "uint256",
          "name": "assets",
          "type": "uint256"
        }
      ],
      "name": "previewWithdraw",
      "outputs": [
        {
          "internalType": "uint256",
          "name": "",
          "type": "uint256"
        }
      ],
      "stateMutability": "view",
      "type": "function"
    },
    {
      "inputs": [
        {
          "internalType": "uint256",
          "name": "assets",
          "type": "uint256"
        }
      ],
      "name": "queueWithdrawal",
      "outputs": [
        {
          "internalType": "uint256",
          "name": "",
          "type": "uint256"
        }
      ],
      "stateMutability": "nonpayable",
      "type": "function"
    },
    {
      "inputs": [
        {
          "internalType": "uint256",
          "name": "shares",
          "type": "uint256"
        },
        {
          "internalType": "address",
          "name": "receiver",
          "type": "address"
        },
        {
          "internalType": "address",
          "name": "owner",
          "type": "address"
        }
      ],
      "name": "redeem",
      "outputs": [
        {
          "internalType": "uint256",
          "name": "",
          "type": "uint256"
        }
      ],
      "stateMutability": "nonpayable",
      "type": "function"
    },
    {
      "inputs": [],
      "name": "renounceOwnership",
      "outputs": [],
      "stateMutability": "nonpayable",
      "type": "function"
    },
    {
      "inputs": [],
      "name": "symbol",
      "outputs": [
        {
          "internalType": "string",
          "name": "",
          "type": "string"
        }
      ],
      "stateMutability": "view",
      "type": "function"
    },
    {
      "inputs": [],
      "name": "totalAssets",
      "outputs": [
        {
          "internalType": "uint256",
          "name": "",
          "type": "uint256"
        }
      ],
      "stateMutability": "view",
      "type": "function"
    },
    {
      "inputs": [],
      "name": "totalSupply",
      "outputs": [
        {
          "internalType": "uint256",
          "name": "",
          "type": "uint256"
        }
      ],
      "stateMutability": "view",
      "type": "function"
    },
    {
      "inputs": [
        {
          "internalType": "address",
          "name": "to",
          "type": "address"
        },
        {
          "internalType": "uint256",
          "name": "value",
          "type": "uint256"
        }
      ],
      "name": "transfer",
      "outputs": [
        {
          "internalType": "bool",
          "name": "",
          "type": "bool"
        }
      ],
      "stateMutability": "nonpayable",
      "type": "function"
    },
    {
      "inputs": [
        {
          "internalType": "address",
          "name": "from",
          "type": "address"
        },
        {
          "internalType": "address",
          "name": "to",
          "type": "address"
        },
        {
          "internalType": "uint256",
          "name": "value",
          "type": "uint256"
        }
      ],
      "name": "transferFrom",
      "outputs": [
        {
          "internalType": "bool",
          "name": "",
          "type": "bool"
        }
      ],
      "stateMutability": "nonpayable",
      "type": "function"
    },
    {
      "inputs": [
        {
          "internalType": "address",
          "name": "newOwner",
          "type": "address"
        }
      ],
      "name": "transferOwnership",
      "outputs": [],
      "stateMutability": "nonpayable",
      "type": "function"
    },
    {
      "inputs": [
        {
          "internalType": "uint256",
          "name": "assets",
          "type": "uint256"
        },
        {
          "internalType": "uint256",
          "name": "maxIterations",
          "type": "uint256"
        }
      ],
      "name": "unlockWithdrawals",
      "outputs": [],
      "stateMutability": "nonpayable",
      "type": "function"
    },
    {
      "inputs": [
        {
          "internalType": "uint256",
          "name": "assets",
          "type": "uint256"
        },
        {
          "internalType": "address",
          "name": "receiver",
          "type": "address"
        },
        {
          "internalType": "address",
          "name": "owner",
          "type": "address"
        }
      ],
      "name": "withdraw",
      "outputs": [
        {
          "internalType": "uint256",
          "name": "",
          "type": "uint256"
        }
      ],
      "stateMutability": "nonpayable",
      "type": "function"
    }
  ],
  "transactionHash": "0xfabf7321123ddc2b9244c05b0c3ed1c6a99b9deefa4d1c30d1eca4fc75fecca2",
  "args": [
    "0xfc00000000000000000000000000000000000005",
    "0xa63f56985F9C7F3bc9fFc5685535649e0C1a55f3",
    "0x8B3F170107950c89bFb2f9B6C194d1EA06119294",
    "0xb0754B937bD306fE72264274A61BC03F43FB685F",
    "0x101159bfCf82800FC34b52eA9d091c0ea11c8922"
  ],
  "numDeployments": 1,
  "solcInputHash": "5521c83a35a261d4e50b000c4edaa1ca",
  "bytecode": "0x61016060405260006007553480156200001757600080fd5b5060405162002574380380620025748339810160408190526200003a91620002a8565b33856040518060400160405280601581526020017f466c6f7869205374616b65642046726178204554480000000000000000000000815250604051806040016040528060088152602001670cce6cce4f08ae8d60c31b8152508160039081620000a49190620003cd565b506004620000b38282620003cd565b505050600080620000ca836200015860201b60201c565b9150915081620000dc576012620000de565b805b60ff1660a05250506001600160a01b03908116608052600160055581166200012057604051631e4fbdf760e01b81526000600482015260240160405180910390fd5b6200012b816200023d565b506001600160a01b0394851660c05292841660e052908316610100528216610120521661014052620004e4565b60408051600481526024810182526020810180516001600160e01b031663313ce56760e01b17905290516000918291829182916001600160a01b03871691620001a19162000499565b600060405180830381855afa9150503d8060008114620001de576040519150601f19603f3d011682016040523d82523d6000602084013e620001e3565b606091505b5091509150818015620001f857506020815110155b156200023057600081806020019051810190620002169190620004ca565b905060ff81116200022e576001969095509350505050565b505b5060009485945092505050565b600680546001600160a01b038381166001600160a01b0319831681179093556040519116919082907f8be0079c531659141344cd1fd0a4f28419497f9722a3daafe3b4186f6b6457e090600090a35050565b6001600160a01b0381168114620002a557600080fd5b50565b600080600080600060a08688031215620002c157600080fd5b8551620002ce816200028f565b6020870151909550620002e1816200028f565b6040870151909450620002f4816200028f565b606087015190935062000307816200028f565b60808701519092506200031a816200028f565b809150509295509295909350565b634e487b7160e01b600052604160045260246000fd5b600181811c908216806200035357607f821691505b6020821081036200037457634e487b7160e01b600052602260045260246000fd5b50919050565b601f821115620003c857600081815260208120601f850160051c81016020861015620003a35750805b601f850160051c820191505b81811015620003c457828155600101620003af565b5050505b505050565b81516001600160401b03811115620003e957620003e962000328565b6200040181620003fa84546200033e565b846200037a565b602080601f831160018114620004395760008415620004205750858301515b600019600386901b1c1916600185901b178555620003c4565b600085815260208120601f198616915b828110156200046a5788860151825594840194600190910190840162000449565b5085821015620004895787850151600019600388901b60f8161c191681555b5050505050600190811b01905550565b6000825160005b81811015620004bc5760208186018101518583015201620004a0565b506000920191825250919050565b600060208284031215620004dd57600080fd5b5051919050565b60805160a05160c05160e0516101005161012051610140516120006200057460003960008181610e2e0152818161105f015261120901526000610ec90152600081816111e101526112d1015260005050600081816104cb0152818161098f01528181610f4601526110930152600061063d0152600081816102b80152818161170d01526117bf01526120006000f3fe608060405234801561001057600080fd5b50600436106101fb5760003560e01c8063715018a61161011a578063ba087652116100ad578063ce96cb771161007c578063ce96cb7714610422578063d905777e14610435578063dd62ed3e14610448578063ef8b30f714610481578063f2fde38b1461049457600080fd5b8063ba087652146103e9578063bb9b55e3146103fc578063c63d75b6146102f0578063c6e6f5921461040f57600080fd5b806397a67a03116100e957806397a67a031461039d578063a9059cbb146103b0578063b3d7f6b9146103c3578063b460af94146103d657600080fd5b8063715018a6146103675780638da5cb5b1461037157806394bf804d1461038257806395d89b411461039557600080fd5b8063313ce567116101925780634cdad506116101615780634cdad506146102305780636b174f35146103185780636e553f651461032b57806370a082311461033e57600080fd5b8063313ce5671461029c57806338d52e0f146102b6578063402d267d146102f05780634051ff881461030557600080fd5b80630a28a477116101ce5780630a28a4771461026657806318160ddd146102795780631d82a76b1461028157806323b872dd1461028957600080fd5b806301e1d1141461020057806306fdde031461021b57806307a2d13a14610230578063095ea7b314610243575b600080fd5b6102086104a7565b6040519081526020015b60405180910390f35b610223610545565b6040516102129190611bc0565b61020861023e366004611bf3565b6105d7565b610256610251366004611c28565b6105ea565b6040519015158152602001610212565b610208610274366004611bf3565b610602565b600254610208565b600754610208565b610256610297366004611c52565b61060f565b6102a4610635565b60405160ff9091168152602001610212565b7f00000000000000000000000000000000000000000000000000000000000000005b6040516001600160a01b039091168152602001610212565b6102086102fe366004611c8e565b5060001990565b610208610313366004611bf3565b610661565b610208610326366004611bf3565b61068b565b610208610339366004611ca9565b61081a565b61020861034c366004611c8e565b6001600160a01b031660009081526020819052604090205490565b61036f610838565b005b6006546001600160a01b03166102d8565b610208610390366004611ca9565b61084c565b61022361086a565b61036f6103ab366004611bf3565b610879565b6102566103be366004611c28565b61088d565b6102086103d1366004611bf3565b61089b565b6102086103e4366004611cd5565b6108be565b6102086103f7366004611cd5565b610916565b61036f61040a366004611d11565b610965565b61020861041d366004611bf3565b610b70565b610208610430366004611c8e565b610b7d565b610208610443366004611c8e565b610ba1565b610208610456366004611d33565b6001600160a01b03918216600090815260016020908152604080832093909416825291909152205490565b61020861048f366004611bf3565b610bbf565b61036f6104a2366004611c8e565b610bdc565b6007546040516370a0823160e01b8152306004820152600091906001600160a01b037f000000000000000000000000000000000000000000000000000000000000000016906370a0823190602401602060405180830381865afa158015610512573d6000803e3d6000fd5b505050506040513d601f19601f820116820180604052508101906105369190611d5d565b6105409190611d8c565b905090565b60606003805461055490611d9f565b80601f016020809104026020016040519081016040528092919081815260200182805461058090611d9f565b80156105cd5780601f106105a2576101008083540402835291602001916105cd565b820191906000526020600020905b8154815290600101906020018083116105b057829003601f168201915b5050505050905090565b60006105e4826000610c17565b92915050565b6000336105f8818585610c51565b5060019392505050565b60006105e4826001610c63565b60003361061d858285610c93565b610628858585610cfe565b60019150505b9392505050565b6000610540817f0000000000000000000000000000000000000000000000000000000000000000611dd9565b600080610672633b9aca0084611df2565b9050600061068382620132a4611df2565b949350505050565b336000818152600b602052604081205490918291906106a990610b7d565b6106b39190611e09565b90508083116107155760405162461bcd60e51b8152602060048201526024808201527f726571756573746564207769746864726177616c20657863656564732062616c604482015263616e636560e01b60648201526084015b60405180910390fd5b336000908152600d602052604090205460051161073157600080fd5b3361073d600882610d5d565b600e546040805133602080830182905282840194909452825180830384018152606090920183528151918401919091206000818152600c8552838120899055918252600b9093529081208054879290610797908490611d8c565b9091555050336000908152600d602052604081208054600192906107bc908490611d8c565b9091555050600e5460405186815233907fac7630200ec7f15fb2d46077b05f9a6c57c69ff10b243b36d98aaf4665bc962c9060200160405180910390a36001600e600082825461080c9190611d8c565b909155509495945050505050565b6000600019600061082a85610bbf565b905061068333858784610dce565b610840610fcb565b61084a6000610ff8565b565b6000600019600061085c8561089b565b905061068333858388610dce565b60606004805461055490611d9f565b610881610fcb565b61088a8161104a565b50565b6000336105f8818585610cfe565b6000806108a783611324565b90506108b4816032611331565b61062e9082611d8c565b6000806108ca83610b7d565b9050808511156108f357828582604051633fa733bb60e21b815260040161070c93929190611e1c565b60006108fe86610602565b905061090d3386868985611356565b95945050505050565b60008061092283610ba1565b90508085111561094b57828582604051632e52afbb60e21b815260040161070c93929190611e1c565b6000610956866105d7565b905061090d338686848a611356565b61096d610fcb565b6040516370a0823160e01b815230600482015260009081906001600160a01b037f000000000000000000000000000000000000000000000000000000000000000016906370a0823190602401602060405180830381865afa1580156109d6573d6000803e3d6000fd5b505050506040513d601f19601f820116820180604052508101906109fa9190611d5d565b600f549091506000805b8381108015610a1257508585105b15610b28576008546001600160801b03808216600160801b9092041614610b28576000610a3f6008611403565b600f54604080516001600160a01b038416602080830182905282840194909452825180830384018152606090920183528151918401919091206000818152600c855283812054928152600a9094529183208054919c50939450849391928c9291610aaa908490611d8c565b90915550610aba90508a86611d8c565b6001600160a01b0383166000908152600b6020526040812080549297508c92909190610ae7908490611e09565b925050819055506001600f6000828254610b019190611d8c565b90915550610b1190508a85611d8c565b9350610b1e600189611d8c565b9750505050610a04565b50600f54604080518481526020810183905283917f79b59ced8da2d76b96a1e1ade405a5abfa380ad8a74613c64bdeff21beac4a78910160405180910390a250505050505050565b60006105e4826000610c63565b6001600160a01b0381166000908152602081905260408120546105e4906000610c17565b6001600160a01b0381166000908152602081905260408120546105e4565b600080610bcd836032611481565b905061062e61041d8285611e09565b610be4610fcb565b6001600160a01b038116610c0e57604051631e4fbdf760e01b81526000600482015260240161070c565b61088a81610ff8565b600061062e610c246104a7565b610c2f906001611d8c565b610c3b6000600a611f21565b600254610c489190611d8c565b859190856114a3565b610c5e83838360016114f2565b505050565b600061062e610c7382600a611f21565b600254610c809190611d8c565b610c886104a7565b610c48906001611d8c565b6001600160a01b038381166000908152600160209081526040808320938616835292905220546000198114610cf85781811015610ce957828183604051637dc7a0d960e11b815260040161070c93929190611e1c565b610cf8848484840360006114f2565b50505050565b6001600160a01b038316610d2857604051634b637e8f60e11b81526000600482015260240161070c565b6001600160a01b038216610d525760405163ec442f0560e01b81526000600482015260240161070c565b610c5e8383836115c7565b81546001600160801b03600160801b820481169181166001830190911603610d9857604051638acb5f2760e01b815260040160405180910390fd5b6001600160801b03808216600090815260018086016020526040909120939093558354919092018216600160801b029116179055565b610dd66116de565b66038d7ea4c680008211610e2c5760405162461bcd60e51b815260206004820152601e60248201527f4d696e696d756d206465706f73697420616d6f756e74206e6f74206d65740000604482015260640161070c565b7f00000000000000000000000000000000000000000000000000000000000000006001600160a01b0316635c975abb6040518163ffffffff1660e01b8152600401602060405180830381865afa158015610e8a573d6000803e3d6000fd5b505050506040513d601f19601f82011682018060405250810190610eae9190611f30565b15610eb857600080fd5b6000610ec5836032611481565b90507f0000000000000000000000000000000000000000000000000000000000000000610ef486868686611708565b6000610f008386611e09565b9050600083118015610f1b57506001600160a01b0382163014155b15610fb55760405163a9059cbb60e01b81526001600160a01b038381166004830152602482018590527f0000000000000000000000000000000000000000000000000000000000000000169063a9059cbb906044016020604051808303816000875af1158015610f8f573d6000803e3d6000fd5b505050506040513d601f19601f82011682018060405250810190610fb39190611f30565b505b610fbe8161104a565b505050610cf86001600555565b6006546001600160a01b0316331461084a5760405163118cdaa760e01b815233600482015260240161070c565b600680546001600160a01b038381166001600160a01b0319831681179093556040519116919082907f8be0079c531659141344cd1fd0a4f28419497f9722a3daafe3b4186f6b6457e090600090a35050565b604051636eb1769f60e11b81523060048201527f00000000000000000000000000000000000000000000000000000000000000006001600160a01b0381811660248401526000927f0000000000000000000000000000000000000000000000000000000000000000919091169163095ea7b391839063dd62ed3e90604401602060405180830381865afa1580156110e5573d6000803e3d6000fd5b505050506040513d601f19601f820116820180604052508101906111099190611d5d565b6111139086611d8c565b6040516001600160e01b031960e085901b1681526001600160a01b03909216600483015260248201526044016020604051808303816000875af115801561115e573d6000803e3d6000fd5b505050506040513d601f19601f820116820180604052508101906111829190611f30565b9050806111c35760405162461bcd60e51b815260206004820152600f60248201526e105c1c1c9bdd985b0819985a5b1959608a1b604482015260640161070c565b6040516302e108e960e11b8152600481018390526001600160a01b037f0000000000000000000000000000000000000000000000000000000000000000811660248301527f000000000000000000000000000000000000000000000000000000000000000016906305c211d290604401600060405180830381600087803b15801561124d57600080fd5b505af192505050801561125e575060015b6112aa5760405162461bcd60e51b815260206004820152601760248201527f4661696c656420746f2062726964676520617373657473000000000000000000604482015260640161070c565b81600760008282546112bc9190611d8c565b90915550506040518281526001600160a01b037f000000000000000000000000000000000000000000000000000000000000000016907f256851c1ea3542f6ae0d04732309f877e40571e62e03c013c70bdbb3a421b9289060200160405180910390a25b5050565b60006105e4826001610c17565b600061133d601e610661565b61134c848461271060016114a3565b61062e9190611d8c565b336000908152600a602052604090205482908111156113c95760405162461bcd60e51b815260206004820152602960248201527f4e6f7420656e6f7567682061737365747320756e6c6f636b656420666f7220776044820152681a5d1a191c985dd85b60ba1b606482015260840161070c565b336000908152600a6020526040812080548592906113e8908490611e09565b909155506113fb9050868686868661178c565b505050505050565b80546000906001600160801b0380821691600160801b900416810361143b576040516375e52f4f60e01b815260040160405180910390fd5b6001600160801b038181166000908152600185810160205260408220805492905585546fffffffffffffffffffffffffffffffff19169301909116919091179092555090565b600061148d601e610661565b61134c8361149d61271082611d8c565b86919060015b6000806114b186868661184c565b90506114bc83611910565b80156114d85750600084806114d3576114d3611f52565b868809115b1561090d576114e8600182611d8c565b9695505050505050565b6001600160a01b03841661151c5760405163e602df0560e01b81526000600482015260240161070c565b6001600160a01b03831661154657604051634a1406b160e11b81526000600482015260240161070c565b6001600160a01b0380851660009081526001602090815260408083209387168352929052208290558015610cf857826001600160a01b0316846001600160a01b03167f8c5be1e5ebec7d5bd14f71427d1e84f3dd0314c0f7b2291e5b200ac8c7c3b925846040516115b991815260200190565b60405180910390a350505050565b6001600160a01b0383166115f25780600260008282546115e79190611d8c565b909155506116519050565b6001600160a01b038316600090815260208190526040902054818110156116325783818360405163391434e360e21b815260040161070c93929190611e1c565b6001600160a01b03841660009081526020819052604090209082900390555b6001600160a01b03821661166d5760028054829003905561168c565b6001600160a01b03821660009081526020819052604090208054820190555b816001600160a01b0316836001600160a01b03167fddf252ad1be2c89b69c2b068fc378daa952ba7f163c4a11628f55a4df523b3ef836040516116d191815260200190565b60405180910390a3505050565b60026005540361170157604051633ee5aeb560e01b815260040160405180910390fd5b6002600555565b6117347f000000000000000000000000000000000000000000000000000000000000000085308561193d565b61173e83826119a4565b826001600160a01b0316846001600160a01b03167fdcbc1c05240f31ff3ad067ef1ee35ce4997762752e3a095284754544f4c709d784846040516115b9929190918252602082015260400190565b826001600160a01b0316856001600160a01b0316146117b0576117b0838683610c93565b6117ba83826119da565b6117e57f00000000000000000000000000000000000000000000000000000000000000008584611a10565b826001600160a01b0316846001600160a01b0316866001600160a01b03167ffbde797d201c681b91056529119e0b02407c7bb96a4a2c75c01fc9667232c8db858560405161183d929190918252602082015260400190565b60405180910390a45050505050565b60008383028160001985870982811083820303915050806000036118835783828161187957611879611f52565b049250505061062e565b8084116118a35760405163227bc15360e01b815260040160405180910390fd5b6000848688096000868103871696879004966002600389028118808a02820302808a02820302808a02820302808a02820302808a02820302808a02909103029181900381900460010186841190950394909402919094039290920491909117919091029150509392505050565b6000600282600381111561192657611926611f68565b6119309190611f7e565b60ff166001149050919050565b6040516001600160a01b038481166024830152838116604483015260648201839052610cf89186918216906323b872dd906084015b604051602081830303815290604052915060e01b6020820180516001600160e01b038381831617835250505050611a41565b6001600160a01b0382166119ce5760405163ec442f0560e01b81526000600482015260240161070c565b611320600083836115c7565b6001600160a01b038216611a0457604051634b637e8f60e11b81526000600482015260240161070c565b611320826000836115c7565b6040516001600160a01b03838116602483015260448201839052610c5e91859182169063a9059cbb90606401611972565b6000611a566001600160a01b03841683611aa4565b90508051600014158015611a7b575080806020019051810190611a799190611f30565b155b15610c5e57604051635274afe760e01b81526001600160a01b038416600482015260240161070c565b606061062e8383600084600080856001600160a01b03168486604051611aca9190611fae565b60006040518083038185875af1925050503d8060008114611b07576040519150601f19603f3d011682016040523d82523d6000602084013e611b0c565b606091505b50915091506114e8868383606082611b2c57611b2782611b73565b61062e565b8151158015611b4357506001600160a01b0384163b155b15611b6c57604051639996b31560e01b81526001600160a01b038516600482015260240161070c565b508061062e565b805115611b835780518082602001fd5b604051630a12f52160e11b815260040160405180910390fd5b60005b83811015611bb7578181015183820152602001611b9f565b50506000910152565b6020815260008251806020840152611bdf816040850160208701611b9c565b601f01601f19169190910160400192915050565b600060208284031215611c0557600080fd5b5035919050565b80356001600160a01b0381168114611c2357600080fd5b919050565b60008060408385031215611c3b57600080fd5b611c4483611c0c565b946020939093013593505050565b600080600060608486031215611c6757600080fd5b611c7084611c0c565b9250611c7e60208501611c0c565b9150604084013590509250925092565b600060208284031215611ca057600080fd5b61062e82611c0c565b60008060408385031215611cbc57600080fd5b82359150611ccc60208401611c0c565b90509250929050565b600080600060608486031215611cea57600080fd5b83359250611cfa60208501611c0c565b9150611d0860408501611c0c565b90509250925092565b60008060408385031215611d2457600080fd5b50508035926020909101359150565b60008060408385031215611d4657600080fd5b611d4f83611c0c565b9150611ccc60208401611c0c565b600060208284031215611d6f57600080fd5b5051919050565b634e487b7160e01b600052601160045260246000fd5b808201808211156105e4576105e4611d76565b600181811c90821680611db357607f821691505b602082108103611dd357634e487b7160e01b600052602260045260246000fd5b50919050565b60ff81811683821601908111156105e4576105e4611d76565b80820281158282048414176105e4576105e4611d76565b818103818111156105e4576105e4611d76565b6001600160a01b039390931683526020830191909152604082015260600190565b600181815b80851115611e78578160001904821115611e5e57611e5e611d76565b80851615611e6b57918102915b93841c9390800290611e42565b509250929050565b600082611e8f575060016105e4565b81611e9c575060006105e4565b8160018114611eb25760028114611ebc57611ed8565b60019150506105e4565b60ff841115611ecd57611ecd611d76565b50506001821b6105e4565b5060208310610133831016604e8410600b8410161715611efb575081810a6105e4565b611f058383611e3d565b8060001904821115611f1957611f19611d76565b029392505050565b600061062e60ff841683611e80565b600060208284031215611f4257600080fd5b8151801515811461062e57600080fd5b634e487b7160e01b600052601260045260246000fd5b634e487b7160e01b600052602160045260246000fd5b600060ff831680611f9f57634e487b7160e01b600052601260045260246000fd5b8060ff84160691505092915050565b60008251611fc0818460208701611b9c565b919091019291505056fea26469706673582212203916e9f723111f0d1f8480062a9e04c9ab6b8ead28b4ba166931ecf6052ca4ee64736f6c63430008140033",
  "devdoc": {
    "details": "ERC4626 vault that handles deposits, minting, and bridging of ERC20 tokens to another chain.  Fees expressed in basis points (bp).",
    "errors": {
      "AddressEmptyCode(address)": [
        {
          "details": "There's no code at `target` (it is not a contract)."
        }
      ],
      "AddressInsufficientBalance(address)": [
        {
          "details": "The ETH balance of the account is not enough to perform the operation."
        }
      ],
      "ERC20InsufficientAllowance(address,uint256,uint256)": [
        {
          "details": "Indicates a failure with the `spender`s `allowance`. Used in transfers.",
          "params": {
            "allowance": "Amount of tokens a `spender` is allowed to operate with.",
            "needed": "Minimum amount required to perform a transfer.",
            "spender": "Address that may be allowed to operate on tokens without being their owner."
          }
        }
      ],
      "ERC20InsufficientBalance(address,uint256,uint256)": [
        {
          "details": "Indicates an error related to the current `balance` of a `sender`. Used in transfers.",
          "params": {
            "balance": "Current balance for the interacting account.",
            "needed": "Minimum amount required to perform a transfer.",
            "sender": "Address whose tokens are being transferred."
          }
        }
      ],
      "ERC20InvalidApprover(address)": [
        {
          "details": "Indicates a failure with the `approver` of a token to be approved. Used in approvals.",
          "params": {
            "approver": "Address initiating an approval operation."
          }
        }
      ],
      "ERC20InvalidReceiver(address)": [
        {
          "details": "Indicates a failure with the token `receiver`. Used in transfers.",
          "params": {
            "receiver": "Address to which tokens are being transferred."
          }
        }
      ],
      "ERC20InvalidSender(address)": [
        {
          "details": "Indicates a failure with the token `sender`. Used in transfers.",
          "params": {
            "sender": "Address whose tokens are being transferred."
          }
        }
      ],
      "ERC20InvalidSpender(address)": [
        {
          "details": "Indicates a failure with the `spender` to be approved. Used in approvals.",
          "params": {
            "spender": "Address that may be allowed to operate on tokens without being their owner."
          }
        }
      ],
      "ERC4626ExceededMaxDeposit(address,uint256,uint256)": [
        {
          "details": "Attempted to deposit more assets than the max amount for `receiver`."
        }
      ],
      "ERC4626ExceededMaxMint(address,uint256,uint256)": [
        {
          "details": "Attempted to mint more shares than the max amount for `receiver`."
        }
      ],
      "ERC4626ExceededMaxRedeem(address,uint256,uint256)": [
        {
          "details": "Attempted to redeem more shares than the max amount for `receiver`."
        }
      ],
      "ERC4626ExceededMaxWithdraw(address,uint256,uint256)": [
        {
          "details": "Attempted to withdraw more assets than the max amount for `receiver`."
        }
      ],
      "FailedInnerCall()": [
        {
          "details": "A call to an address target failed. The target may have reverted."
        }
      ],
      "MathOverflowedMulDiv()": [
        {
          "details": "Muldiv operation overflow."
        }
      ],
      "OwnableInvalidOwner(address)": [
        {
          "details": "The owner is not a valid owner account. (eg. `address(0)`)"
        }
      ],
      "OwnableUnauthorizedAccount(address)": [
        {
          "details": "The caller account is not authorized to perform an operation."
        }
      ],
      "QueueEmpty()": [
        {
          "details": "An operation (e.g. {front}) couldn't be completed due to the queue being empty."
        }
      ],
      "QueueFull()": [
        {
          "details": "A push operation couldn't be completed due to the queue being full."
        }
      ],
      "ReentrancyGuardReentrantCall()": [
        {
          "details": "Unauthorized reentrant call."
        }
      ],
      "SafeERC20FailedOperation(address)": [
        {
          "details": "An operation with an ERC20 token failed."
        }
      ]
    },
    "events": {
      "Approval(address,address,uint256)": {
        "details": "Emitted when the allowance of a `spender` for an `owner` is set by a call to {approve}. `value` is the new allowance."
      },
      "Transfer(address,address,uint256)": {
        "details": "Emitted when `value` tokens are moved from one account (`from`) to another (`to`). Note that `value` may be zero."
      }
    },
    "kind": "dev",
    "methods": {
      "allowance(address,address)": {
        "details": "See {IERC20-allowance}."
      },
      "approve(address,uint256)": {
        "details": "See {IERC20-approve}. NOTE: If `value` is the maximum `uint256`, the allowance is not updated on `transferFrom`. This is semantically equivalent to an infinite approval. Requirements: - `spender` cannot be the zero address."
      },
      "asset()": {
        "details": "See {IERC4626-asset}. "
      },
      "balanceOf(address)": {
        "details": "See {IERC20-balanceOf}."
      },
      "calculateL1GasFeeInWei(uint256)": {
        "details": "Calculates the fee in wei based on a given gas price in gwei. Used as estimate for L1 transaction fees which are not charged by the bridgecontract  (i.e. claiming from bridge contract and depositing into L1 strategy)",
        "params": {
          "gasPriceGwei": "The gas price in gwei."
        },
        "returns": {
          "_0": "The estimated fee in wei."
        }
      },
      "convertToAssets(uint256)": {
        "details": "See {IERC4626-convertToAssets}. "
      },
      "convertToShares(uint256)": {
        "details": "See {IERC4626-convertToShares}. "
      },
      "decimals()": {
        "details": "Decimals are computed by adding the decimal offset on top of the underlying asset's decimals. This \"original\" value is cached during construction of the vault contract. If this read operation fails (e.g., the asset has not been created yet), a default of 18 is used to represent the underlying asset's decimals. See {IERC20Metadata-decimals}."
      },
      "deposit(uint256,address)": {
        "details": "See {IERC4626-deposit}. "
      },
      "getL1Assets()": {
        "details": "Convenience function to see L1 assets managed by this vault.",
        "returns": {
          "_0": "L1 assets managed by this vault."
        }
      },
      "maxDeposit(address)": {
        "details": "See {IERC4626-maxDeposit}. "
      },
      "maxMint(address)": {
        "details": "See {IERC4626-maxMint}. "
      },
      "maxRedeem(address)": {
        "details": "See {IERC4626-maxRedeem}. "
      },
      "maxWithdraw(address)": {
        "details": "See {IERC4626-maxWithdraw}. "
      },
      "mint(uint256,address)": {
        "details": "See {IERC4626-mint}. As opposed to {deposit}, minting is allowed even if the vault is in a state where the price of a share is zero. In this case, the shares will be minted without requiring any assets to be deposited."
      },
      "name()": {
        "details": "Returns the name of the token."
      },
      "owner()": {
        "details": "Returns the address of the current owner."
      },
      "previewDeposit(uint256)": {
        "details": "Preview taking an entry fee on deposit. Overrides {IERC4626-previewDeposit}.",
        "params": {
          "assets": "The amount of assets to deposit."
        },
        "returns": {
          "_0": "The number of shares corresponding to the deposited assets after fees."
        }
      },
      "previewMint(uint256)": {
        "details": "Preview adding an entry fee on mint. Overrides {IERC4626-previewMint}.",
        "params": {
          "shares": "The number of shares to mint."
        },
        "returns": {
          "_0": "The number of assets required to mint the shares, including fees."
        }
      },
      "previewRedeem(uint256)": {
        "details": "See {IERC4626-previewRedeem}. "
      },
      "previewWithdraw(uint256)": {
        "details": "See {IERC4626-previewWithdraw}. "
      },
      "redeem(uint256,address,address)": {
        "details": "See {IERC4626-redeem}. "
      },
      "renounceOwnership()": {
        "details": "Leaves the contract without owner. It will not be possible to call `onlyOwner` functions. Can only be called by the current owner. NOTE: Renouncing ownership will leave the contract without an owner, thereby disabling any functionality that is only available to the owner."
      },
      "symbol()": {
        "details": "Returns the symbol of the token, usually a shorter version of the name."
      },
      "totalAssets()": {
        "details": "Overrides {IERC4626-totalAssets} to include assets on L1.",
        "returns": {
          "_0": "The total assets managed by this vault."
        }
      },
      "totalSupply()": {
        "details": "See {IERC20-totalSupply}."
      },
      "transfer(address,uint256)": {
        "details": "See {IERC20-transfer}. Requirements: - `to` cannot be the zero address. - the caller must have a balance of at least `value`."
      },
      "transferFrom(address,address,uint256)": {
        "details": "See {IERC20-transferFrom}. Emits an {Approval} event indicating the updated allowance. This is not required by the EIP. See the note at the beginning of {ERC20}. NOTE: Does not update the allowance if the current allowance is the maximum `uint256`. Requirements: - `from` and `to` cannot be the zero address. - `from` must have a balance of at least `value`. - the caller must have allowance for ``from``'s tokens of at least `value`."
      },
      "transferOwnership(address)": {
        "details": "Transfers ownership of the contract to a new account (`newOwner`). Can only be called by the current owner."
      },
      "withdraw(uint256,address,address)": {
        "details": "See {IERC4626-withdraw}. "
      }
    },
    "title": "FloxiSfrxEth",
    "version": 1
  },
  "userdoc": {
    "kind": "user",
    "methods": {},
    "version": 1
  },
  "storageLayout": {
    "storage": [
      {
        "astId": 477,
        "contract": "contracts/FloxiSfrxEth.sol:FloxiSfrxEth",
        "label": "_balances",
        "offset": 0,
        "slot": "0",
        "type": "t_mapping(t_address,t_uint256)"
      },
      {
        "astId": 483,
        "contract": "contracts/FloxiSfrxEth.sol:FloxiSfrxEth",
        "label": "_allowances",
        "offset": 0,
        "slot": "1",
        "type": "t_mapping(t_address,t_mapping(t_address,t_uint256))"
      },
      {
        "astId": 485,
        "contract": "contracts/FloxiSfrxEth.sol:FloxiSfrxEth",
        "label": "_totalSupply",
        "offset": 0,
        "slot": "2",
        "type": "t_uint256"
      },
      {
        "astId": 487,
        "contract": "contracts/FloxiSfrxEth.sol:FloxiSfrxEth",
        "label": "_name",
        "offset": 0,
        "slot": "3",
        "type": "t_string_storage"
      },
      {
        "astId": 489,
        "contract": "contracts/FloxiSfrxEth.sol:FloxiSfrxEth",
        "label": "_symbol",
        "offset": 0,
        "slot": "4",
        "type": "t_string_storage"
      },
      {
        "astId": 2378,
        "contract": "contracts/FloxiSfrxEth.sol:FloxiSfrxEth",
        "label": "_status",
        "offset": 0,
        "slot": "5",
        "type": "t_uint256"
      },
      {
        "astId": 8,
        "contract": "contracts/FloxiSfrxEth.sol:FloxiSfrxEth",
        "label": "_owner",
        "offset": 0,
        "slot": "6",
        "type": "t_address"
      },
      {
        "astId": 3960,
        "contract": "contracts/FloxiSfrxEth.sol:FloxiSfrxEth",
        "label": "_l1Assets",
        "offset": 0,
        "slot": "7",
        "type": "t_uint256"
      },
      {
        "astId": 3963,
        "contract": "contracts/FloxiSfrxEth.sol:FloxiSfrxEth",
        "label": "_withdrawalQueue",
        "offset": 0,
        "slot": "8",
        "type": "t_struct(Bytes32Deque)3512_storage"
      },
      {
        "astId": 3967,
        "contract": "contracts/FloxiSfrxEth.sol:FloxiSfrxEth",
        "label": "_unlockedAssets",
        "offset": 0,
        "slot": "10",
        "type": "t_mapping(t_address,t_uint256)"
      },
      {
        "astId": 3971,
        "contract": "contracts/FloxiSfrxEth.sol:FloxiSfrxEth",
        "label": "_queuedAssets",
        "offset": 0,
        "slot": "11",
        "type": "t_mapping(t_address,t_uint256)"
      },
      {
        "astId": 3975,
        "contract": "contracts/FloxiSfrxEth.sol:FloxiSfrxEth",
        "label": "_queuedWithdrawals",
        "offset": 0,
        "slot": "12",
        "type": "t_mapping(t_bytes32,t_uint256)"
      },
      {
        "astId": 3979,
        "contract": "contracts/FloxiSfrxEth.sol:FloxiSfrxEth",
        "label": "_activeWithdrawalsCount",
        "offset": 0,
        "slot": "13",
        "type": "t_mapping(t_address,t_uint256)"
      },
      {
        "astId": 3981,
        "contract": "contracts/FloxiSfrxEth.sol:FloxiSfrxEth",
        "label": "_withdrawalNonce",
        "offset": 0,
        "slot": "14",
        "type": "t_uint256"
      },
      {
        "astId": 3983,
        "contract": "contracts/FloxiSfrxEth.sol:FloxiSfrxEth",
        "label": "_unlockNonce",
        "offset": 0,
        "slot": "15",
        "type": "t_uint256"
      }
    ],
    "types": {
      "t_address": {
        "encoding": "inplace",
        "label": "address",
        "numberOfBytes": "20"
      },
      "t_bytes32": {
        "encoding": "inplace",
        "label": "bytes32",
        "numberOfBytes": "32"
      },
      "t_mapping(t_address,t_mapping(t_address,t_uint256))": {
        "encoding": "mapping",
        "key": "t_address",
        "label": "mapping(address => mapping(address => uint256))",
        "numberOfBytes": "32",
        "value": "t_mapping(t_address,t_uint256)"
      },
      "t_mapping(t_address,t_uint256)": {
        "encoding": "mapping",
        "key": "t_address",
        "label": "mapping(address => uint256)",
        "numberOfBytes": "32",
        "value": "t_uint256"
      },
      "t_mapping(t_bytes32,t_uint256)": {
        "encoding": "mapping",
        "key": "t_bytes32",
        "label": "mapping(bytes32 => uint256)",
        "numberOfBytes": "32",
        "value": "t_uint256"
      },
      "t_mapping(t_uint128,t_bytes32)": {
        "encoding": "mapping",
        "key": "t_uint128",
        "label": "mapping(uint128 => bytes32)",
        "numberOfBytes": "32",
        "value": "t_bytes32"
      },
      "t_string_storage": {
        "encoding": "bytes",
        "label": "string",
        "numberOfBytes": "32"
      },
      "t_struct(Bytes32Deque)3512_storage": {
        "encoding": "inplace",
        "label": "struct DoubleEndedQueue.Bytes32Deque",
        "members": [
          {
            "astId": 3505,
            "contract": "contracts/FloxiSfrxEth.sol:FloxiSfrxEth",
            "label": "_begin",
            "offset": 0,
            "slot": "0",
            "type": "t_uint128"
          },
          {
            "astId": 3507,
            "contract": "contracts/FloxiSfrxEth.sol:FloxiSfrxEth",
            "label": "_end",
            "offset": 16,
            "slot": "0",
            "type": "t_uint128"
          },
          {
            "astId": 3511,
            "contract": "contracts/FloxiSfrxEth.sol:FloxiSfrxEth",
            "label": "_data",
            "offset": 0,
            "slot": "1",
            "type": "t_mapping(t_uint128,t_bytes32)"
          }
        ],
        "numberOfBytes": "64"
      },
      "t_uint128": {
        "encoding": "inplace",
        "label": "uint128",
        "numberOfBytes": "16"
      },
      "t_uint256": {
        "encoding": "inplace",
        "label": "uint256",
        "numberOfBytes": "32"
      }
    }
  }
}