{
  "address": "0x749B85c801b76439D60384A2b1f3Ac1FA9b7859f",
  "abi": [
    {
      "inputs": [
        {
          "internalType": "contract IERC20",
          "name": "asset_",
          "type": "address"
        },
        {
          "internalType": "address",
          "name": "remoteAsset_",
          "type": "address"
        },
        {
          "internalType": "address",
          "name": "remoteContract_",
          "type": "address"
        },
        {
          "internalType": "address",
          "name": "l2CrossDomainMessenger_",
          "type": "address"
        },
        {
          "internalType": "address",
          "name": "treasury_",
          "type": "address"
        },
        {
          "internalType": "address",
          "name": "fraxFerry_",
          "type": "address"
        }
      ],
      "stateMutability": "nonpayable",
      "type": "constructor"
    },
    {
      "inputs": [
        {
          "internalType": "address",
          "name": "target",
          "type": "address"
        }
      ],
      "name": "AddressEmptyCode",
      "type": "error"
    },
    {
      "inputs": [
        {
          "internalType": "address",
          "name": "account",
          "type": "address"
        }
      ],
      "name": "AddressInsufficientBalance",
      "type": "error"
    },
    {
      "inputs": [
        {
          "internalType": "address",
          "name": "spender",
          "type": "address"
        },
        {
          "internalType": "uint256",
          "name": "allowance",
          "type": "uint256"
        },
        {
          "internalType": "uint256",
          "name": "needed",
          "type": "uint256"
        }
      ],
      "name": "ERC20InsufficientAllowance",
      "type": "error"
    },
    {
      "inputs": [
        {
          "internalType": "address",
          "name": "sender",
          "type": "address"
        },
        {
          "internalType": "uint256",
          "name": "balance",
          "type": "uint256"
        },
        {
          "internalType": "uint256",
          "name": "needed",
          "type": "uint256"
        }
      ],
      "name": "ERC20InsufficientBalance",
      "type": "error"
    },
    {
      "inputs": [
        {
          "internalType": "address",
          "name": "approver",
          "type": "address"
        }
      ],
      "name": "ERC20InvalidApprover",
      "type": "error"
    },
    {
      "inputs": [
        {
          "internalType": "address",
          "name": "receiver",
          "type": "address"
        }
      ],
      "name": "ERC20InvalidReceiver",
      "type": "error"
    },
    {
      "inputs": [
        {
          "internalType": "address",
          "name": "sender",
          "type": "address"
        }
      ],
      "name": "ERC20InvalidSender",
      "type": "error"
    },
    {
      "inputs": [
        {
          "internalType": "address",
          "name": "spender",
          "type": "address"
        }
      ],
      "name": "ERC20InvalidSpender",
      "type": "error"
    },
    {
      "inputs": [
        {
          "internalType": "address",
          "name": "receiver",
          "type": "address"
        },
        {
          "internalType": "uint256",
          "name": "assets",
          "type": "uint256"
        },
        {
          "internalType": "uint256",
          "name": "max",
          "type": "uint256"
        }
      ],
      "name": "ERC4626ExceededMaxDeposit",
      "type": "error"
    },
    {
      "inputs": [
        {
          "internalType": "address",
          "name": "receiver",
          "type": "address"
        },
        {
          "internalType": "uint256",
          "name": "shares",
          "type": "uint256"
        },
        {
          "internalType": "uint256",
          "name": "max",
          "type": "uint256"
        }
      ],
      "name": "ERC4626ExceededMaxMint",
      "type": "error"
    },
    {
      "inputs": [
        {
          "internalType": "address",
          "name": "owner",
          "type": "address"
        },
        {
          "internalType": "uint256",
          "name": "shares",
          "type": "uint256"
        },
        {
          "internalType": "uint256",
          "name": "max",
          "type": "uint256"
        }
      ],
      "name": "ERC4626ExceededMaxRedeem",
      "type": "error"
    },
    {
      "inputs": [
        {
          "internalType": "address",
          "name": "owner",
          "type": "address"
        },
        {
          "internalType": "uint256",
          "name": "assets",
          "type": "uint256"
        },
        {
          "internalType": "uint256",
          "name": "max",
          "type": "uint256"
        }
      ],
      "name": "ERC4626ExceededMaxWithdraw",
      "type": "error"
    },
    {
      "inputs": [],
      "name": "FailedInnerCall",
      "type": "error"
    },
    {
      "inputs": [],
      "name": "MathOverflowedMulDiv",
      "type": "error"
    },
    {
      "inputs": [
        {
          "internalType": "address",
          "name": "owner",
          "type": "address"
        }
      ],
      "name": "OwnableInvalidOwner",
      "type": "error"
    },
    {
      "inputs": [
        {
          "internalType": "address",
          "name": "account",
          "type": "address"
        }
      ],
      "name": "OwnableUnauthorizedAccount",
      "type": "error"
    },
    {
      "inputs": [],
      "name": "QueueEmpty",
      "type": "error"
    },
    {
      "inputs": [],
      "name": "QueueFull",
      "type": "error"
    },
    {
      "inputs": [],
      "name": "ReentrancyGuardReentrantCall",
      "type": "error"
    },
    {
      "inputs": [
        {
          "internalType": "address",
          "name": "token",
          "type": "address"
        }
      ],
      "name": "SafeERC20FailedOperation",
      "type": "error"
    },
    {
      "anonymous": false,
      "inputs": [
        {
          "indexed": true,
          "internalType": "address",
          "name": "owner",
          "type": "address"
        },
        {
          "indexed": true,
          "internalType": "address",
          "name": "spender",
          "type": "address"
        },
        {
          "indexed": false,
          "internalType": "uint256",
          "name": "value",
          "type": "uint256"
        }
      ],
      "name": "Approval",
      "type": "event"
    },
    {
      "anonymous": false,
      "inputs": [
        {
          "indexed": true,
          "internalType": "address",
          "name": "receiver",
          "type": "address"
        },
        {
          "indexed": false,
          "internalType": "uint256",
          "name": "assets",
          "type": "uint256"
        }
      ],
      "name": "AssetsShippedToL1",
      "type": "event"
    },
    {
      "anonymous": false,
      "inputs": [
        {
          "indexed": true,
          "internalType": "address",
          "name": "sender",
          "type": "address"
        },
        {
          "indexed": true,
          "internalType": "address",
          "name": "owner",
          "type": "address"
        },
        {
          "indexed": false,
          "internalType": "uint256",
          "name": "assets",
          "type": "uint256"
        },
        {
          "indexed": false,
          "internalType": "uint256",
          "name": "shares",
          "type": "uint256"
        }
      ],
      "name": "Deposit",
      "type": "event"
    },
    {
      "anonymous": false,
      "inputs": [
        {
          "indexed": true,
          "internalType": "address",
          "name": "previousOwner",
          "type": "address"
        },
        {
          "indexed": true,
          "internalType": "address",
          "name": "newOwner",
          "type": "address"
        }
      ],
      "name": "OwnershipTransferred",
      "type": "event"
    },
    {
      "anonymous": false,
      "inputs": [
        {
          "indexed": true,
          "internalType": "address",
          "name": "from",
          "type": "address"
        },
        {
          "indexed": true,
          "internalType": "address",
          "name": "to",
          "type": "address"
        },
        {
          "indexed": false,
          "internalType": "uint256",
          "name": "value",
          "type": "uint256"
        }
      ],
      "name": "Transfer",
      "type": "event"
    },
    {
      "anonymous": false,
      "inputs": [
        {
          "indexed": true,
          "internalType": "address",
          "name": "sender",
          "type": "address"
        },
        {
          "indexed": true,
          "internalType": "address",
          "name": "receiver",
          "type": "address"
        },
        {
          "indexed": true,
          "internalType": "address",
          "name": "owner",
          "type": "address"
        },
        {
          "indexed": false,
          "internalType": "uint256",
          "name": "assets",
          "type": "uint256"
        },
        {
          "indexed": false,
          "internalType": "uint256",
          "name": "shares",
          "type": "uint256"
        }
      ],
      "name": "Withdraw",
      "type": "event"
    },
    {
      "anonymous": false,
      "inputs": [
        {
          "indexed": true,
          "internalType": "address",
          "name": "account",
          "type": "address"
        },
        {
          "indexed": true,
          "internalType": "uint256",
          "name": "nonce",
          "type": "uint256"
        },
        {
          "indexed": false,
          "internalType": "uint256",
          "name": "assets",
          "type": "uint256"
        }
      ],
      "name": "WithdrawalQueued",
      "type": "event"
    },
    {
      "anonymous": false,
      "inputs": [
        {
          "indexed": true,
          "internalType": "uint256",
          "name": "assetsUnlocked",
          "type": "uint256"
        },
        {
          "indexed": false,
          "internalType": "uint256",
          "name": "fromNonce",
          "type": "uint256"
        },
        {
          "indexed": false,
          "internalType": "uint256",
          "name": "toNonce",
          "type": "uint256"
        }
      ],
      "name": "WithdrawalsUnlocked",
      "type": "event"
    },
    {
      "inputs": [],
      "name": "_MAX_QUEUED_WITHDRAWALS",
      "outputs": [
        {
          "internalType": "uint256",
          "name": "",
          "type": "uint256"
        }
      ],
      "stateMutability": "view",
      "type": "function"
    },
    {
      "inputs": [],
      "name": "_MIN_DEPOSIT",
      "outputs": [
        {
          "internalType": "uint256",
          "name": "",
          "type": "uint256"
        }
      ],
      "stateMutability": "view",
      "type": "function"
    },
    {
      "inputs": [
        {
          "internalType": "address",
          "name": "account",
          "type": "address"
        }
      ],
      "name": "_activeWithdrawalsCount",
      "outputs": [
        {
          "internalType": "uint256",
          "name": "",
          "type": "uint256"
        }
      ],
      "stateMutability": "view",
      "type": "function"
    },
    {
      "inputs": [],
      "name": "_asset",
      "outputs": [
        {
          "internalType": "contract IERC20",
          "name": "",
          "type": "address"
        }
      ],
      "stateMutability": "view",
      "type": "function"
    },
    {
      "inputs": [],
      "name": "_fraxFerry",
      "outputs": [
        {
          "internalType": "address",
          "name": "",
          "type": "address"
        }
      ],
      "stateMutability": "view",
      "type": "function"
    },
    {
      "inputs": [],
      "name": "_l1Assets",
      "outputs": [
        {
          "internalType": "uint256",
          "name": "",
          "type": "uint256"
        }
      ],
      "stateMutability": "view",
      "type": "function"
    },
    {
      "inputs": [],
      "name": "_l2CrossDomainMessenger",
      "outputs": [
        {
          "internalType": "address",
          "name": "",
          "type": "address"
        }
      ],
      "stateMutability": "view",
      "type": "function"
    },
    {
      "inputs": [
        {
          "internalType": "address",
          "name": "account",
          "type": "address"
        }
      ],
      "name": "_queuedAssets",
      "outputs": [
        {
          "internalType": "uint256",
          "name": "",
          "type": "uint256"
        }
      ],
      "stateMutability": "view",
      "type": "function"
    },
    {
      "inputs": [
        {
          "internalType": "bytes32",
          "name": "id",
          "type": "bytes32"
        }
      ],
      "name": "_queuedWithdrawals",
      "outputs": [
        {
          "internalType": "uint256",
          "name": "",
          "type": "uint256"
        }
      ],
      "stateMutability": "view",
      "type": "function"
    },
    {
      "inputs": [],
      "name": "_remoteAsset",
      "outputs": [
        {
          "internalType": "address",
          "name": "",
          "type": "address"
        }
      ],
      "stateMutability": "view",
      "type": "function"
    },
    {
      "inputs": [],
      "name": "_remoteContract",
      "outputs": [
        {
          "internalType": "address",
          "name": "",
          "type": "address"
        }
      ],
      "stateMutability": "view",
      "type": "function"
    },
    {
      "inputs": [],
      "name": "_treasury",
      "outputs": [
        {
          "internalType": "address",
          "name": "",
          "type": "address"
        }
      ],
      "stateMutability": "view",
      "type": "function"
    },
    {
      "inputs": [],
      "name": "_unlockNonce",
      "outputs": [
        {
          "internalType": "uint256",
          "name": "",
          "type": "uint256"
        }
      ],
      "stateMutability": "view",
      "type": "function"
    },
    {
      "inputs": [
        {
          "internalType": "address",
          "name": "account",
          "type": "address"
        }
      ],
      "name": "_unlockedAssets",
      "outputs": [
        {
          "internalType": "uint256",
          "name": "",
          "type": "uint256"
        }
      ],
      "stateMutability": "view",
      "type": "function"
    },
    {
      "inputs": [],
      "name": "_withdrawalNonce",
      "outputs": [
        {
          "internalType": "uint256",
          "name": "",
          "type": "uint256"
        }
      ],
      "stateMutability": "view",
      "type": "function"
    },
    {
      "inputs": [
        {
          "internalType": "address",
          "name": "owner",
          "type": "address"
        },
        {
          "internalType": "address",
          "name": "spender",
          "type": "address"
        }
      ],
      "name": "allowance",
      "outputs": [
        {
          "internalType": "uint256",
          "name": "",
          "type": "uint256"
        }
      ],
      "stateMutability": "view",
      "type": "function"
    },
    {
      "inputs": [
        {
          "internalType": "address",
          "name": "spender",
          "type": "address"
        },
        {
          "internalType": "uint256",
          "name": "value",
          "type": "uint256"
        }
      ],
      "name": "approve",
      "outputs": [
        {
          "internalType": "bool",
          "name": "",
          "type": "bool"
        }
      ],
      "stateMutability": "nonpayable",
      "type": "function"
    },
    {
      "inputs": [],
      "name": "asset",
      "outputs": [
        {
          "internalType": "address",
          "name": "",
          "type": "address"
        }
      ],
      "stateMutability": "view",
      "type": "function"
    },
    {
      "inputs": [
        {
          "internalType": "address",
          "name": "account",
          "type": "address"
        }
      ],
      "name": "balanceOf",
      "outputs": [
        {
          "internalType": "uint256",
          "name": "",
          "type": "uint256"
        }
      ],
      "stateMutability": "view",
      "type": "function"
    },
    {
      "inputs": [
        {
          "internalType": "uint256",
          "name": "gasPriceGwei",
          "type": "uint256"
        }
      ],
      "name": "calculateL1GasFeeInWei",
      "outputs": [
        {
          "internalType": "uint256",
          "name": "",
          "type": "uint256"
        }
      ],
      "stateMutability": "pure",
      "type": "function"
    },
    {
      "inputs": [
        {
          "internalType": "uint256",
          "name": "shares",
          "type": "uint256"
        }
      ],
      "name": "convertToAssets",
      "outputs": [
        {
          "internalType": "uint256",
          "name": "",
          "type": "uint256"
        }
      ],
      "stateMutability": "view",
      "type": "function"
    },
    {
      "inputs": [
        {
          "internalType": "uint256",
          "name": "assets",
          "type": "uint256"
        }
      ],
      "name": "convertToShares",
      "outputs": [
        {
          "internalType": "uint256",
          "name": "",
          "type": "uint256"
        }
      ],
      "stateMutability": "view",
      "type": "function"
    },
    {
      "inputs": [],
      "name": "decimals",
      "outputs": [
        {
          "internalType": "uint8",
          "name": "",
          "type": "uint8"
        }
      ],
      "stateMutability": "view",
      "type": "function"
    },
    {
      "inputs": [
        {
          "internalType": "uint256",
          "name": "assets",
          "type": "uint256"
        },
        {
          "internalType": "address",
          "name": "receiver",
          "type": "address"
        }
      ],
      "name": "deposit",
      "outputs": [
        {
          "internalType": "uint256",
          "name": "",
          "type": "uint256"
        }
      ],
      "stateMutability": "nonpayable",
      "type": "function"
    },
    {
      "inputs": [
        {
          "internalType": "uint256",
          "name": "roundedAmount",
          "type": "uint256"
        }
      ],
      "name": "ferryTicket",
      "outputs": [
        {
          "internalType": "uint256",
          "name": "",
          "type": "uint256"
        }
      ],
      "stateMutability": "view",
      "type": "function"
    },
    {
      "inputs": [
        {
          "internalType": "uint256",
          "name": "assets",
          "type": "uint256"
        }
      ],
      "name": "forceShipToL1",
      "outputs": [],
      "stateMutability": "nonpayable",
      "type": "function"
    },
    {
      "inputs": [],
      "name": "getL1Assets",
      "outputs": [
        {
          "internalType": "uint256",
          "name": "",
          "type": "uint256"
        }
      ],
      "stateMutability": "view",
      "type": "function"
    },
    {
      "inputs": [
        {
          "internalType": "address",
          "name": "",
          "type": "address"
        }
      ],
      "name": "maxDeposit",
      "outputs": [
        {
          "internalType": "uint256",
          "name": "",
          "type": "uint256"
        }
      ],
      "stateMutability": "view",
      "type": "function"
    },
    {
      "inputs": [
        {
          "internalType": "address",
          "name": "",
          "type": "address"
        }
      ],
      "name": "maxMint",
      "outputs": [
        {
          "internalType": "uint256",
          "name": "",
          "type": "uint256"
        }
      ],
      "stateMutability": "view",
      "type": "function"
    },
    {
      "inputs": [
        {
          "internalType": "address",
          "name": "owner",
          "type": "address"
        }
      ],
      "name": "maxRedeem",
      "outputs": [
        {
          "internalType": "uint256",
          "name": "",
          "type": "uint256"
        }
      ],
      "stateMutability": "view",
      "type": "function"
    },
    {
      "inputs": [
        {
          "internalType": "address",
          "name": "owner",
          "type": "address"
        }
      ],
      "name": "maxWithdraw",
      "outputs": [
        {
          "internalType": "uint256",
          "name": "",
          "type": "uint256"
        }
      ],
      "stateMutability": "view",
      "type": "function"
    },
    {
      "inputs": [
        {
          "internalType": "uint256",
          "name": "shares",
          "type": "uint256"
        },
        {
          "internalType": "address",
          "name": "receiver",
          "type": "address"
        }
      ],
      "name": "mint",
      "outputs": [
        {
          "internalType": "uint256",
          "name": "",
          "type": "uint256"
        }
      ],
      "stateMutability": "nonpayable",
      "type": "function"
    },
    {
      "inputs": [],
      "name": "name",
      "outputs": [
        {
          "internalType": "string",
          "name": "",
          "type": "string"
        }
      ],
      "stateMutability": "view",
      "type": "function"
    },
    {
      "inputs": [],
      "name": "owner",
      "outputs": [
        {
          "internalType": "address",
          "name": "",
          "type": "address"
        }
      ],
      "stateMutability": "view",
      "type": "function"
    },
    {
      "inputs": [
        {
          "internalType": "uint256",
          "name": "assets",
          "type": "uint256"
        }
      ],
      "name": "previewDeposit",
      "outputs": [
        {
          "internalType": "uint256",
          "name": "",
          "type": "uint256"
        }
      ],
      "stateMutability": "view",
      "type": "function"
    },
    {
      "inputs": [
        {
          "internalType": "uint256",
          "name": "shares",
          "type": "uint256"
        }
      ],
      "name": "previewMint",
      "outputs": [
        {
          "internalType": "uint256",
          "name": "",
          "type": "uint256"
        }
      ],
      "stateMutability": "view",
      "type": "function"
    },
    {
      "inputs": [
        {
          "internalType": "uint256",
          "name": "shares",
          "type": "uint256"
        }
      ],
      "name": "previewRedeem",
      "outputs": [
        {
          "internalType": "uint256",
          "name": "",
          "type": "uint256"
        }
      ],
      "stateMutability": "view",
      "type": "function"
    },
    {
      "inputs": [
        {
          "internalType": "uint256",
          "name": "assets",
          "type": "uint256"
        }
      ],
      "name": "previewWithdraw",
      "outputs": [
        {
          "internalType": "uint256",
          "name": "",
          "type": "uint256"
        }
      ],
      "stateMutability": "view",
      "type": "function"
    },
    {
      "inputs": [
        {
          "internalType": "uint256",
          "name": "assets",
          "type": "uint256"
        }
      ],
      "name": "queueWithdrawal",
      "outputs": [
        {
          "internalType": "uint256",
          "name": "",
          "type": "uint256"
        }
      ],
      "stateMutability": "nonpayable",
      "type": "function"
    },
    {
      "inputs": [
        {
          "internalType": "uint256",
          "name": "shares",
          "type": "uint256"
        },
        {
          "internalType": "address",
          "name": "receiver",
          "type": "address"
        },
        {
          "internalType": "address",
          "name": "owner",
          "type": "address"
        }
      ],
      "name": "redeem",
      "outputs": [
        {
          "internalType": "uint256",
          "name": "",
          "type": "uint256"
        }
      ],
      "stateMutability": "nonpayable",
      "type": "function"
    },
    {
      "inputs": [],
      "name": "renounceOwnership",
      "outputs": [],
      "stateMutability": "nonpayable",
      "type": "function"
    },
    {
      "inputs": [
        {
          "internalType": "uint256",
          "name": "amount",
          "type": "uint256"
        }
      ],
      "name": "setL1Assets",
      "outputs": [],
      "stateMutability": "nonpayable",
      "type": "function"
    },
    {
      "inputs": [],
      "name": "symbol",
      "outputs": [
        {
          "internalType": "string",
          "name": "",
          "type": "string"
        }
      ],
      "stateMutability": "view",
      "type": "function"
    },
    {
      "inputs": [],
      "name": "totalAssets",
      "outputs": [
        {
          "internalType": "uint256",
          "name": "",
          "type": "uint256"
        }
      ],
      "stateMutability": "view",
      "type": "function"
    },
    {
      "inputs": [],
      "name": "totalSupply",
      "outputs": [
        {
          "internalType": "uint256",
          "name": "",
          "type": "uint256"
        }
      ],
      "stateMutability": "view",
      "type": "function"
    },
    {
      "inputs": [
        {
          "internalType": "address",
          "name": "to",
          "type": "address"
        },
        {
          "internalType": "uint256",
          "name": "value",
          "type": "uint256"
        }
      ],
      "name": "transfer",
      "outputs": [
        {
          "internalType": "bool",
          "name": "",
          "type": "bool"
        }
      ],
      "stateMutability": "nonpayable",
      "type": "function"
    },
    {
      "inputs": [
        {
          "internalType": "address",
          "name": "from",
          "type": "address"
        },
        {
          "internalType": "address",
          "name": "to",
          "type": "address"
        },
        {
          "internalType": "uint256",
          "name": "value",
          "type": "uint256"
        }
      ],
      "name": "transferFrom",
      "outputs": [
        {
          "internalType": "bool",
          "name": "",
          "type": "bool"
        }
      ],
      "stateMutability": "nonpayable",
      "type": "function"
    },
    {
      "inputs": [
        {
          "internalType": "address",
          "name": "newOwner",
          "type": "address"
        }
      ],
      "name": "transferOwnership",
      "outputs": [],
      "stateMutability": "nonpayable",
      "type": "function"
    },
    {
      "inputs": [
        {
          "internalType": "uint256",
          "name": "assets",
          "type": "uint256"
        },
        {
          "internalType": "uint256",
          "name": "maxIterations",
          "type": "uint256"
        }
      ],
      "name": "unlockWithdrawals",
      "outputs": [],
      "stateMutability": "nonpayable",
      "type": "function"
    },
    {
      "inputs": [
        {
          "internalType": "uint256",
          "name": "l1Assets_",
          "type": "uint256"
        }
      ],
      "name": "updateL1Assets",
      "outputs": [],
      "stateMutability": "nonpayable",
      "type": "function"
    },
    {
      "inputs": [
        {
          "internalType": "uint256",
          "name": "assets",
          "type": "uint256"
        },
        {
          "internalType": "address",
          "name": "receiver",
          "type": "address"
        },
        {
          "internalType": "address",
          "name": "owner",
          "type": "address"
        }
      ],
      "name": "withdraw",
      "outputs": [
        {
          "internalType": "uint256",
          "name": "",
          "type": "uint256"
        }
      ],
      "stateMutability": "nonpayable",
      "type": "function"
    },
    {
      "inputs": [
        {
          "internalType": "uint256",
          "name": "amount",
          "type": "uint256"
        }
      ],
      "name": "withdrawFunds",
      "outputs": [],
      "stateMutability": "nonpayable",
      "type": "function"
    }
  ],
  "transactionHash": "0xb0ac5f4c2021e99f13387bf55c758ca5ccab4166f2c489e3b5dd7771a78443ac",
  "args": [
    "0xfc00000000000000000000000000000000000005",
    "0xa63f56985F9C7F3bc9fFc5685535649e0C1a55f3",
    "0xe5cDe99ef123DF0E66e36332d40aF00Cf8bA18C1",
    "0x4200000000000000000000000000000000000007",
    "0xb0754B937bD306fE72264274A61BC03F43FB685F",
    "0x7443eF74594004763574d30C0DEc8DbD2F3241af"
  ],
  "numDeployments": 1,
  "solcInputHash": "15c9b36d1d775bef3a450600c584bed4",
  "bytecode": "0x61018060405260006007553480156200001757600080fd5b5060405162002ff938038062002ff98339810160408190526200003a91620002ae565b33866040518060400160405280601581526020017f466c6f7869205374616b65642046726178204554480000000000000000000000815250604051806040016040528060088152602001670cce6cce4f08ae8d60c31b8152508160039081620000a49190620003e7565b506004620000b38282620003e7565b505050600080620000ca836200015e60201b60201c565b9150915081620000dc576012620000de565b805b60ff1660a05250506001600160a01b03908116608052600160055581166200012057604051631e4fbdf760e01b81526000600482015260240160405180910390fd5b6200012b8162000243565b506001600160a01b0395861660c05293851660e052918416610100528316610120528216610140521661016052620004fe565b60408051600481526024810182526020810180516001600160e01b031663313ce56760e01b17905290516000918291829182916001600160a01b03871691620001a791620004b3565b600060405180830381855afa9150503d8060008114620001e4576040519150601f19603f3d011682016040523d82523d6000602084013e620001e9565b606091505b5091509150818015620001fe57506020815110155b1562000236576000818060200190518101906200021c9190620004e4565b905060ff811162000234576001969095509350505050565b505b5060009485945092505050565b600680546001600160a01b038381166001600160a01b0319831681179093556040519116919082907f8be0079c531659141344cd1fd0a4f28419497f9722a3daafe3b4186f6b6457e090600090a35050565b6001600160a01b0381168114620002ab57600080fd5b50565b60008060008060008060c08789031215620002c857600080fd5b8651620002d58162000295565b6020880151909650620002e88162000295565b6040880151909550620002fb8162000295565b60608801519094506200030e8162000295565b6080880151909350620003218162000295565b60a0880151909250620003348162000295565b809150509295509295509295565b634e487b7160e01b600052604160045260246000fd5b600181811c908216806200036d57607f821691505b6020821081036200038e57634e487b7160e01b600052602260045260246000fd5b50919050565b601f821115620003e257600081815260208120601f850160051c81016020861015620003bd5750805b601f850160051c820191505b81811015620003de57828155600101620003c9565b5050505b505050565b81516001600160401b0381111562000403576200040362000342565b6200041b8162000414845462000358565b8462000394565b602080601f8311600181146200045357600084156200043a5750858301515b600019600386901b1c1916600185901b178555620003de565b600085815260208120601f198616915b82811015620004845788860151825594840194600190910190840162000463565b5085821015620004a35787850151600019600388901b60f8161c191681555b5050505050600190811b01905550565b6000825160005b81811015620004d65760208186018101518583015201620004ba565b506000920191825250919050565b600060208284031215620004f757600080fd5b5051919050565b60805160a05160c05160e051610100516101205161014051610160516129f462000605600039600081816104b601528181610a4501528181610aca01528181610b650152818161135e015281816113e00152818161173f015281816118170152818161189901528181611a870152611bbd01526000818161073101526117da01526000818161069e01528181610c2c0152610cd50152600081816104dd01528181610cab01528181611b920152611c8a0152600061052a01526000818161077e015281816107c40152818161092c0152818161110c015281816119650152611ab901526000610a17015260008181610415015281816120ca015261217c01526129f46000f3fe608060405234801561001057600080fd5b506004361061030c5760003560e01c806370a082311161019d578063ba087652116100e9578063d905777e116100a2578063e319a3d91161007c578063e319a3d91461072c578063ef8b30f714610753578063f2fde38b14610766578063fcea5e291461077957600080fd5b8063d905777e146106c0578063dd62ed3e146106d3578063e0088d081461070c57600080fd5b8063ba0876521461064d578063bb9b55e314610660578063c63d75b61461044d578063c6e6f59214610673578063ce96cb7714610686578063d2effae01461069957600080fd5b806397a67a0311610156578063a9059cbb11610130578063a9059cbb146105f4578063b3aeff7b14610607578063b3d7f6b914610627578063b460af941461063a57600080fd5b806397a67a03146105c95780639a38d865146105dc578063a36d89f8146105eb57600080fd5b806370a082311461054c578063715018a6146105755780637ea253891461057d5780638da5cb5b1461059d57806394bf804d146105ae57806395d89b41146105c157600080fd5b806337f917841161025c5780635d98e992116102155780636aa050d0116101ef5780636aa050d0146104d85780636b174f35146104ff5780636e553f6514610512578063702958791461052557600080fd5b80635d98e992146104955780635db6aefc1461049e57806367e7f27c146104b157600080fd5b806337f917841461040057806338d52e0f14610413578063402d267d1461044d5780634051ff88146104625780634cdad50614610341578063583420a21461047557600080fd5b806318160ddd116102c957806323b872dd116102a357806323b872dd146103b75780632cbb0716146103ca578063313ce567146103d3578063318a6594146103ed57600080fd5b806318160ddd1461039f578063184f0e66146103a75780631d82a76b146103af57600080fd5b806301e1d1141461031157806306fdde031461032c57806307a2d13a14610341578063095ea7b3146103545780630a28a47714610377578063155dd5ee1461038a575b600080fd5b6103196107a0565b6040519081526020015b60405180910390f35b61033461083e565b6040516103239190612581565b61031961034f3660046125b4565b6108d0565b6103676103623660046125e2565b6108e3565b6040519015158152602001610323565b6103196103853660046125b4565b6108fb565b61039d6103983660046125b4565b610908565b005b600254610319565b610319600581565b600754610319565b6103676103c536600461260e565b6109e9565b610319600e5481565b6103db610a0f565b60405160ff9091168152602001610323565b6103196103fb3660046125b4565b610a3b565b61039d61040e3660046125b4565b610bea565b7f00000000000000000000000000000000000000000000000000000000000000005b6040516001600160a01b039091168152602001610323565b61031961045b36600461264f565b5060001990565b6103196104703660046125b4565b610bf7565b61031961048336600461264f565b600b6020526000908152604090205481565b610319600f5481565b61039d6104ac3660046125b4565b610c21565b6104357f000000000000000000000000000000000000000000000000000000000000000081565b6104357f000000000000000000000000000000000000000000000000000000000000000081565b61031961050d3660046125b4565b610dab565b61031961052036600461266c565b610f36565b6104357f000000000000000000000000000000000000000000000000000000000000000081565b61031961055a36600461264f565b6001600160a01b031660009081526020819052604090205490565b61039d610f54565b61031961058b36600461264f565b600a6020526000908152604090205481565b6006546001600160a01b0316610435565b6103196105bc36600461266c565b610f68565b610334610f86565b61039d6105d73660046125b4565b610f95565b61031967016345785d8a000081565b61031960075481565b6103676106023660046125e2565b610fa6565b6103196106153660046125b4565b600c6020526000908152604090205481565b6103196106353660046125b4565b610fb4565b61031961064836600461269c565b610fd7565b61031961065b36600461269c565b61102f565b61039d61066e3660046126de565b61107e565b6103196106813660046125b4565b6112ed565b61031961069436600461264f565b6112fa565b6104357f000000000000000000000000000000000000000000000000000000000000000081565b6103196106ce36600461264f565b61131e565b6103196106e1366004612700565b6001600160a01b03918216600090815260016020908152604080832093909416825291909152205490565b61031961071a36600461264f565b600d6020526000908152604090205481565b6104357f000000000000000000000000000000000000000000000000000000000000000081565b6103196107613660046125b4565b61133c565b61039d61077436600461264f565b61149a565b6104357f000000000000000000000000000000000000000000000000000000000000000081565b6007546040516370a0823160e01b8152306004820152600091906001600160a01b037f000000000000000000000000000000000000000000000000000000000000000016906370a0823190602401602060405180830381865afa15801561080b573d6000803e3d6000fd5b505050506040513d601f19601f8201168201806040525081019061082f919061272e565b610839919061275d565b905090565b60606003805461084d90612770565b80601f016020809104026020016040519081016040528092919081815260200182805461087990612770565b80156108c65780601f1061089b576101008083540402835291602001916108c6565b820191906000526020600020905b8154815290600101906020018083116108a957829003601f168201915b5050505050905090565b60006108dd8260006114d5565b92915050565b6000336108f181858561150f565b5060019392505050565b60006108dd826001611521565b610910611551565b60405163a9059cbb60e01b8152336004820152602481018290527f00000000000000000000000000000000000000000000000000000000000000006001600160a01b03169063a9059cbb906044016020604051808303816000875af115801561097d573d6000803e3d6000fd5b505050506040513d601f19601f820116820180604052508101906109a191906127aa565b6109e65760405162461bcd60e51b815260206004820152601160248201527015da5d1a191c985dd85b0819985a5b1959607a1b60448201526064015b60405180910390fd5b50565b6000336109f785828561157e565b610a028585856115e9565b60019150505b9392505050565b6000610839817f00000000000000000000000000000000000000000000000000000000000000006127cc565b60006108dd610b637f00000000000000000000000000000000000000000000000000000000000000006001600160a01b03166359c134036040518163ffffffff1660e01b8152600401602060405180830381865afa158015610aa1573d6000803e3d6000fd5b505050506040513d601f19601f82011682018060405250810190610ac5919061272e565b6127107f00000000000000000000000000000000000000000000000000000000000000006001600160a01b0316632d11c58a6040518163ffffffff1660e01b8152600401602060405180830381865afa158015610b26573d6000803e3d6000fd5b505050506040513d601f19601f82011682018060405250810190610b4a919061272e565b610b5490876127e5565b610b5e9190612812565b611648565b7f00000000000000000000000000000000000000000000000000000000000000006001600160a01b031663c2624e1e6040518163ffffffff1660e01b8152600401602060405180830381865afa158015610bc1573d6000803e3d6000fd5b505050506040513d601f19601f82011682018060405250810190610be5919061272e565b61165e565b610bf2611551565b600755565b600080610c08633b9aca00846127e5565b90506000610c1982620132a46127e5565b949350505050565b336001600160a01b037f00000000000000000000000000000000000000000000000000000000000000001614610ca95760405162461bcd60e51b815260206004820152602760248201527f53656e646572206d757374206265207468652043726f7373446f6d61696e4d6560448201526639b9b2b733b2b960c91b60648201526084016109dd565b7f00000000000000000000000000000000000000000000000000000000000000006001600160a01b03167f00000000000000000000000000000000000000000000000000000000000000006001600160a01b0316636e296e456040518163ffffffff1660e01b8152600401602060405180830381865afa158015610d31573d6000803e3d6000fd5b505050506040513d601f19601f82011682018060405250810190610d559190612826565b6001600160a01b031614610bf25760405162461bcd60e51b815260206004820152601e60248201527f52656d6f74652073656e646572206d75737420626520466c6f7869204c31000060448201526064016109dd565b336000818152600b60205260408120549091829190610dc9906112fa565b610dd39190612843565b905080831115610e315760405162461bcd60e51b8152602060048201526024808201527f726571756573746564207769746864726177616c20657863656564732062616c604482015263616e636560e01b60648201526084016109dd565b336000908152600d6020526040902054600511610e4d57600080fd5b33610e5960088261166d565b600e546040805133602080830182905282840194909452825180830384018152606090920183528151918401919091206000818152600c8552838120899055918252600b9093529081208054879290610eb390849061275d565b9091555050336000908152600d60205260408120805460019290610ed890849061275d565b9091555050600e5460405186815233907fac7630200ec7f15fb2d46077b05f9a6c57c69ff10b243b36d98aaf4665bc962c9060200160405180910390a36001600e6000828254610f28919061275d565b909155509495945050505050565b60006000196000610f468561133c565b9050610c19338587846116de565b610f5c611551565b610f666000611a1e565b565b60006000196000610f7885610fb4565b9050610c19338583886116de565b60606004805461084d90612770565b610f9d611551565b6109e681611a70565b6000336108f18185856115e9565b600080610fc083611ceb565b9050610fcd816032611cf8565b610a08908261275d565b600080610fe3836112fa565b90508085111561100c57828582604051633fa733bb60e21b81526004016109dd93929190612856565b6000611017866108fb565b90506110263386868985611d1d565b95945050505050565b60008061103b8361131e565b90508085111561106457828582604051632e52afbb60e21b81526004016109dd93929190612856565b600061106f866108d0565b9050611026338686848a611d1d565b611086611551565b6008546001600160801b03808216600160801b90920416036110ea5760405162461bcd60e51b815260206004820152601760248201527f4e6f207769746864726177616c7320696e20717565756500000000000000000060448201526064016109dd565b6040516370a0823160e01b815230600482015260009081906001600160a01b037f000000000000000000000000000000000000000000000000000000000000000016906370a0823190602401602060405180830381865afa158015611153573d6000803e3d6000fd5b505050506040513d601f19601f82011682018060405250810190611177919061272e565b600f549091506000805b838110801561118f57508585105b156112a5576008546001600160801b03808216600160801b90920416146112a55760006111bc6008611dca565b600f54604080516001600160a01b038416602080830182905282840194909452825180830384018152606090920183528151918401919091206000818152600c855283812054928152600a9094529183208054919c50939450849391928c929161122790849061275d565b9091555061123790508a8661275d565b6001600160a01b0383166000908152600b6020526040812080549297508c92909190611264908490612843565b925050819055506001600f600082825461127e919061275d565b9091555061128e90508a8561275d565b935061129b60018961275d565b9750505050611181565b50600f54604080518481526020810183905283917f79b59ced8da2d76b96a1e1ade405a5abfa380ad8a74613c64bdeff21beac4a78910160405180910390a250505050505050565b60006108dd826000611521565b6001600160a01b0381166000908152602081905260408120546108dd9060006114d5565b6001600160a01b0381166000908152602081905260408120546108dd565b60008061134a836032611e48565b905060006113588285612843565b905060007f00000000000000000000000000000000000000000000000000000000000000006001600160a01b03166366e64f976040518163ffffffff1660e01b8152600401602060405180830381865afa1580156113ba573d6000803e3d6000fd5b505050506040513d601f19601f820116820180604052508101906113de919061272e565b7f00000000000000000000000000000000000000000000000000000000000000006001600160a01b03166366e64f976040518163ffffffff1660e01b8152600401602060405180830381865afa15801561143c573d6000803e3d6000fd5b505050506040513d601f19601f82011682018060405250810190611460919061272e565b61146a9084612812565b61147491906127e5565b9050600061148182610a3b565b90506114906106818284612843565b9695505050505050565b6114a2611551565b6001600160a01b0381166114cc57604051631e4fbdf760e01b8152600060048201526024016109dd565b6109e681611a1e565b6000610a086114e26107a0565b6114ed90600161275d565b6114f96000600a61295b565b600254611506919061275d565b85919085611e6a565b61151c8383836001611eaf565b505050565b6000610a0861153182600a61295b565b60025461153e919061275d565b6115466107a0565b61150690600161275d565b6006546001600160a01b03163314610f665760405163118cdaa760e01b81523360048201526024016109dd565b6001600160a01b0383811660009081526001602090815260408083209386168352929052205460001981146115e357818110156115d457828183604051637dc7a0d960e11b81526004016109dd93929190612856565b6115e384848484036000611eaf565b50505050565b6001600160a01b03831661161357604051634b637e8f60e11b8152600060048201526024016109dd565b6001600160a01b03821661163d5760405163ec442f0560e01b8152600060048201526024016109dd565b61151c838383611f84565b60008183116116575781610a08565b5090919050565b60008183106116575781610a08565b81546001600160801b03600160801b8204811691811660018301909116036116a857604051638acb5f2760e01b815260040160405180910390fd5b6001600160801b03808216600090815260018086016020526040909120939093558354919092018216600160801b029116179055565b6116e661209b565b67016345785d8a0000821161173d5760405162461bcd60e51b815260206004820152601e60248201527f4d696e696d756d206465706f73697420616d6f756e74206e6f74206d6574000060448201526064016109dd565b7f00000000000000000000000000000000000000000000000000000000000000006001600160a01b0316635c975abb6040518163ffffffff1660e01b8152600401602060405180830381865afa15801561179b573d6000803e3d6000fd5b505050506040513d601f19601f820116820180604052508101906117bf91906127aa565b156117c957600080fd5b60006117d6836032611e48565b90507f0000000000000000000000000000000000000000000000000000000000000000611805868686866120c5565b60006118118386612843565b905060007f00000000000000000000000000000000000000000000000000000000000000006001600160a01b03166366e64f976040518163ffffffff1660e01b8152600401602060405180830381865afa158015611873573d6000803e3d6000fd5b505050506040513d601f19601f82011682018060405250810190611897919061272e565b7f00000000000000000000000000000000000000000000000000000000000000006001600160a01b03166366e64f976040518163ffffffff1660e01b8152600401602060405180830381865afa1580156118f5573d6000803e3d6000fd5b505050506040513d601f19601f82011682018060405250810190611919919061272e565b6119239084612812565b61192d91906127e5565b9050600061193b8284612843565b905060008511801561195657506001600160a01b0384163014155b15611a06576001600160a01b037f00000000000000000000000000000000000000000000000000000000000000001663a9059cbb85611995848961275d565b6040516001600160e01b031960e085901b1681526001600160a01b03909216600483015260248201526044016020604051808303816000875af11580156119e0573d6000803e3d6000fd5b505050506040513d601f19601f82011682018060405250810190611a0491906127aa565b505b611a0f82611a70565b50505050506115e36001600555565b600680546001600160a01b038381166001600160a01b0319831681179093556040519116919082907f8be0079c531659141344cd1fd0a4f28419497f9722a3daafe3b4186f6b6457e090600090a35050565b60405163095ea7b360e01b81526001600160a01b037f000000000000000000000000000000000000000000000000000000000000000081166004830152602482018390526000917f00000000000000000000000000000000000000000000000000000000000000009091169063095ea7b3906044016020604051808303816000875af1158015611b04573d6000803e3d6000fd5b505050506040513d601f19601f82011682018060405250810190611b2891906127aa565b905080611b695760405162461bcd60e51b815260206004820152600f60248201526e105c1c1c9bdd985b0819985a5b1959608a1b60448201526064016109dd565b6000611b7483610a3b565b6040516302e108e960e11b8152600481018590526001600160a01b037f0000000000000000000000000000000000000000000000000000000000000000811660248301529192507f0000000000000000000000000000000000000000000000000000000000000000909116906305c211d290604401600060405180830381600087803b158015611c0357600080fd5b505af1925050508015611c14575060015b611c605760405162461bcd60e51b815260206004820152601760248201527f4661696c656420746f206272696467652061737365747300000000000000000060448201526064016109dd565b611c6a8184612843565b60076000828254611c7b919061275d565b90915550506001600160a01b037f0000000000000000000000000000000000000000000000000000000000000000167f256851c1ea3542f6ae0d04732309f877e40571e62e03c013c70bdbb3a421b928611cd58386612843565b60405190815260200160405180910390a2505050565b60006108dd8260016114d5565b6000611d04601e610bf7565b611d1384846127106001611e6a565b610a08919061275d565b336000908152600a60205260409020548290811115611d905760405162461bcd60e51b815260206004820152602960248201527f4e6f7420656e6f7567682061737365747320756e6c6f636b656420666f7220776044820152681a5d1a191c985dd85b60ba1b60648201526084016109dd565b336000908152600a602052604081208054859290611daf908490612843565b90915550611dc290508686868686612149565b505050505050565b80546000906001600160801b0380821691600160801b9004168103611e02576040516375e52f4f60e01b815260040160405180910390fd5b6001600160801b038181166000908152600185810160205260408220805492905585546fffffffffffffffffffffffffffffffff19169301909116919091179092555090565b6000611e54601e610bf7565b611d1383611e646127108261275d565b86919060015b600080611e78868686612209565b9050611e83836122cd565b8015611e9f575060008480611e9a57611e9a6127fc565b868809115b156110265761149060018261275d565b6001600160a01b038416611ed95760405163e602df0560e01b8152600060048201526024016109dd565b6001600160a01b038316611f0357604051634a1406b160e11b8152600060048201526024016109dd565b6001600160a01b03808516600090815260016020908152604080832093871683529290522082905580156115e357826001600160a01b0316846001600160a01b03167f8c5be1e5ebec7d5bd14f71427d1e84f3dd0314c0f7b2291e5b200ac8c7c3b92584604051611f7691815260200190565b60405180910390a350505050565b6001600160a01b038316611faf578060026000828254611fa4919061275d565b9091555061200e9050565b6001600160a01b03831660009081526020819052604090205481811015611fef5783818360405163391434e360e21b81526004016109dd93929190612856565b6001600160a01b03841660009081526020819052604090209082900390555b6001600160a01b03821661202a57600280548290039055612049565b6001600160a01b03821660009081526020819052604090208054820190555b816001600160a01b0316836001600160a01b03167fddf252ad1be2c89b69c2b068fc378daa952ba7f163c4a11628f55a4df523b3ef8360405161208e91815260200190565b60405180910390a3505050565b6002600554036120be57604051633ee5aeb560e01b815260040160405180910390fd5b6002600555565b6120f17f00000000000000000000000000000000000000000000000000000000000000008530856122fa565b6120fb8382612361565b826001600160a01b0316846001600160a01b03167fdcbc1c05240f31ff3ad067ef1ee35ce4997762752e3a095284754544f4c709d78484604051611f76929190918252602082015260400190565b826001600160a01b0316856001600160a01b03161461216d5761216d83868361157e565b612177838261239b565b6121a27f000000000000000000000000000000000000000000000000000000000000000085846123d1565b826001600160a01b0316846001600160a01b0316866001600160a01b03167ffbde797d201c681b91056529119e0b02407c7bb96a4a2c75c01fc9667232c8db85856040516121fa929190918252602082015260400190565b60405180910390a45050505050565b600083830281600019858709828110838203039150508060000361224057838281612236576122366127fc565b0492505050610a08565b8084116122605760405163227bc15360e01b815260040160405180910390fd5b6000848688096000868103871696879004966002600389028118808a02820302808a02820302808a02820302808a02820302808a02820302808a02909103029181900381900460010186841190950394909402919094039290920491909117919091029150509392505050565b600060028260038111156122e3576122e361296a565b6122ed9190612980565b60ff166001149050919050565b6040516001600160a01b0384811660248301528381166044830152606482018390526115e39186918216906323b872dd906084015b604051602081830303815290604052915060e01b6020820180516001600160e01b038381831617835250505050612402565b6001600160a01b03821661238b5760405163ec442f0560e01b8152600060048201526024016109dd565b61239760008383611f84565b5050565b6001600160a01b0382166123c557604051634b637e8f60e11b8152600060048201526024016109dd565b61239782600083611f84565b6040516001600160a01b0383811660248301526044820183905261151c91859182169063a9059cbb9060640161232f565b60006124176001600160a01b03841683612465565b9050805160001415801561243c57508080602001905181019061243a91906127aa565b155b1561151c57604051635274afe760e01b81526001600160a01b03841660048201526024016109dd565b6060610a088383600084600080856001600160a01b0316848660405161248b91906129a2565b60006040518083038185875af1925050503d80600081146124c8576040519150601f19603f3d011682016040523d82523d6000602084013e6124cd565b606091505b50915091506114908683836060826124ed576124e882612534565b610a08565b815115801561250457506001600160a01b0384163b155b1561252d57604051639996b31560e01b81526001600160a01b03851660048201526024016109dd565b5080610a08565b8051156125445780518082602001fd5b604051630a12f52160e11b815260040160405180910390fd5b60005b83811015612578578181015183820152602001612560565b50506000910152565b60208152600082518060208401526125a081604085016020870161255d565b601f01601f19169190910160400192915050565b6000602082840312156125c657600080fd5b5035919050565b6001600160a01b03811681146109e657600080fd5b600080604083850312156125f557600080fd5b8235612600816125cd565b946020939093013593505050565b60008060006060848603121561262357600080fd5b833561262e816125cd565b9250602084013561263e816125cd565b929592945050506040919091013590565b60006020828403121561266157600080fd5b8135610a08816125cd565b6000806040838503121561267f57600080fd5b823591506020830135612691816125cd565b809150509250929050565b6000806000606084860312156126b157600080fd5b8335925060208401356126c3816125cd565b915060408401356126d3816125cd565b809150509250925092565b600080604083850312156126f157600080fd5b50508035926020909101359150565b6000806040838503121561271357600080fd5b823561271e816125cd565b91506020830135612691816125cd565b60006020828403121561274057600080fd5b5051919050565b634e487b7160e01b600052601160045260246000fd5b808201808211156108dd576108dd612747565b600181811c9082168061278457607f821691505b6020821081036127a457634e487b7160e01b600052602260045260246000fd5b50919050565b6000602082840312156127bc57600080fd5b81518015158114610a0857600080fd5b60ff81811683821601908111156108dd576108dd612747565b80820281158282048414176108dd576108dd612747565b634e487b7160e01b600052601260045260246000fd5b600082612821576128216127fc565b500490565b60006020828403121561283857600080fd5b8151610a08816125cd565b818103818111156108dd576108dd612747565b6001600160a01b039390931683526020830191909152604082015260600190565b600181815b808511156128b257816000190482111561289857612898612747565b808516156128a557918102915b93841c939080029061287c565b509250929050565b6000826128c9575060016108dd565b816128d6575060006108dd565b81600181146128ec57600281146128f657612912565b60019150506108dd565b60ff84111561290757612907612747565b50506001821b6108dd565b5060208310610133831016604e8410600b8410161715612935575081810a6108dd565b61293f8383612877565b806000190482111561295357612953612747565b029392505050565b6000610a0860ff8416836128ba565b634e487b7160e01b600052602160045260246000fd5b600060ff831680612993576129936127fc565b8060ff84160691505092915050565b600082516129b481846020870161255d565b919091019291505056fea264697066735822122064ccee3e9f2080d78c29c9679f3394592f72ce93d5335c7b3ad037f2c30e167864736f6c63430008140033",
  "devdoc": {
    "details": "ERC4626 vault that handles deposits, minting, and bridging of ERC20 tokens to another chain.  Fees expressed in basis points (bp).",
    "errors": {
      "AddressEmptyCode(address)": [
        {
          "details": "There's no code at `target` (it is not a contract)."
        }
      ],
      "AddressInsufficientBalance(address)": [
        {
          "details": "The ETH balance of the account is not enough to perform the operation."
        }
      ],
      "ERC20InsufficientAllowance(address,uint256,uint256)": [
        {
          "details": "Indicates a failure with the `spender`s `allowance`. Used in transfers.",
          "params": {
            "allowance": "Amount of tokens a `spender` is allowed to operate with.",
            "needed": "Minimum amount required to perform a transfer.",
            "spender": "Address that may be allowed to operate on tokens without being their owner."
          }
        }
      ],
      "ERC20InsufficientBalance(address,uint256,uint256)": [
        {
          "details": "Indicates an error related to the current `balance` of a `sender`. Used in transfers.",
          "params": {
            "balance": "Current balance for the interacting account.",
            "needed": "Minimum amount required to perform a transfer.",
            "sender": "Address whose tokens are being transferred."
          }
        }
      ],
      "ERC20InvalidApprover(address)": [
        {
          "details": "Indicates a failure with the `approver` of a token to be approved. Used in approvals.",
          "params": {
            "approver": "Address initiating an approval operation."
          }
        }
      ],
      "ERC20InvalidReceiver(address)": [
        {
          "details": "Indicates a failure with the token `receiver`. Used in transfers.",
          "params": {
            "receiver": "Address to which tokens are being transferred."
          }
        }
      ],
      "ERC20InvalidSender(address)": [
        {
          "details": "Indicates a failure with the token `sender`. Used in transfers.",
          "params": {
            "sender": "Address whose tokens are being transferred."
          }
        }
      ],
      "ERC20InvalidSpender(address)": [
        {
          "details": "Indicates a failure with the `spender` to be approved. Used in approvals.",
          "params": {
            "spender": "Address that may be allowed to operate on tokens without being their owner."
          }
        }
      ],
      "ERC4626ExceededMaxDeposit(address,uint256,uint256)": [
        {
          "details": "Attempted to deposit more assets than the max amount for `receiver`."
        }
      ],
      "ERC4626ExceededMaxMint(address,uint256,uint256)": [
        {
          "details": "Attempted to mint more shares than the max amount for `receiver`."
        }
      ],
      "ERC4626ExceededMaxRedeem(address,uint256,uint256)": [
        {
          "details": "Attempted to redeem more shares than the max amount for `receiver`."
        }
      ],
      "ERC4626ExceededMaxWithdraw(address,uint256,uint256)": [
        {
          "details": "Attempted to withdraw more assets than the max amount for `receiver`."
        }
      ],
      "FailedInnerCall()": [
        {
          "details": "A call to an address target failed. The target may have reverted."
        }
      ],
      "MathOverflowedMulDiv()": [
        {
          "details": "Muldiv operation overflow."
        }
      ],
      "OwnableInvalidOwner(address)": [
        {
          "details": "The owner is not a valid owner account. (eg. `address(0)`)"
        }
      ],
      "OwnableUnauthorizedAccount(address)": [
        {
          "details": "The caller account is not authorized to perform an operation."
        }
      ],
      "QueueEmpty()": [
        {
          "details": "An operation (e.g. {front}) couldn't be completed due to the queue being empty."
        }
      ],
      "QueueFull()": [
        {
          "details": "A push operation couldn't be completed due to the queue being full."
        }
      ],
      "ReentrancyGuardReentrantCall()": [
        {
          "details": "Unauthorized reentrant call."
        }
      ],
      "SafeERC20FailedOperation(address)": [
        {
          "details": "An operation with an ERC20 token failed."
        }
      ]
    },
    "events": {
      "Approval(address,address,uint256)": {
        "details": "Emitted when the allowance of a `spender` for an `owner` is set by a call to {approve}. `value` is the new allowance."
      },
      "Transfer(address,address,uint256)": {
        "details": "Emitted when `value` tokens are moved from one account (`from`) to another (`to`). Note that `value` may be zero."
      }
    },
    "kind": "dev",
    "methods": {
      "allowance(address,address)": {
        "details": "See {IERC20-allowance}."
      },
      "approve(address,uint256)": {
        "details": "See {IERC20-approve}. NOTE: If `value` is the maximum `uint256`, the allowance is not updated on `transferFrom`. This is semantically equivalent to an infinite approval. Requirements: - `spender` cannot be the zero address."
      },
      "asset()": {
        "details": "See {IERC4626-asset}. "
      },
      "balanceOf(address)": {
        "details": "See {IERC20-balanceOf}."
      },
      "calculateL1GasFeeInWei(uint256)": {
        "details": "Calculates the fee in wei based on a given gas price in gwei. Used as estimate for L1 transaction fees which are not charged by the bridgecontract  (i.e. claiming from bridge contract and depositing into L1 strategy)",
        "params": {
          "gasPriceGwei": "The gas price in gwei."
        },
        "returns": {
          "_0": "The estimated fee in wei."
        }
      },
      "convertToAssets(uint256)": {
        "details": "See {IERC4626-convertToAssets}. "
      },
      "convertToShares(uint256)": {
        "details": "See {IERC4626-convertToShares}. "
      },
      "decimals()": {
        "details": "Decimals are computed by adding the decimal offset on top of the underlying asset's decimals. This \"original\" value is cached during construction of the vault contract. If this read operation fails (e.g., the asset has not been created yet), a default of 18 is used to represent the underlying asset's decimals. See {IERC20Metadata-decimals}."
      },
      "deposit(uint256,address)": {
        "details": "See {IERC4626-deposit}. "
      },
      "getL1Assets()": {
        "details": "Convenience function to see L1 assets managed by this vault.",
        "returns": {
          "_0": "L1 assets managed by this vault."
        }
      },
      "maxDeposit(address)": {
        "details": "See {IERC4626-maxDeposit}. "
      },
      "maxMint(address)": {
        "details": "See {IERC4626-maxMint}. "
      },
      "maxRedeem(address)": {
        "details": "See {IERC4626-maxRedeem}. "
      },
      "maxWithdraw(address)": {
        "details": "See {IERC4626-maxWithdraw}. "
      },
      "mint(uint256,address)": {
        "details": "See {IERC4626-mint}. As opposed to {deposit}, minting is allowed even if the vault is in a state where the price of a share is zero. In this case, the shares will be minted without requiring any assets to be deposited."
      },
      "name()": {
        "details": "Returns the name of the token."
      },
      "owner()": {
        "details": "Returns the address of the current owner."
      },
      "previewDeposit(uint256)": {
        "details": "Preview taking an entry fee on deposit. Overrides {IERC4626-previewDeposit}.",
        "params": {
          "assets": "The amount of assets to deposit."
        },
        "returns": {
          "_0": "The number of shares corresponding to the deposited assets after fees."
        }
      },
      "previewMint(uint256)": {
        "details": "Preview adding an entry fee on mint. Overrides {IERC4626-previewMint}.",
        "params": {
          "shares": "The number of shares to mint."
        },
        "returns": {
          "_0": "The number of assets required to mint the shares, including fees."
        }
      },
      "previewRedeem(uint256)": {
        "details": "See {IERC4626-previewRedeem}. "
      },
      "previewWithdraw(uint256)": {
        "details": "See {IERC4626-previewWithdraw}. "
      },
      "redeem(uint256,address,address)": {
        "details": "See {IERC4626-redeem}. "
      },
      "renounceOwnership()": {
        "details": "Leaves the contract without owner. It will not be possible to call `onlyOwner` functions. Can only be called by the current owner. NOTE: Renouncing ownership will leave the contract without an owner, thereby disabling any functionality that is only available to the owner."
      },
      "symbol()": {
        "details": "Returns the symbol of the token, usually a shorter version of the name."
      },
      "totalAssets()": {
        "details": "Overrides {IERC4626-totalAssets} to include assets on L1.",
        "returns": {
          "_0": "The total assets managed by this vault."
        }
      },
      "totalSupply()": {
        "details": "See {IERC20-totalSupply}."
      },
      "transfer(address,uint256)": {
        "details": "See {IERC20-transfer}. Requirements: - `to` cannot be the zero address. - the caller must have a balance of at least `value`."
      },
      "transferFrom(address,address,uint256)": {
        "details": "See {IERC20-transferFrom}. Emits an {Approval} event indicating the updated allowance. This is not required by the EIP. See the note at the beginning of {ERC20}. NOTE: Does not update the allowance if the current allowance is the maximum `uint256`. Requirements: - `from` and `to` cannot be the zero address. - `from` must have a balance of at least `value`. - the caller must have allowance for ``from``'s tokens of at least `value`."
      },
      "transferOwnership(address)": {
        "details": "Transfers ownership of the contract to a new account (`newOwner`). Can only be called by the current owner."
      },
      "withdraw(uint256,address,address)": {
        "details": "See {IERC4626-withdraw}. "
      }
    },
    "title": "FloxiSfrxEth",
    "version": 1
  },
  "userdoc": {
    "kind": "user",
    "methods": {},
    "version": 1
  },
  "storageLayout": {
    "storage": [
      {
        "astId": 477,
        "contract": "contracts/FloxiSfrxEth.sol:FloxiSfrxEth",
        "label": "_balances",
        "offset": 0,
        "slot": "0",
        "type": "t_mapping(t_address,t_uint256)"
      },
      {
        "astId": 483,
        "contract": "contracts/FloxiSfrxEth.sol:FloxiSfrxEth",
        "label": "_allowances",
        "offset": 0,
        "slot": "1",
        "type": "t_mapping(t_address,t_mapping(t_address,t_uint256))"
      },
      {
        "astId": 485,
        "contract": "contracts/FloxiSfrxEth.sol:FloxiSfrxEth",
        "label": "_totalSupply",
        "offset": 0,
        "slot": "2",
        "type": "t_uint256"
      },
      {
        "astId": 487,
        "contract": "contracts/FloxiSfrxEth.sol:FloxiSfrxEth",
        "label": "_name",
        "offset": 0,
        "slot": "3",
        "type": "t_string_storage"
      },
      {
        "astId": 489,
        "contract": "contracts/FloxiSfrxEth.sol:FloxiSfrxEth",
        "label": "_symbol",
        "offset": 0,
        "slot": "4",
        "type": "t_string_storage"
      },
      {
        "astId": 2378,
        "contract": "contracts/FloxiSfrxEth.sol:FloxiSfrxEth",
        "label": "_status",
        "offset": 0,
        "slot": "5",
        "type": "t_uint256"
      },
      {
        "astId": 8,
        "contract": "contracts/FloxiSfrxEth.sol:FloxiSfrxEth",
        "label": "_owner",
        "offset": 0,
        "slot": "6",
        "type": "t_address"
      },
      {
        "astId": 4005,
        "contract": "contracts/FloxiSfrxEth.sol:FloxiSfrxEth",
        "label": "_l1Assets",
        "offset": 0,
        "slot": "7",
        "type": "t_uint256"
      },
      {
        "astId": 4008,
        "contract": "contracts/FloxiSfrxEth.sol:FloxiSfrxEth",
        "label": "_withdrawalQueue",
        "offset": 0,
        "slot": "8",
        "type": "t_struct(Bytes32Deque)3512_storage"
      },
      {
        "astId": 4012,
        "contract": "contracts/FloxiSfrxEth.sol:FloxiSfrxEth",
        "label": "_unlockedAssets",
        "offset": 0,
        "slot": "10",
        "type": "t_mapping(t_address,t_uint256)"
      },
      {
        "astId": 4016,
        "contract": "contracts/FloxiSfrxEth.sol:FloxiSfrxEth",
        "label": "_queuedAssets",
        "offset": 0,
        "slot": "11",
        "type": "t_mapping(t_address,t_uint256)"
      },
      {
        "astId": 4020,
        "contract": "contracts/FloxiSfrxEth.sol:FloxiSfrxEth",
        "label": "_queuedWithdrawals",
        "offset": 0,
        "slot": "12",
        "type": "t_mapping(t_bytes32,t_uint256)"
      },
      {
        "astId": 4024,
        "contract": "contracts/FloxiSfrxEth.sol:FloxiSfrxEth",
        "label": "_activeWithdrawalsCount",
        "offset": 0,
        "slot": "13",
        "type": "t_mapping(t_address,t_uint256)"
      },
      {
        "astId": 4026,
        "contract": "contracts/FloxiSfrxEth.sol:FloxiSfrxEth",
        "label": "_withdrawalNonce",
        "offset": 0,
        "slot": "14",
        "type": "t_uint256"
      },
      {
        "astId": 4028,
        "contract": "contracts/FloxiSfrxEth.sol:FloxiSfrxEth",
        "label": "_unlockNonce",
        "offset": 0,
        "slot": "15",
        "type": "t_uint256"
      }
    ],
    "types": {
      "t_address": {
        "encoding": "inplace",
        "label": "address",
        "numberOfBytes": "20"
      },
      "t_bytes32": {
        "encoding": "inplace",
        "label": "bytes32",
        "numberOfBytes": "32"
      },
      "t_mapping(t_address,t_mapping(t_address,t_uint256))": {
        "encoding": "mapping",
        "key": "t_address",
        "label": "mapping(address => mapping(address => uint256))",
        "numberOfBytes": "32",
        "value": "t_mapping(t_address,t_uint256)"
      },
      "t_mapping(t_address,t_uint256)": {
        "encoding": "mapping",
        "key": "t_address",
        "label": "mapping(address => uint256)",
        "numberOfBytes": "32",
        "value": "t_uint256"
      },
      "t_mapping(t_bytes32,t_uint256)": {
        "encoding": "mapping",
        "key": "t_bytes32",
        "label": "mapping(bytes32 => uint256)",
        "numberOfBytes": "32",
        "value": "t_uint256"
      },
      "t_mapping(t_uint128,t_bytes32)": {
        "encoding": "mapping",
        "key": "t_uint128",
        "label": "mapping(uint128 => bytes32)",
        "numberOfBytes": "32",
        "value": "t_bytes32"
      },
      "t_string_storage": {
        "encoding": "bytes",
        "label": "string",
        "numberOfBytes": "32"
      },
      "t_struct(Bytes32Deque)3512_storage": {
        "encoding": "inplace",
        "label": "struct DoubleEndedQueue.Bytes32Deque",
        "members": [
          {
            "astId": 3505,
            "contract": "contracts/FloxiSfrxEth.sol:FloxiSfrxEth",
            "label": "_begin",
            "offset": 0,
            "slot": "0",
            "type": "t_uint128"
          },
          {
            "astId": 3507,
            "contract": "contracts/FloxiSfrxEth.sol:FloxiSfrxEth",
            "label": "_end",
            "offset": 16,
            "slot": "0",
            "type": "t_uint128"
          },
          {
            "astId": 3511,
            "contract": "contracts/FloxiSfrxEth.sol:FloxiSfrxEth",
            "label": "_data",
            "offset": 0,
            "slot": "1",
            "type": "t_mapping(t_uint128,t_bytes32)"
          }
        ],
        "numberOfBytes": "64"
      },
      "t_uint128": {
        "encoding": "inplace",
        "label": "uint128",
        "numberOfBytes": "16"
      },
      "t_uint256": {
        "encoding": "inplace",
        "label": "uint256",
        "numberOfBytes": "32"
      }
    }
  }
}