{
  "address": "0x7443eF74594004763574d30C0DEc8DbD2F3241af",
  "abi": [
    {
      "inputs": [
        {
          "internalType": "contract IERC20",
          "name": "asset_",
          "type": "address"
        }
      ],
      "stateMutability": "nonpayable",
      "type": "constructor"
    },
    {
      "inputs": [
        {
          "internalType": "address",
          "name": "owner",
          "type": "address"
        }
      ],
      "name": "OwnableInvalidOwner",
      "type": "error"
    },
    {
      "inputs": [
        {
          "internalType": "address",
          "name": "account",
          "type": "address"
        }
      ],
      "name": "OwnableUnauthorizedAccount",
      "type": "error"
    },
    {
      "anonymous": false,
      "inputs": [
        {
          "indexed": false,
          "internalType": "uint256",
          "name": "batchNo",
          "type": "uint256"
        },
        {
          "indexed": false,
          "internalType": "uint256",
          "name": "start",
          "type": "uint256"
        },
        {
          "indexed": false,
          "internalType": "uint256",
          "name": "end",
          "type": "uint256"
        },
        {
          "indexed": false,
          "internalType": "bytes32",
          "name": "hash",
          "type": "bytes32"
        }
      ],
      "name": "Depart",
      "type": "event"
    },
    {
      "anonymous": false,
      "inputs": [
        {
          "indexed": true,
          "internalType": "address",
          "name": "sender",
          "type": "address"
        },
        {
          "indexed": false,
          "internalType": "uint256",
          "name": "index",
          "type": "uint256"
        },
        {
          "indexed": false,
          "internalType": "uint256",
          "name": "amount",
          "type": "uint256"
        },
        {
          "indexed": false,
          "internalType": "uint256",
          "name": "amountAfterFee",
          "type": "uint256"
        },
        {
          "indexed": false,
          "internalType": "uint256",
          "name": "timestamp",
          "type": "uint256"
        }
      ],
      "name": "Embark",
      "type": "event"
    },
    {
      "anonymous": false,
      "inputs": [
        {
          "indexed": true,
          "internalType": "address",
          "name": "previousOwner",
          "type": "address"
        },
        {
          "indexed": true,
          "internalType": "address",
          "name": "newOwner",
          "type": "address"
        }
      ],
      "name": "OwnershipTransferred",
      "type": "event"
    },
    {
      "inputs": [],
      "name": "FEE_MAX",
      "outputs": [
        {
          "internalType": "uint256",
          "name": "",
          "type": "uint256"
        }
      ],
      "stateMutability": "view",
      "type": "function"
    },
    {
      "inputs": [],
      "name": "FEE_MIN",
      "outputs": [
        {
          "internalType": "uint256",
          "name": "",
          "type": "uint256"
        }
      ],
      "stateMutability": "view",
      "type": "function"
    },
    {
      "inputs": [],
      "name": "FEE_RATE",
      "outputs": [
        {
          "internalType": "uint256",
          "name": "",
          "type": "uint256"
        }
      ],
      "stateMutability": "view",
      "type": "function"
    },
    {
      "inputs": [],
      "name": "MIN_WAIT_PERIOD_ADD",
      "outputs": [
        {
          "internalType": "uint256",
          "name": "",
          "type": "uint256"
        }
      ],
      "stateMutability": "view",
      "type": "function"
    },
    {
      "inputs": [],
      "name": "MIN_WAIT_PERIOD_EXECUTE",
      "outputs": [
        {
          "internalType": "uint256",
          "name": "",
          "type": "uint256"
        }
      ],
      "stateMutability": "view",
      "type": "function"
    },
    {
      "inputs": [],
      "name": "REDUCED_DECIMALS",
      "outputs": [
        {
          "internalType": "uint256",
          "name": "",
          "type": "uint256"
        }
      ],
      "stateMutability": "view",
      "type": "function"
    },
    {
      "inputs": [
        {
          "internalType": "uint256",
          "name": "amount",
          "type": "uint256"
        }
      ],
      "name": "calculateFee",
      "outputs": [
        {
          "internalType": "uint256",
          "name": "",
          "type": "uint256"
        }
      ],
      "stateMutability": "pure",
      "type": "function"
    },
    {
      "inputs": [
        {
          "internalType": "uint256",
          "name": "amount",
          "type": "uint256"
        },
        {
          "internalType": "address",
          "name": "recipient",
          "type": "address"
        }
      ],
      "name": "embarkWithRecipient",
      "outputs": [],
      "stateMutability": "nonpayable",
      "type": "function"
    },
    {
      "inputs": [],
      "name": "emitDepart",
      "outputs": [],
      "stateMutability": "nonpayable",
      "type": "function"
    },
    {
      "inputs": [],
      "name": "emitEmbark",
      "outputs": [],
      "stateMutability": "nonpayable",
      "type": "function"
    },
    {
      "inputs": [],
      "name": "owner",
      "outputs": [
        {
          "internalType": "address",
          "name": "",
          "type": "address"
        }
      ],
      "stateMutability": "view",
      "type": "function"
    },
    {
      "inputs": [],
      "name": "paused",
      "outputs": [
        {
          "internalType": "bool",
          "name": "",
          "type": "bool"
        }
      ],
      "stateMutability": "pure",
      "type": "function"
    },
    {
      "inputs": [],
      "name": "renounceOwnership",
      "outputs": [],
      "stateMutability": "nonpayable",
      "type": "function"
    },
    {
      "inputs": [
        {
          "internalType": "address",
          "name": "newOwner",
          "type": "address"
        }
      ],
      "name": "transferOwnership",
      "outputs": [],
      "stateMutability": "nonpayable",
      "type": "function"
    },
    {
      "inputs": [
        {
          "internalType": "uint256",
          "name": "amount",
          "type": "uint256"
        }
      ],
      "name": "withdraw",
      "outputs": [],
      "stateMutability": "nonpayable",
      "type": "function"
    }
  ],
  "transactionHash": "0x93e68da3937454657de792d13081ea355b0d94f3c65fb62d86907aebd0955eab",
  "args": [
    "0xfc00000000000000000000000000000000000005"
  ],
  "numDeployments": 1,
  "solcInputHash": "15c9b36d1d775bef3a450600c584bed4",
  "bytecode": "0x6080604052610e10600255620135606003556000600455662386f26fc10000600555662386f26fc1000060065534801561003857600080fd5b506040516108aa3803806108aa833981016040819052610057916100fc565b338061007d57604051631e4fbdf760e01b81526000600482015260240160405180910390fd5b610086816100ac565b50600180546001600160a01b0319166001600160a01b039290921691909117905561012c565b600080546001600160a01b038381166001600160a01b0319831681178455604051919092169283917f8be0079c531659141344cd1fd0a4f28419497f9722a3daafe3b4186f6b6457e09190a35050565b60006020828403121561010e57600080fd5b81516001600160a01b038116811461012557600080fd5b9392505050565b61076f8061013b6000396000f3fe608060405234801561001057600080fd5b50600436106100f55760003560e01c806366e64f97116100975780638da5cb5b116100665780638da5cb5b1461018c57806399a5d747146101a7578063c2624e1e146101ba578063f2fde38b146101c357600080fd5b806366e64f9714610168578063715018a614610174578063778cf4c61461017c5780637c1297861461018457600080fd5b80632e1a7d4d116100d35780632e1a7d4d1461013457806333032dd01461014757806359c13403146101505780635c975abb1461015957600080fd5b8063024faa8c146100fa57806305c211d2146101165780632d11c58a1461012b575b600080fd5b61010360035481565b6040519081526020015b60405180910390f35b61012961012436600461064e565b6101d6565b005b61010360045481565b61012961014236600461067a565b610391565b61010360025481565b61010360055481565b6040516000815260200161010d565b6101036402540be40081565b610129610451565b610129610465565b6101296104bf565b6000546040516001600160a01b03909116815260200161010d565b6101036101b536600461067a565b61055b565b61010360065481565b6101296101d1366004610693565b61057a565b6001546040516323b872dd60e01b8152336004820152306024820152604481018490526001600160a01b03909116906323b872dd906064016020604051808303816000875af115801561022d573d6000803e3d6000fd5b505050506040513d601f19601f8201168201806040525081019061025191906106b5565b6102945760405162461bcd60e51b815260206004820152600f60248201526e151c985b9cd9995c8819985a5b1959608a1b60448201526064015b60405180910390fd5b600061029f8361055b565b6102a990846106ed565b60408051600181526020810186905290810182905242606082015290915033907f0250c838bae2cda1e214f0925d41846180714450539039d6fd90a4121d98738e9060800160405180910390a27fe078fb854f34cd8ca5f749fe2e680b692ef7df5e057026369a30c8965a3219ca43600060024333866040516020016103549392919092835260609190911b6bffffffffffffffffffffffff19166020830152603482015260540190565b60408051601f19818403018152828252805160209182012095835282019390935291820152606081019190915260800160405180910390a1505050565b6103996105b5565b60015460405163a9059cbb60e01b8152336004820152602481018390526001600160a01b039091169063a9059cbb906044016020604051808303816000875af11580156103ea573d6000803e3d6000fd5b505050506040513d601f19601f8201168201806040525081019061040e91906106b5565b61044e5760405162461bcd60e51b815260206004820152601160248201527015da5d1a191c985dd85b0819985a5b1959607a1b604482015260640161028b565b50565b6104596105b5565b61046360006105e2565b565b61046d6105b5565b60408051600181526305f5e1006020820152633b9aca0081830152426060820152905133917f0250c838bae2cda1e214f0925d41846180714450539039d6fd90a4121d98738e919081900360800190a2565b6104c76105b5565b604080514360208083018290523360601b6bffffffffffffffffffffffff1916838501526509184e72a00060548085018290528551808603909101815260748501808752815191909301209290915260006094840152600260b484015260d483019190915291517fe078fb854f34cd8ca5f749fe2e680b692ef7df5e057026369a30c8965a3219ca9181900360f40190a150565b6000606461056a836001610700565b6105749190610717565b92915050565b6105826105b5565b6001600160a01b0381166105ac57604051631e4fbdf760e01b81526000600482015260240161028b565b61044e816105e2565b6000546001600160a01b031633146104635760405163118cdaa760e01b815233600482015260240161028b565b600080546001600160a01b038381166001600160a01b0319831681178455604051919092169283917f8be0079c531659141344cd1fd0a4f28419497f9722a3daafe3b4186f6b6457e09190a35050565b80356001600160a01b038116811461064957600080fd5b919050565b6000806040838503121561066157600080fd5b8235915061067160208401610632565b90509250929050565b60006020828403121561068c57600080fd5b5035919050565b6000602082840312156106a557600080fd5b6106ae82610632565b9392505050565b6000602082840312156106c757600080fd5b815180151581146106ae57600080fd5b634e487b7160e01b600052601160045260246000fd5b81810381811115610574576105746106d7565b8082028115828204841417610574576105746106d7565b60008261073457634e487b7160e01b600052601260045260246000fd5b50049056fea264697066735822122032684cf034f454e243ee8034718e5861259a25f4d2111ae9e2c4db4fa58cda9564736f6c63430008140033",
  "devdoc": {
    "errors": {
      "OwnableInvalidOwner(address)": [
        {
          "details": "The owner is not a valid owner account. (eg. `address(0)`)"
        }
      ],
      "OwnableUnauthorizedAccount(address)": [
        {
          "details": "The caller account is not authorized to perform an operation."
        }
      ]
    },
    "kind": "dev",
    "methods": {
      "owner()": {
        "details": "Returns the address of the current owner."
      },
      "renounceOwnership()": {
        "details": "Leaves the contract without owner. It will not be possible to call `onlyOwner` functions. Can only be called by the current owner. NOTE: Renouncing ownership will leave the contract without an owner, thereby disabling any functionality that is only available to the owner."
      },
      "transferOwnership(address)": {
        "details": "Transfers ownership of the contract to a new account (`newOwner`). Can only be called by the current owner."
      }
    },
    "version": 1
  },
  "userdoc": {
    "kind": "user",
    "methods": {},
    "version": 1
  },
  "storageLayout": {
    "storage": [
      {
        "astId": 8,
        "contract": "contracts/FraxFerryMockL2.sol:FraxFerryMockL2",
        "label": "_owner",
        "offset": 0,
        "slot": "0",
        "type": "t_address"
      },
      {
        "astId": 4796,
        "contract": "contracts/FraxFerryMockL2.sol:FraxFerryMockL2",
        "label": "_asset",
        "offset": 0,
        "slot": "1",
        "type": "t_contract(IERC20)1047"
      },
      {
        "astId": 4821,
        "contract": "contracts/FraxFerryMockL2.sol:FraxFerryMockL2",
        "label": "MIN_WAIT_PERIOD_ADD",
        "offset": 0,
        "slot": "2",
        "type": "t_uint256"
      },
      {
        "astId": 4824,
        "contract": "contracts/FraxFerryMockL2.sol:FraxFerryMockL2",
        "label": "MIN_WAIT_PERIOD_EXECUTE",
        "offset": 0,
        "slot": "3",
        "type": "t_uint256"
      },
      {
        "astId": 4827,
        "contract": "contracts/FraxFerryMockL2.sol:FraxFerryMockL2",
        "label": "FEE_RATE",
        "offset": 0,
        "slot": "4",
        "type": "t_uint256"
      },
      {
        "astId": 4832,
        "contract": "contracts/FraxFerryMockL2.sol:FraxFerryMockL2",
        "label": "FEE_MIN",
        "offset": 0,
        "slot": "5",
        "type": "t_uint256"
      },
      {
        "astId": 4837,
        "contract": "contracts/FraxFerryMockL2.sol:FraxFerryMockL2",
        "label": "FEE_MAX",
        "offset": 0,
        "slot": "6",
        "type": "t_uint256"
      }
    ],
    "types": {
      "t_address": {
        "encoding": "inplace",
        "label": "address",
        "numberOfBytes": "20"
      },
      "t_contract(IERC20)1047": {
        "encoding": "inplace",
        "label": "contract IERC20",
        "numberOfBytes": "20"
      },
      "t_uint256": {
        "encoding": "inplace",
        "label": "uint256",
        "numberOfBytes": "32"
      }
    }
  }
}