{
  "address": "0x1794Be9dFEdF17619386fE69C756448f9cF64734",
  "abi": [
    {
      "inputs": [
        {
          "internalType": "contract IERC20",
          "name": "asset_",
          "type": "address"
        }
      ],
      "stateMutability": "nonpayable",
      "type": "constructor"
    },
    {
      "inputs": [
        {
          "internalType": "address",
          "name": "owner",
          "type": "address"
        }
      ],
      "name": "OwnableInvalidOwner",
      "type": "error"
    },
    {
      "inputs": [
        {
          "internalType": "address",
          "name": "account",
          "type": "address"
        }
      ],
      "name": "OwnableUnauthorizedAccount",
      "type": "error"
    },
    {
      "anonymous": false,
      "inputs": [
        {
          "indexed": false,
          "internalType": "uint256",
          "name": "batchNo",
          "type": "uint256"
        },
        {
          "indexed": false,
          "internalType": "uint256",
          "name": "start",
          "type": "uint256"
        },
        {
          "indexed": false,
          "internalType": "uint256",
          "name": "end",
          "type": "uint256"
        },
        {
          "indexed": false,
          "internalType": "bytes32",
          "name": "hash",
          "type": "bytes32"
        }
      ],
      "name": "Depart",
      "type": "event"
    },
    {
      "anonymous": false,
      "inputs": [
        {
          "indexed": true,
          "internalType": "address",
          "name": "sender",
          "type": "address"
        },
        {
          "indexed": false,
          "internalType": "uint256",
          "name": "index",
          "type": "uint256"
        },
        {
          "indexed": false,
          "internalType": "uint256",
          "name": "amount",
          "type": "uint256"
        },
        {
          "indexed": false,
          "internalType": "uint256",
          "name": "amountAfterFee",
          "type": "uint256"
        },
        {
          "indexed": false,
          "internalType": "uint256",
          "name": "timestamp",
          "type": "uint256"
        }
      ],
      "name": "Embark",
      "type": "event"
    },
    {
      "anonymous": false,
      "inputs": [
        {
          "indexed": true,
          "internalType": "address",
          "name": "previousOwner",
          "type": "address"
        },
        {
          "indexed": true,
          "internalType": "address",
          "name": "newOwner",
          "type": "address"
        }
      ],
      "name": "OwnershipTransferred",
      "type": "event"
    },
    {
      "inputs": [
        {
          "internalType": "uint256",
          "name": "amount",
          "type": "uint256"
        }
      ],
      "name": "calculateFee",
      "outputs": [
        {
          "internalType": "uint256",
          "name": "",
          "type": "uint256"
        }
      ],
      "stateMutability": "pure",
      "type": "function"
    },
    {
      "inputs": [
        {
          "internalType": "uint256",
          "name": "amount",
          "type": "uint256"
        },
        {
          "internalType": "address",
          "name": "recipient",
          "type": "address"
        }
      ],
      "name": "embarkWithRecipient",
      "outputs": [],
      "stateMutability": "nonpayable",
      "type": "function"
    },
    {
      "inputs": [],
      "name": "emitDepart",
      "outputs": [],
      "stateMutability": "nonpayable",
      "type": "function"
    },
    {
      "inputs": [],
      "name": "emitEmbark",
      "outputs": [],
      "stateMutability": "nonpayable",
      "type": "function"
    },
    {
      "inputs": [],
      "name": "owner",
      "outputs": [
        {
          "internalType": "address",
          "name": "",
          "type": "address"
        }
      ],
      "stateMutability": "view",
      "type": "function"
    },
    {
      "inputs": [],
      "name": "renounceOwnership",
      "outputs": [],
      "stateMutability": "nonpayable",
      "type": "function"
    },
    {
      "inputs": [
        {
          "internalType": "address",
          "name": "newOwner",
          "type": "address"
        }
      ],
      "name": "transferOwnership",
      "outputs": [],
      "stateMutability": "nonpayable",
      "type": "function"
    },
    {
      "inputs": [
        {
          "internalType": "uint256",
          "name": "amount",
          "type": "uint256"
        }
      ],
      "name": "withdraw",
      "outputs": [],
      "stateMutability": "nonpayable",
      "type": "function"
    }
  ],
  "transactionHash": "0x0f7f474c719733808b2a8b15c216a9c190dc9c78cc159fa340e0bc5d030794c5",
  "args": [
    "0xfc00000000000000000000000000000000000005"
  ],
  "numDeployments": 1,
  "solcInputHash": "7f29d2913e2a1b138a23be0bb943c87a",
  "bytecode": "0x608060405234801561001057600080fd5b506040516107cd3803806107cd83398101604081905261002f916100d4565b338061005557604051631e4fbdf760e01b81526000600482015260240160405180910390fd5b61005e81610084565b50600180546001600160a01b0319166001600160a01b0392909216919091179055610104565b600080546001600160a01b038381166001600160a01b0319831681178455604051919092169283917f8be0079c531659141344cd1fd0a4f28419497f9722a3daafe3b4186f6b6457e09190a35050565b6000602082840312156100e657600080fd5b81516001600160a01b03811681146100fd57600080fd5b9392505050565b6106ba806101136000396000f3fe608060405234801561001057600080fd5b50600436106100885760003560e01c80637c1297861161005b5780637c129786146100c55780638da5cb5b146100cd57806399a5d747146100ed578063f2fde38b1461010e57600080fd5b806305c211d21461008d5780632e1a7d4d146100a2578063715018a6146100b5578063778cf4c6146100bd575b600080fd5b6100a061009b366004610599565b610121565b005b6100a06100b03660046105c5565b6102dc565b6100a061039c565b6100a06103b0565b6100a061040a565b6000546040516001600160a01b0390911681526020015b60405180910390f35b6101006100fb3660046105c5565b6104a6565b6040519081526020016100e4565b6100a061011c3660046105de565b6104c5565b6001546040516323b872dd60e01b8152336004820152306024820152604481018490526001600160a01b03909116906323b872dd906064016020604051808303816000875af1158015610178573d6000803e3d6000fd5b505050506040513d601f19601f8201168201806040525081019061019c9190610600565b6101df5760405162461bcd60e51b815260206004820152600f60248201526e151c985b9cd9995c8819985a5b1959608a1b60448201526064015b60405180910390fd5b60006101ea836104a6565b6101f49084610638565b60408051600181526020810186905290810182905242606082015290915033907f0250c838bae2cda1e214f0925d41846180714450539039d6fd90a4121d98738e9060800160405180910390a27fe078fb854f34cd8ca5f749fe2e680b692ef7df5e057026369a30c8965a3219ca436000600243338660405160200161029f9392919092835260609190911b6bffffffffffffffffffffffff19166020830152603482015260540190565b60408051601f19818403018152828252805160209182012095835282019390935291820152606081019190915260800160405180910390a1505050565b6102e4610500565b60015460405163a9059cbb60e01b8152336004820152602481018390526001600160a01b039091169063a9059cbb906044016020604051808303816000875af1158015610335573d6000803e3d6000fd5b505050506040513d601f19601f820116820180604052508101906103599190610600565b6103995760405162461bcd60e51b815260206004820152601160248201527015da5d1a191c985dd85b0819985a5b1959607a1b60448201526064016101d6565b50565b6103a4610500565b6103ae600061052d565b565b6103b8610500565b60408051600181526305f5e1006020820152633b9aca0081830152426060820152905133917f0250c838bae2cda1e214f0925d41846180714450539039d6fd90a4121d98738e919081900360800190a2565b610412610500565b604080514360208083018290523360601b6bffffffffffffffffffffffff1916838501526509184e72a00060548085018290528551808603909101815260748501808752815191909301209290915260006094840152600260b484015260d483019190915291517fe078fb854f34cd8ca5f749fe2e680b692ef7df5e057026369a30c8965a3219ca9181900360f40190a150565b600060646104b583600161064b565b6104bf9190610662565b92915050565b6104cd610500565b6001600160a01b0381166104f757604051631e4fbdf760e01b8152600060048201526024016101d6565b6103998161052d565b6000546001600160a01b031633146103ae5760405163118cdaa760e01b81523360048201526024016101d6565b600080546001600160a01b038381166001600160a01b0319831681178455604051919092169283917f8be0079c531659141344cd1fd0a4f28419497f9722a3daafe3b4186f6b6457e09190a35050565b80356001600160a01b038116811461059457600080fd5b919050565b600080604083850312156105ac57600080fd5b823591506105bc6020840161057d565b90509250929050565b6000602082840312156105d757600080fd5b5035919050565b6000602082840312156105f057600080fd5b6105f98261057d565b9392505050565b60006020828403121561061257600080fd5b815180151581146105f957600080fd5b634e487b7160e01b600052601160045260246000fd5b818103818111156104bf576104bf610622565b80820281158282048414176104bf576104bf610622565b60008261067f57634e487b7160e01b600052601260045260246000fd5b50049056fea2646970667358221220185b055f5bd190dacf52b7ff8e8eac5d7dbf11031749810876b036080542589364736f6c63430008140033",
  "devdoc": {
    "errors": {
      "OwnableInvalidOwner(address)": [
        {
          "details": "The owner is not a valid owner account. (eg. `address(0)`)"
        }
      ],
      "OwnableUnauthorizedAccount(address)": [
        {
          "details": "The caller account is not authorized to perform an operation."
        }
      ]
    },
    "kind": "dev",
    "methods": {
      "owner()": {
        "details": "Returns the address of the current owner."
      },
      "renounceOwnership()": {
        "details": "Leaves the contract without owner. It will not be possible to call `onlyOwner` functions. Can only be called by the current owner. NOTE: Renouncing ownership will leave the contract without an owner, thereby disabling any functionality that is only available to the owner."
      },
      "transferOwnership(address)": {
        "details": "Transfers ownership of the contract to a new account (`newOwner`). Can only be called by the current owner."
      }
    },
    "version": 1
  },
  "userdoc": {
    "kind": "user",
    "methods": {},
    "version": 1
  },
  "storageLayout": {
    "storage": [
      {
        "astId": 8,
        "contract": "contracts/FraxFerryMockL2.sol:FraxFerryMockL2",
        "label": "_owner",
        "offset": 0,
        "slot": "0",
        "type": "t_address"
      },
      {
        "astId": 383,
        "contract": "contracts/FraxFerryMockL2.sol:FraxFerryMockL2",
        "label": "_asset",
        "offset": 0,
        "slot": "1",
        "type": "t_contract(IERC20)225"
      }
    ],
    "types": {
      "t_address": {
        "encoding": "inplace",
        "label": "address",
        "numberOfBytes": "20"
      },
      "t_contract(IERC20)225": {
        "encoding": "inplace",
        "label": "contract IERC20",
        "numberOfBytes": "20"
      }
    }
  }
}